:020000040800F2
:10000000A0230020A9130008390300083B030008BF
:100010003D0300083F030008410300080000000002
:100020000000000000000000000000004303000882
:1000300045030008000000004703000849030008CA
:10004000C3130008C3130008C3130008C313000838
:10005000C3130008C3130008C3130008C313000828
:10006000E10A0008C3130008C3130008C313000803
:10007000C3130008C3130008C3130008C313000808
:10008000C3130008C3130008C3130008C3130008F8
:10009000C3130008C3130008C3130008C3130008E8
:1000A000C3130008C3130008C3130008C3130008D8
:1000B000C3130008DD0B0008B90B0008C3130008C8
:1000C000C3130008C3130008C3130008C3130008B8
:1000D000C3130008E1040008C31300082D1300082F
:1000E000C3130008C3130008C3130008C313000898
:1000F000C3130008C3130008C3130008C313000888
:10010000C3130008C3130008C3130008C313000877
:10011000C3130008C3130008C3130008FF0C000832
:10012000C3130008C3130008C3130008C313000857
:10013000C3130008C3130008C3130008C313000847
:10014000C3130008C3130008C3130008C313000837
:10015000C3130008C3130008C3130008C313000827
:10016000C3130008C3130008C3130008C313000817
:10017000C3130008C3130008C3130008C313000807
:10018000C3130008C313000800F002F800F067F87A
:100190000AA090E8000C82448344AAF10107DA45E2
:1001A00001D100F05CF8AFF2090EBAE80F0013F0CD
:1001B000010F18BFFB1A43F00103184780460000E7
:1001C000A04600000A444FF0000C10F8013B13F069
:1001D000070408BF10F8014B1D1108BF10F8015BA0
:1001E000641E05D010F8016B641E01F8016BF9D193
:1001F00013F0080F1EBF10F8014BAD1C0C1B09D1EA
:100200006D1E58BF01F801CBFAD505E014F8016B5B
:1002100001F8016B6D1EF9D59142D6D370470000ED
:100220000023002400250026103A28BF78C1FBD8FF
:10023000520728BF30C148BF0B607047642903F0E4
:10024000BF87782903F0F887732904F04A810020DA
:1002500070471FB504F097F91FBD10B510BD04F02D
:100260005BF91146FFF7F5FF00F008F804F079F9A3
:1002700003B4FFF7F2FF03BC00F0FCFF4FF4A060F3
:1002800001F0B2F8F82000F07DFF4FF4E13000F00B
:10029000FBFF254D0124C5F8B8424FF4E13005F5C8
:1002A0002E7500F045F903F0F6FC00F0FCFC4FF46D
:1002B000FA7000F0ACFF00F04DFA00F01DFC00F009
:1002C0004CFC1A48C0F89442C0F88C42C0F89042E6
:1002D0001748C0F8A8426C6000202860012000F098
:1002E00096FF144C00F08CFC2168401A052804D9B4
:1002F00000F086FC206000F0F5FE00F081FC6168F3
:10030000401A0A2804D900F07BFC606003F048FC26
:1003100000F079FCA168401A0A28E3D900F073FCC8
:10032000A06000F004FDDDE7008040420080414213
:1003300000004342000000207047FEE7FEE7FEE7B2
:10034000FEE770477047704770470000564882B01C
:10035000016841F4700101605448016841F00101F5
:10036000016053494FF0000CC1F800C0026822F44C
:10037000102222F080720260031D4E4A1A60026849
:1003800022F4802202600A1DC2F800C0CDF800C02D
:10039000CDF804C0026842F480320260026802F4C0
:1003A00000320192009A521C0092019A1AB9009AE6
:1003B000B2F5A04FF2D1026812F4003F08BFCDF8A9
:1003C00004C034D0012201923B4AD2F800C04CF064
:1003D000805CC2F800C0394AD2F800C04CF4404CEE
:1003E000C2F800C00A680A600A6842F400420A6063
:1003F0000A6842F4A0520A60314A1A60026842F068
:1004000080720260026812F0007FFBD02D4A40F239
:1004100005701060086820F003000860086840F06C
:1004200002000860086800F00C000828FAD126498C
:100430004FF00060086002B0704730B41C4C206878
:10044000224D234910F00C0008D0DFF888C00428A2
:1004500008BFC1F800C002D008280BD00D6020688A
:100460001D4AC0F30310105C0A6822FA00F008600D
:1004700030BC7047194A1068C0F380531068002BD5
:1004800000F03F0014BFBCFBF0F0B5FBF0F01368C8
:100490001268C3F388135843C2F30142521C52003E
:1004A000B0FBF2F00860DAE788ED00E000380240C7
:1004B00008380240103000244038024000700040EC
:1004C0000C7C4007003C024008ED00E00024F400F2
:1004D0000C000020001BB700100000200438024070
:1004E00010B55D4C40F22551204601F049FD002831
:1004F00008BF10BD204601F0B2FC584AC1B240F21C
:10050000FF731088984228BF10BD554B554C1954A5
:10051000401C10800121204602F0A6FA002120464E
:1005200001F0E4FE2046BDE81040012101F011BFBA
:100530002DE9F0410746012188B0084601F03CFA58
:100540000121102001F05CFADFF81C81072209214B
:10055000404601F0C3F807220A21404601F0BEF8E8
:100560004FF4C060009002208DF8040003258DF840
:10057000055000248DF8064001268DF80760694675
:10058000404601F027F88DF8046030038DF80550DF
:1005900000908DF806408DF807606946404601F0EE
:1005A00019F80297ADF810400C202B4FADF80C4015
:1005B000ADF81200ADF80E40ADF8144002A938466F
:1005C00001F0AAFB0121384601F022FC4021384607
:1005D00001F0D3FC012240F22551384601F0AEFC77
:1005E00025208DF818008DF819508DF81A508DF8C7
:1005F0001B6006A800F0FFFE1C48C0F8B04208B01F
:10060000BDE8F0812DE9F041DFF8608005464FF04C
:1006100001000E004FF00004C8F8B0020E4F0DD0DC
:100620004021384601F0A2FC0028F9D0295D384667
:1006300001F011FC601CC4B2B442F1D34021384631
:1006400001F094FC0028F9D0044900200880C8F883
:10065000B002BDE8F0810000001001402000002041
:100660006C010020001400400000024000004042E5
:100670002DE9F04182B001217F2001F09DF9012494
:100680008DF804404FF23F008DF80740002600909F
:100690008DF8066003258DF805506946FE4800F088
:1006A00099FFFE4F69463846009500F093FF8DF89C
:1006B00004404CF203708DF80640DFF8E4830090AC
:1006C0008DF805508DF807406946404600F082FFDE
:1006D0004FF6807000906946F24800F07BFF3820AA
:1006E0008DF8044000908DF806608DF8055069463D
:1006F000404600F06FFFA00200906946384600F0C7
:1007000069FFA80300906946E74800F063FF0420F2
:100710008DF8074000908DF805508DF8046069460B
:10072000384600F057FF082000906946DF4800F087
:1007300051FF8DF8044060038DF8066000908DF83D
:1007400005508DF807406946404600F043FF02B06F
:10075000BDE8F08130B585B0FFF78AFF012188033D
:1007600001F04EF90221062001F036FA0C20029029
:1007700000208DF80C0008258DF80D5001248DF80F
:100780000E4002A801F033FC8DF8005002258DF8D0
:1007900001508DF802508DF80340684600F02BFEA2
:1007A00009208DF800008DF801408DF802508DF879
:1007B0000340684600F01FFE05B030BD2DE9F04152
:1007C000BB4F06460024A7F12008A7F1600537F8C3
:1007D000140038F814103040E040C2B255F824003C
:1007E00000F071FF601CC4B2102CF0D3BDE8F081A2
:1007F00003004FF0FF30C1F34E02C1F3034C09D0A8
:10080000012B0DD0022B02BFC1F303510F2902F5BA
:10081000F0007047BCF10D0F08BF02F5D020704703
:10082000BCF10E0F08BF02F5E02070472DE9F0473C
:10083000A0490024C0F34E034A78611EC0F3034C64
:100840004AB1012A0DD0022A02BFC0F303500F287B
:1008500003F5F0010AE0BCF10D0F08BF03F5D0214C
:1008600004E0BCF10E0F08BF03F5E021C1F3160050
:10087000DFF844A2060BC0F30B050120CAF8A8025A
:100880008E4FA7F11808A7F1480957F8240038F847
:1008900014102840E040C2B259F8240000F013FFC1
:1008A000601CC4B20C2CF0D30A2000F07EFC0020A7
:1008B000CAF8A802044657F8240038F8141030404B
:1008C000E040C2B259F8240000F0FDFE601CC4B242
:1008D0000C2CF0D3BDE8F0872DE9F0410C46FFF772
:1008E000A5FF734F26880024A7F12008A7F1600513
:1008F00037F8140038F814103040E040C2B255F810
:10090000240000F0E0FE601CC4B2102CF0D36C4B4D
:100910000022C3F89022C3F88C226648017800298F
:10092000FCD00121C3F89012C3F88C120270BDE80C
:10093000F0817047634A106800F4804162480160AA
:10094000116801F400414160116801F0010181600A
:10095000116801F00201C16052490B6903F0800384
:1009600003610B6903F4807343610B6903F4007343
:1009700083610B6903F48063C3610B6903F4006353
:1009800003620B6903F4805343620B6903F4005361
:1009900083620B6903F48043C362096901F4004177
:1009A0000163116801F480714163116801F4007101
:1009B0008163116801F48061C16370472DE9F041E2
:1009C0000024FFF733FF3E4D0026C5F89462C5F8BA
:1009D0008C62384801780029FCD0DFF8E8C0DCF8E8
:1009E000001001F4804338490B60DCF8002002F469
:1009F00000424A60DCF8002002F001028A60DCF864
:100A0000002002F00202CA60264A176907F0800738
:100A10000F61176907F480774F61176907F4007752
:100A20008F61176907F48067CF61176907F4006762
:100A30000F62176907F480574F62176907F4005770
:100A40008F62176907F48047CF62126902F400428F
:100A50000A63DCF8002002F480724A63DCF80020AC
:100A600002F400728A63DCF8002002F48062CA6338
:100A70000122C5F89422C5F88C2206700F204FF68B
:100A8000FF7251F820C0BCF1000F18BF44F0010400
:100A900002EA4404401E19E000140240001802401B
:100AA000000C024000100240000402400008024016
:100AB00000010020240000200000434270000020BC
:100AC00000804142100C02406C11002010F0FF0029
:100AD000D7D1002B18BF44F001042046BDE8F081B7
:100AE0000448012101704188491C4180042001F023
:100AF000E1BA00002400002010B584B001210220DA
:100B000000F075FF43F26F00019040F2E730ADF85E
:100B1000000000203D4CADF80200ADF80800694629
:100B2000204601F096FB01221146204601F07DFF90
:100B30000121204601F00DFC1D208DF80C00022043
:100B40008DF80D0003208DF80E0001208DF80F00A8
:100B500003A800F050FC04B010BD10B584B0012112
:100B6000042000F044FF43F26F0001906320ADF8D1
:100B700000000020264CADF80200ADF808006946E0
:100B8000204601F066FB01221146204601F04DFF90
:100B90000121204601F0DDFB1E208DF80C00012014
:100BA0008DF80D0003218DF80E108DF80F0003A8AD
:100BB00000F021FC04B010BD10B5154C01212046F9
:100BC00001F047FF012803D112480168491C016068
:100BD0002046BDE81040012101F046BF10B50B4C86
:100BE0000121204601F035FF012803D10948416861
:100BF000491C41602046BDE81040012101F034BF8E
:100C0000044800687047034840687047000400408B
:100C1000000800402001002030B44FF0FF0C4A1EB5
:100C2000634692B224BFFE4C04F580750BD310F8D6
:100C3000011B521E81EA0C0192B214F801C08CEA29
:100C4000030C6B5CF3D230BC43EA0C20704710B548
:100C500084B00121202000F0CAFE2820019043F238
:100C60006F00ADF800000020EE4CADF80800ADF8C4
:100C700002006946204601F0ECFA012211462046A6
:100C800001F0D3FE37208DF80C0002208DF80D0006
:100C900003208DF80E0001208DF80F0003A800F04E
:100CA000AAFB04B010BD10B584B00121202000F0D3
:100CB0009EFE2820019043F26F00ADF80000002056
:100CC000D84CADF80800ADF802006946204601F0A6
:100CD000C0FA01221146204601F0A7FE37208DF808
:100CE0000C0002208DF80D0003208DF80E0001206D
:100CF0008DF80F0003A800F07EFB04B010BD10B506
:100D0000C84C0121204601F0A4FE002808BF10BDF8
:100D10000121204601F0A8FE0021204601F019FB28
:100D2000C1490120C1F8B002C049487010BD10B5DA
:100D3000BE4CA078002808BF10BD002002F0B7F814
:100D4000032818BF10BDA088401CA08010BDB84A61
:100D500022F810107047B74AC1F30B03C1F3023CED
:100D600022F83030B44B02EBC00211F4004F13F8FC
:100D70000C3093800CBF01210221D180508070473C
:100D8000AE4948857047AD49C882704710B5A74C39
:100D9000A17871B101290CBF10F0010F10BD10F046
:100DA000020F08BF10BD002002F0C8F80020A0709C
:100DB00010BD10F0010F08BF10BD10F0020F18BFDA
:100DC00010BD00219D4801F09EFF002818BF10BDF6
:100DD000002002F081F8002808BF0120E7D010BDF4
:100DE0002DE9F05F914D0024954F2889002874D992
:100DF000924EDFF84082A14640F2416A40F2426BD7
:100E000007EB4400EA88B0F80700111989B240BA2C
:100E1000B1F5C86F2FD051455AD0594508BFF0825F
:100E200056D0A1F5C063433B08BF708550D0A1F5F3
:100E3000C063443B08BFBDE8F09F40F245638B426E
:100E40009CBF40F265639A4239D2A1F24561C9B2B2
:100E5000C0F30B0228F83120774AC0F3023310F4B4
:100E6000004FD25C08EBC1039A800CBF0120022026
:100E7000D88059802CE0A97829B1012908BF10F049
:100E8000010F13D024E010F0010F21D010F0020F59
:100E90001ED10021694801F036FF30B9002002F070
:100EA0001BF8002804BF0120A87011E010F0020F09
:100EB0000ED0002002F042F885F8029008E0A1F27E
:100EC0006561B1F5087F03D2594A89B222F8110051
:100ED000601C84B22889844292D35A4C3878062107
:100EE000207078786070B878A070F878E070387901
:100EF0002071787960712046FFF78EFE010AA1719A
:100F0000E0712046BDE8F05F0821FFF77BBB10B51C
:100F10004B4C4649A088C98840BAB1F5C66F1FBF7F
:100F2000A1F5C062B2F14102A1F58062B2F5117281
:100F300008BF10BDB1F5C86F26D0404AA1F5C06307
:100F4000423B08BFD0822CD0A1F5C063433B08BF11
:100F5000508526D0A1F24562202A18D2D1B2354A56
:100F6000C0F30B03C0F3023C22F83130324B02EBEA
:100F7000C10210F4004F13F80C3093800CBF012015
:100F80000220D08051800CE0FFF700FF09E0A1F2C1
:100F90006561B1F5087F28BF10BD89B2244A22F8E7
:100FA000110028482178017061784170A178817022
:100FB000E178C1702179017161794171A179817103
:100FC000E179C171BDE810400821FFF71BBB2DE995
:100FD000F05F164D002040F6850CEB8829895A18E1
:100FE000624588BFBDE8F09F154A164C002992F86B
:100FF00000C084F800C052786270A17056D9AA88E7
:10100000DFF82C9040F2416A40F2426B40F2436EAE
:101010004FEA1228D7B21A1892B2B2F5C66F13E08F
:1010200090450008001400400000404228010020C4
:101030008C1300200C1C0020340100200C1D00200B
:101040006C0100206C09002014BFB2F5C86FBDE828
:10105000F09F52451ABF5A457245BDE8F09F40F2D5
:10106000456C624524BF40F2656C9C4588BFBDE875
:10107000F09FA2F5806CBCF5117C2DD0A2F2656CBE
:10108000BCF5047F28BFBDE8F09F09EB4202A2F542
:101090008052B2F836C304EB40024FEA1C26D670E9
:1010A00082F804C0401C80B28842B4D3032000EB15
:1010B000410081B22E48FFF7AFFD2989030A04EBF6
:1010C0004102D3701071BDE8F05F052000EB4100D4
:1010D000C1B22748FFF796BA04EB400282F80380BA
:1010E0001771DFE770B5234C6078012818BF70BD19
:1010F000214D2178214E2878884231D16878032803
:101100001CBF062810282BD1688840BAE080B0F5B3
:10111000C66F25D93088801E81B21748FFF77CFD45
:1011200060813188294431F8021C49BA884217D1BC
:101130006878032804D0062808D0102809D00FE0CA
:10114000A88840BA2081FFF742FF09E0FFF7DFFEE1
:1011500006E0A88840BA2081A879E070FFF740FE39
:101160000020074960703080C1F8B00270BD0000F7
:101170006C090020280100206C01002020000020C4
:101180000000404210B504466FF0040000F07BF907
:101190003749E00800EB40020870C2EBC0104FF680
:1011A000FF7202EAC000488010BD31490978484307
:1011B0004FF0E021486100238B61086940F0010095
:1011C0000861086910F0010F02D010F4803FF8D0D8
:1011D000086920F0010008618B6170472449498843
:1011E00048434FF0E021486100238B61086940F0DB
:1011F00001000861086910F0010F02D010F4803F6F
:10120000F8D0086920F0010008618B6170474FF445
:101210000771B0FBF1F2B0FBF1F330B401FB130046
:1012200012F0FF021ED012494FF4077300244988C0
:1012300001FB03F54FF0E0235D619C61196941F00A
:1012400001011961196911F0010F02D011F4803FF9
:10125000F8D0196921F0010119619C61511E11F04A
:10126000FF02E9D1002804BF30BC704730BCB5E7AD
:101270003A010020704747490A8812F0400FFBD01E
:10128000454AC1B211807047F0B5054687B00121CB
:10129000022000F091FB0121880400F0A8FB3F4FE1
:1012A00007220A21384600F019FA07220B21384696
:1012B00000F014FA02218DF814108DF815104FF477
:1012C0004060002404908DF8164001268DF81760C8
:1012D00004A9384600F07EF9ADF80440ADF80640A8
:1012E000ADF80840ADF80C400C202A4CADF80A00CF
:1012F00000956946204600F00FFD0121204600F0D0
:1013000087FD012240F22551204600F017FE2720DC
:101310008DF8180003208DF819008DF81A008DF84B
:101320001B6006A800F067F807B0F0BD10B5194CB7
:1013300040F22551204600F023FE002808BF10BDD2
:10134000204600F08CFD164AC1B2108810F4004F00
:1013500018BF10BD10F4804F4FF0000306D00A29CB
:1013600008BF40F4004012D0138010BD0D2908BF03
:1013700040F480400BD0C0F30D0C0A4C401C80B2EE
:1013800004F80C101080C72898BF10BDECE710803F
:1013900010BD000000480040044800400004024026
:1013A0003E010020AC110020094880470948004751
:1013B000FEE7FEE7FEE7FEE7FEE7FEE7FEE7FEE705
:1013C000FEE7FEE704480549054A064B7047000062
:1013D0004D03000889010008A01D0020A023002063
:1013E000A01F0020A01F00202C4940F0FD7040F0FD
:1013F00080600860704710B4C27801784FF00F0C1D
:1014000001241AB3254A126801F1E02102F4E062D6
:10141000C2F5E062C2F30722C2F104032CFA02FC17
:1014200042789A40837803EA0C031A43120181F848
:101430000024007800F01F0104FA01F14009800047
:1014400000F1E020C0F8001110BC704701F01F004F
:1014500004FA00F04909890001F1E021C1F8800196
:1014600010BC704721F07F0121F0604108430C4916
:10147000086070470B4A0029116814BF084321EA2D
:101480000000106070474FF0E021042808690CBF8D
:1014900040F0040020F00400086170470CED00E00B
:1014A00008ED00E010ED00E010B5A0F18041B1F5CD
:1014B000003129D0B1F5806130D0B1F5806137D0ED
:1014C000B1F580613ED0B1F5806145D0B1F5806164
:1014D0004CD0B1F5806153D0B1F580615AD0B1F5EF
:1014E000806161D0B1F5806169D0B1F5806118BFCC
:1014F00010BD0121880200F08CFABDE810400021E7
:101500004FF4806000F085BA0121084600F081FAAE
:101510000021BDE81040012000F07BBA012102202B
:1015200000F077FA0021BDE81040022000F071BA07
:101530000121042000F06DFA0021BDE810400420D4
:1015400000F067BA0121082000F063FA0021BDE82D
:101550001040082000F05DBA0121102000F059FA77
:101560000021BDE81040102000F053BA01212020D6
:1015700000F04FFA0021BDE81040202000F049BAE9
:101580000121402000F045FA0021BDE81040402034
:1015900000F03FBA0121802000F03BFA0021BDE8B5
:1015A0001040802000F035BA0121080200F031FA25
:1015B000BDE8104000214FF4807000F02ABA0121EC
:1015C000480200F026FABDE8104000214FF40070F8
:1015D00000F01FBA2DE9F0010022012603270B6855
:1015E00006FA02FC03EA0C03634538D10568530090
:1015F00007FA03F4A54305600D79D0F800809D40FB
:1016000045EA080505600D79012D18BF022D17D197
:101610008568A54385604D79D0F808809D4045EAEE
:1016200008058560456825EA0C0CC0F804C0D0F8B0
:1016300004C08D799540ADB24CEA050CC0F804C0E9
:10164000D0F80CC02CEA040CC0F80CC091F807C00C
:101650000CFA03F3D0F80CC043EA0C03C360521C2D
:10166000102ABCD3BDE8F00170474FF6FF7101604E
:101670000021017141718171C171704781B041F4E4
:1016800080320092C261C1610099C161C169C069C3
:10169000009001B070470246002012690A4218BF4C
:1016A00001207047006980B27047024600205269ED
:1016B0000A4218BF01207047406980B27047018319
:1016C000704741837047002A14BF018341837047EC
:1016D0004161704742695140416170474B07DB0EE1
:1016E0009A40C90800EB8100016A4FF00F0C0CFA18
:1016F00003F399430162016A1143016270470000DC
:10170000FA48016841F001010160F94A00211160C5
:10171000026822F4102222F0A8520260031DF54A4A
:101720001A60F64BF44A1A601B1DF54A1A600268EB
:1017300022F480220260F3480160181D01607047A6
:10174000F14900220A7008707047002241090129FE
:1017500004BFE649096804D002290CBFEB49EC49F3
:10176000096800F01F00012303FA00F0084218BFC7
:1017700001221046704708B50020DC4A0090002086
:10178000116811F4003F18BF01200099491C009115
:10179000B1F5A04F01D00028F1D03120FFF7D5FFDF
:1017A000002818BF012008BDD04A116821F0F801B7
:1017B00041EAC00010607047D64908607047D349BD
:1017C00000220A700A70012803D004280CBF0520EB
:1017D000704708707047D0490860704741EA82112D
:1017E0005A08CE4BDDF800C003EB02421143084318
:1017F000CB4940EA0C6008607047C64908667047EC
:10180000800140EA0170BD4908607047C14988669F
:101810007047800140EA0160C24940EA02700860F6
:101820007047BC4908677047BA49C8647047B04BF5
:101830001A68084322F0EC62104318607047AC4B02
:101840001A68084322F07842104318607047A84A8B
:10185000116821F00301084310607047A448006834
:1018600000F00C007047A24A116821F0F001084313
:10187000106070479E4A116821F4E05108431060DF
:1018800070479B4A116821F4604141EAC000106032
:101890007047DFF85CC230B4DCF80010A24D11F0E4
:1018A0000C0106D0A14C042908BF046002D008290D
:1018B0001DD00560DCF800100F229D4B02EA1111CB
:1018C000595C026822FA01F14160DCF8002007242B
:1018D00004EA92229A5C21FA02F28260DCF800208B
:1018E00004EA52329A5CD140C16030BC70478C4AE5
:1018F0001168C1F380531168002B01F03F0114BF40
:10190000B4FBF1F1B5FBF1F113681268C3F388136E
:101910005943C2F30142521C5200B1FBF2F1016083
:10192000C8E74FF44071814309D1714A116820F42E
:10193000407321F4F81123F0704319431160734987
:101940000A68C0F30B0010430860704779490860CB
:1019500070477949086070476E49C1F85C0170476B
:10196000764A1168401E21F01F010843106070473D
:10197000724A11686FF0FF0321F4F85103EB002065
:101980000843106070476D4A116821F44011084304
:1019900010607047694A116821F4400108431060E3
:1019A0007047664A116821F440310843106070475F
:1019B0006349C1F8E0017047624A0029116814BF09
:1019C000084321EA0000106070475F4A002911684F
:1019D00014BF084321EA0000106070475B4A0029E9
:1019E000116814BF084321EA000010607047584A8C
:1019F0000029116814BF084321EA000010607047F5
:101A0000544A0029116814BF084321EA00001060FD
:101A10007047514A0029116814BF084321EA0000A9
:101A2000106070474D4A0029116814BF084321EA2D
:101A30000000106070474A4A0029116814BF08432B
:101A400021EA000010607047464A0029116814BF5F
:101A5000084321EA000010607047434A00291168DA
:101A600014BF084321EA0000106070473F4A002974
:101A7000116814BF084321EA0000106070473C4A17
:101A80000029116814BF084321EA00001060704764
:101A9000384A0029116814BF084321EA0000106089
:101AA0007047354A0029116814BF084321EA000035
:101AB00010607047314A0029116814BF084321EAB9
:101AC0000000106070471149012808680CBF40F001
:101AD000080020F0080008607047294A00291178A2
:101AE00014BF084321EA000010707047003802401C
:101AF00008380240103000240030002084380240B2
:101B0000003000240C380240023802407038024095
:101B10007438024000004742800E47420000FFFF39
:101B200004380240883802400024F400001BB7004B
:101B3000440100203C0E4742400E47428C38024090
:101B400000104742303802403438024038380240F2
:101B500040380240443802401038024014380240F5
:101B600018380240203802402438024050380240E1
:101B7000543802405838024060380240643802400D
:101B80000D3802400848016841F0807101607047DB
:101B9000064A0146002012680A4218BF0120704719
:101BA0000349087070470000743802400C38024046
:101BB0000E38024010B501218803FFF74EFFBDE843
:101BC000104000214FF48040FFF747BF15490860DF
:101BD00070471549086270478A0721F0030101F137
:101BE000804101F59831120F0F23D1F808C89340B6
:101BF0002CEA0303C1F80838D1F80838904018439C
:101C0000C1F8080870470849C1F8DC007047074967
:101C10000860704706490020096811F4807F18BFEA
:101C2000012070470038014000002742000427428D
:101C30002038014010B5A0F18041B1F5883120D0A5
:101C400011F54C4127D0B1F580612FD0B1F58061FD
:101C500037D0B1F580613FD0B1F5444147D011F59F
:101C60001C414ED0B1F5806118BF10BD0121C807DD
:101C7000FFF7EAFEBDE8104000214FF00040FFF7FB
:101C8000E3BE01211020FFF7E8FE0021BDE810406F
:101C90001020FFF7E2BE01214804FFF7D5FEBDE8A2
:101CA000104000214FF40030FFF7CEBE0121880420
:101CB000FFF7CAFEBDE8104000214FF48020FFF777
:101CC000C3BE0121C804FFF7BFFEBDE810400021DC
:101CD0004FF40020FFF7B8BE01210805FFF7B4FE5E
:101CE000BDE8104000214FF48010FFF7ADBE012188
:101CF0002020FFF7B2FE0021BDE810402020FFF7B2
:101D0000ACBE01218807FFF79FFEBDE8104000210F
:101D10004FF08040FFF798BE30B50446008A85B08A
:101D20000D46C98820F4405008432082A089A98824
:101D30002A8920F4037011436A8920F4A0501043CB
:101D40000843A081A08AA98920F440700843A0829A
:101D50006846FFF79EFDA4F18040B0F588301BBFB8
:101D6000A4F18040B0F58A3003980298A18911F45B
:101D7000004F00EBC00101EB0010296814BF4900BF
:101D80008900B0FBF1F0924A6FF0180CA2FB003111
:101D9000490909010B0903FB0CF300EB8300A3893C
:101DA00013F4004F4FF0320314BF03EBC00003EBFA
:101DB0000010A2FB00204FEA501014BF00F00700F3
:101DC00000F00F000843208105B030BD4FF41651DC
:101DD000016000218180C18001810C2242818181CA
:101DE0007047028A0B88B1F802C022F4706243EA9D
:101DF0000C03B1F804C0C9884CEA0101194311432E
:101E0000018270470021018041808180C18070473C
:101E10000029818914BF41F4005121F400518181CE
:101E20007047028B02F47F420283028B11430183CD
:101E300070470029818914BF41F40041C1F30E01AC
:101E4000818170470029818A14BF41F4006121F427
:101E5000006181827047C1F30801818070478088EA
:101E6000C0F308007047028A22F00F020282028A41
:101E70001143018270470029818914BF41F002019A
:101E800021F0020181817047828922F400628281FF
:101E90008289114381817047028A22F020020282E6
:101EA000028A1143018270470029018A14BF41F45C
:101EB000804121F4804101827047818941F0010114
:101EC000818170470029818A14BF41F0080121F007
:101ED000080181827047028BD2B20283028B42EAF0
:101EE0000121018370470029818A14BF41F020013C
:101EF00021F02001818270470029818A14BF41F0BE
:101F0000100121F0100181827047828A22F00402C0
:101F10008282828A1143818270470029818A14BF9C
:101F200041F0020121F0020181827047002A828A79
:101F300014BF114322EA010181827047C1F34213A9
:101F400001F01F014FF0010C0CFA01F1012B08BF49
:101F50000C3003D0022B0CBF10301430002A026862
:101F600014BF114322EA01010160704702460020BC
:101F700012880A4218BF01207047C9430180704788
:101F800010B401F01F020124C1F3421304FA02F25B
:101F90004FF0000C012B04BF83891A4004D0022BA0
:101FA0000CBF038A838A1A40090A008804FA01F1E7
:101FB0000840002A1CBF00284FF0010C604610BCEE
:101FC0007047090A012202FA01F1C94301807047F2
:101FD0001F85EB51394900200860091D0860091D63
:101FE0000860091D086037493548086070478379E3
:101FF000324A0168002B34D0136823EA01011160D2
:10200000111D0A6803689A430A60017901F1804151
:1020100001F59E310A6803681A430A602A4A11686A
:10202000036899431160131D1968D0F800C021EAB4
:102030000C0119604179102908D001F1804101F5A6
:102040009E310A6800681043086070471168D0F834
:1020500000C041EA0C01116019680068084318606B
:102060007047007900F1804000F59E30026822EA56
:102070000101016070470021016001710C22427171
:102080008171704711490A681043086070470D4A12
:102090000146002012680A4218BF01207047094912
:1020A00008607047074A0146002012680A4218BFBC
:1020B000012070470349086070470000003C014060
:1020C000FFFF7F00143C0140083C0140103C0140F0
:1020D00010B5A0F18041B1F5803132D0B0F1804F20
:1020E00043D011F57C4136D0B1F5806147D0B1F5D0
:1020F00080614ED0B1F5806155D0B1F580615CD082
:10210000B1F5704163D0B1F570516AD0B1F580611D
:1021100072D0B1F580617AD011F598317DD0B1F5EA
:1021200080617BD0B1F5806118BF10BD012108022C
:10213000FFF78AFCBDE8104000214FF48070FFF7E4
:1021400083BC01210846FFF788FC0021BDE8104050
:102150000120FFF782BC01210220FFF775FC00215E
:10216000BDE810400220FFF76FBC01210846FFF7D1
:102170006BFC0021BDE810400120FFF765BC012188
:102180000420FFF761FC0021BDE810400420FFF7A8
:102190005BBC01210820FFF757FC0021BDE810407F
:1021A0000820FFF751BC01211020FFF74DFC002152
:1021B000BDE810401020FFF747BC01212020FFF7A9
:1021C00043FC0021BDE810402020FFF73DBC012169
:1021D0000220FFF742FC0021BDE810400220FFF77B
:1021E0003CBC01210804FFF738FCBDE81040002189
:1021F0004FF48030FFF731BC01214804FFF72DFC7C
:10220000BDE8104000214FF40030FFF726BC01214B
:102210008804FFF722FC002101E006E00FE0BDE8A2
:1022200010404FF48020FFF718BC01214020FFF739
:102230000BFC0021BDE810404020FFF705BC012148
:102240008020FFF701FC0021BDE810408020FFF74F
:10225000FBBB10B40288FA4BDFF8E8C3984218BF02
:10226000604511D0B0F1804F1CBFA0F18044B4F59F
:10227000806409D0A0F18044B4F500641CBFA0F1D3
:102280008044B4F5406403D14C8822F070022243AC
:10229000A0F18044B4F580541CBFA0F18044B4F593
:1022A000A05403D00C8922F44072224302804A6871
:1022B000C2620A880285984212BF6045897A018607
:1022C0000121818210BC70474FF0FF314160002135
:1022D000018001814180817270470185828270474F
:1022E000028822F0700211430180704741627047FA
:1022F000C1627047406A7047008D704700290188AD
:1023000014BF41F0020121F0020101807047002951
:10231000018814BF41F0040121F0040101807047DD
:102320000029018814BF41F0800121F08001018063
:102330007047028822F0080202800288114301805F
:102340007047028822F440720280028811430180A3
:1023500070470029018814BF41F0010121F00101FB
:102360000180704710B4028C22F001020284028CBA
:102370008388B0F818C00C882CF0730C44EA0C0C5D
:102380008C8922F0020222434C882243A0F180442F
:10239000B4F580341CBFA0F18044B4F582340DD173
:1023A000CC8922F0080222438C8822F004022243C6
:1023B0000C8A23F4407323434C8A23438380A0F880
:1023C00018C089684163028410BC704730B4028C25
:1023D00022F010020284028C8388B0F818C00D88A5
:1023E0002CF4E6444FF6FF7C0CEA05252C438D893E
:1023F00022F020020CEA05152A434D880CEA051547
:102400002A43A0F18045B5F580351CBFA0F1804579
:10241000B5F5823516D1CD8922F080020CEA05157A
:102420002A438D8822F040020CEA05152A430D8AC2
:1024300023F440630CEA85052B434D8A0CEA850C96
:102440004CEA03038380048389688163028430BC7F
:10245000704730B4028C22F480720284028C83882C
:10246000B0F81CC00C882CF0730C44EA0C048D8965
:102470004FF6FF7C22F400720CEA05252A434D88B2
:102480000CEA05252A43A0F18045B5F580351CBF2F
:10249000A0F18045B5F5823516D1CD8922F40062D0
:1024A0000CEA05252A438D8822F480620CEA052572
:1024B0002A430D8A23F440530CEA05152B434D8A19
:1024C0000CEA051C4CEA0303838084838968C1639A
:1024D000028430BC704730B4028C22F480520284F3
:1024E000038C8288B0F81CC00D884FF6FF742CF462
:1024F000E64C04EA052545EA0C0C8D8923F40053CB
:1025000004EA05352B434D8804EA05352B43A0F139
:102510008045B5F580351CBFA0F18045B5F5823505
:1025200005D10D8A22F4804204EA85142243828078
:10253000A0F81CC089680164038430BC7047002186
:1025400001804180818081608181C18101824182DD
:10255000704710B44FF0010C048C00F118030CFA12
:1025600001FC24EA0C0CA0F820C0002918BF08299F
:1025700011D0081FC0F34E001844016848F6FF73DD
:102580001940016001684FF6FF7303EA022211430C
:10259000016010BC704703EB510001684FF68F7368
:1025A0001940016001681143016010BC704741632C
:1025B000704781637047C163704701647047028B45
:1025C00022F07002114301837047028B4FF6FF73B4
:1025D00022F4E04203EA0121114301837047828B18
:1025E00022F07002114381837047828B4FF6FF7394
:1025F00022F4E04203EA0121114381837047028BF8
:1026000022F00802114301837047028B4FF6FF73DB
:1026100022F4006203EA0121114301837047828B97
:1026200022F00802114381837047828B4FF6FF73BB
:1026300022F4006203EA0121114381837047000004
:102640000000014000040140028B22F0040211430B
:1026500001837047028B4FF6FF7322F4806203EA16
:102660000121114301837047828B22F00402114340
:1026700081837047828B4FF6FF7322F4806203EAF6
:102680000121114381837047028B22F080021143A4
:1026900001837047028B4FF6FF73C2F30E0203EA09
:1026A0000121114301837047828B22F08002114384
:1026B00081837047828B4FF6FF73C2F30E0203EAE9
:1026C0000121114381837047028C22F002021143E1
:1026D00001847047028C22F0080211430184704784
:1026E000028C4FF6FF7322F0200203EA011111431E
:1026F00001847047028C4FF6FF7322F0800203EAD8
:102700000111114301847047028C4FF6FF7322F4CC
:10271000007203EA0121114301847047028C4FF6D5
:10272000FF7322F4006203EA012111430184704720
:10273000028C4FF6FF7322F4005203EA0131114379
:10274000018470470123B0F820C08B402CEA0303BA
:102750000384038C02FA01F11943018470470423B6
:10276000B0F820C08B402CEA03030384038C02FAE8
:1027700001F1194301847047828B22F44062828305
:10278000828B4FF6FF7303EA012111438183704767
:10279000828B22F00C028283828B114381837047EB
:1027A000028B22F440620283028B4FF6FF7303EA2E
:1027B0000121114301837047028B22F00C02028336
:1027C000028B11430183704770B50C46054608889B
:1027D0004988A28823894FF6FF7638B3042843D06E
:1027E0000828288C4ED020F480502884B5F81CC0CE
:1027F000288C2CF4734C06EA022242EA0C0206EA08
:1028000003331A4306EA013120F42040084340F420
:102810008050AA832884A079A98B21F44061A983E0
:10282000A98B06EA00200843A88370BD288C20F0FD
:1028300001002884B5F818C0288C06EA03131A434F
:102840002CF0F30C20F00A0042EA0C02084340F09E
:1028500001002A832884E088298B21F00C01298338
:10286000298B0843288370BD284600F0D0F9A07951
:10287000298B21F440612983298B06EA0020084333
:10288000288370BD20F480702884B5F81CC0288C83
:1028900006EA03131A4306EA01212CF0F30C20F494
:1028A000206042EA0C02084340F48070AA83288426
:1028B000E088A98B21F00C01A983A98B0843A88388
:1028C00070BD00210180418001228280C180018190
:1028D00070472DE9F0410C4649880027012605463E
:1028E000002908BF0227A288012A08BF02262088E3
:1028F00023894FF6FF7850B3284600F088F9A07975
:10290000298B21F440612983298B08EA00200843A0
:1029100028832089298C21F0010129842A8B298C84
:1029200008EA001022F0F3023043104321F00A01BC
:10293000394341F0010128832984E088298B21F063
:102940000C012983298B08432883BDE8F081288C5A
:1029500020F001002884288BB5F820C008EA031372
:1029600020F0F3001A4310432CF00A02114341F007
:10297000010128832984E088298B21F00C01298317
:10298000298B08432883238932463946284600F09C
:102990003EF9A079298B21F440612983298B08EA2B
:1029A000002008432883BDE8F081406B7047806BAE
:1029B0007047C06B7047006C70470A884B88B1F84D
:1029C00006C01A438B8843EA0C031A430B891A4347
:1029D0004B8989891A431143A0F84410704700219C
:1029E000018041808180C180018141818181704766
:1029F0000029B0F8441014BF41F40041C1F30E01A6
:102A0000A0F8441070470029818814BF41F00401E8
:102A100021F00401818070470029818814BF41F0B2
:102A2000010121F0010181807047002A828914BFD1
:102A3000114322EA01018181704781827047024679
:102A40000020128A0A4218BF01207047C943018240
:102A50007047038A002280890B4200EA01001CBFF4
:102A60000028012210467047C94301827047114374
:102A7000A0F848107047002A828914BF114322EA47
:102A80000101818170470029818814BF41F008014C
:102A900021F0080181807047018921F0070101813F
:102AA0007047028922F07002114301817047028948
:102AB00022F0700211430181018941F00701018177
:102AC000704770B594460D460446602920D0208C8E
:102AD00020F001002084218B208C4FF6FF7202EA47
:102AE000031221F0F30142F0010220F00A00114329
:102AF00040EA0C0040F0010021832084208920F06E
:102B0000700028432081208940F00700208170BD9B
:102B10000122614600F07BF8F0E710B4B0F808C07D
:102B20004FF6FF7404EA03231A430CF0FF0C114321
:102B300041EA0C01018110BC704710B4B0F808C024
:102B40004FF6FF7404EA03231A430CF0FF0C114301
:102B500041EA0C010181018941F07701018110BC3A
:102B6000704710B4B0F808C04FF6FF7404EA0323AE
:102B70001A430CF0FF0C114341EA0C010181018959
:102B800041F48041018110BC7047828822F07002BC
:102B900082808288114381807047028922F0070277
:102BA00002810289114301817047028922F080026B
:102BB0000281028911430181704730B40589B0F860
:102BC00018C0048C25F0070529432CF0030C2CF4C5
:102BD000407C40F201154CEA050C4FF6FF7505EA02
:102BE000031324F022041A4322430181A0F818C0E1
:102BF000028430BC70470029818814BF41F08001F5
:102C000021F0800181807047A0F85010704730B4E7
:102C1000B0F820C02CF0100CA0F820C0048BB0F845
:102C200020C04FF6FF7524F4734405EA03332343B1
:102C300005EA02221A4305EA01112CF0A003194308
:102C400041F010010283018430BC70472DE9F0414E
:102C50000020FF4F044604EB440107EB8106318955
:102C6000D9B1706800F5627001F032FA014610F0D7
:102C7000080018BF802011F0040118BF402140EA6D
:102C800001087068002500F15806204600F03FFB5F
:102C9000002818BF3C2507D02846611C8CB254EA96
:102CA0000001D8D0BDE8F081304601F009FA20F0EB
:102CB000C00008F0C0010143304601F0FBF9EBE72A
:102CC0002DE9F04115460E46044600F020FB0700B2
:102CD00016D1DF4804EB440100EB8104606800F585
:102CE000637001F0F5F900F47040284320F470405F
:102CF00040EA063081B2606800F5637001F0E2F9E5
:102D00003846BDE8F08100291CBF052070472DE939
:102D1000F84F05460E460022CE481C21491E0904E4
:102D2000090C00F8012BF9D1C94806EB460100EB6C
:102D3000810007460C21491E0904090C00F8012BEB
:102D4000F9D1288C0090EB8BAA8B3046A96900F052
:102D5000A7FC38B1062814BF0B28BDE8F88F052062
:102D6000BDE8F88FB5F82290B5F824800A243046E3
:102D700000F0CDFA002849D1786800F5607B58460C
:102D800001F0A6F98246B8F1030F11D82AF4406089
:102D900040EA88201FFA80FA5146584601F092F91D
:102DA000B8F1010F04D908221146304600F0C0FAEC
:102DB0002AF003000BF1080840F00201B9F1020FFC
:102DC0002FD0B87A012831D0B9F1010F0CBF4FF0E4
:102DD00008094FF00009584601F074F902214046F5
:102DE00001F070F90121404601F06CF9404601F014
:102DF0006FF900F00800484502D0611E8CB2EDD298
:102E00005146584601F05EF9FFF720FFB5F81680ED
:102E1000304600F07CFA002808BF18F4704F31D11A
:102E20000FE00021404601F04DF9EDE7B9F1010F47
:102E30001CBF03214046E5D10B21404601F042F979
:102E4000E2E77868414600F5607400F5767001F0BD
:102E500039F9942104F15C0001F034F904F15800CF
:102E600001F036F940450DD12A460121304600F0E7
:102E700080FA00287FF473AF304600F048FA04006F
:102E80000ED102E00620BDE8F88F786800F5637087
:102E900001F01EF97868002100F5637001F012F965
:102EA000002C08BF00207FF45AAFBDE8F88F10B5A2
:102EB000044600F02CFA00281CBFFF2010BD04EBD4
:102EC0004400634901EB8000406800F5607001F048
:102ED000FFF800F0030010BD70B5064600F017FAC9
:102EE000040018BF022401D0204670BD584806EBEC
:102EF000460100EB8105686800F5607001F0E8F8B4
:102F000010F0030F08BF0924EED000220221304642
:102F100000F00EFA304600F0FAF90028E4D1FFF78D
:102F200095FE686800F5607001F0D2F840F003018A
:102F3000686800F5607001F0C5F8D5E770B5044623
:102F400000F0E5F9050018BF022501D0284670BD44
:102F50003F4804EB440100EB8104606800F56070B9
:102F600001F0B6F820F00201606800F5607001F031
:102F7000A9F8EBE72DE9FF5F0C460E9F05463549A2
:102F8000C7EBC70001EB80069B464FF000083846B0
:102F900000F0BDF900281EBF022004B0BDE8F09F7C
:102FA00007EB47012A4800EB8109D9F8040000F536
:102FB000607001F08DF8032131EA00001EBF0A2085
:102FC00004B0BDE8F09F308AA84213D3D9F80400BA
:102FD000376800F5617001F07BF810F0070018BF4A
:102FE00001280BD007EB450001F06AF80746708A0C
:102FF000B84215D204B00320BDE8F09F15F0010FD0
:1030000007D0681E20F00100384401F059F8070A83
:10301000EDE725F00100384401F052F8C7B2E6E7C9
:10302000002F08BF4FF0030851D0F17D706807FAF8
:1030300001F100EB0109484601F042F8C0F381209C
:10304000012818BF4FF00408484601F039F803E0A2
:103050007412002080120020000B4FF0010A0AFABF
:1030600000F0C5B201F037F809F1040001F028F8CA
:10307000ABF800000299884207D224F802ABB8F1FD
:10308000000F08BF4FF0010802E0002024F8020BF7
:1030900009F1020001F014F810F0400018BF2020E0
:1030A00007F0030100EBC100B16827F0030201EB58
:1030B000021146184DB13046B61C01F001F824F853
:1030C000020B681E10F0FF05F5D101F003F804B003
:1030D0004046BDE8F09F2DE9F0478A460446174672
:1030E000FF49C2EBC70001EB800582B04FF000083A
:1030F000104600F00CF900281EBF022002B0BDE807
:10310000F087288AA04217D3F64907EB470001EB66
:1031100080002E68406800F5617000F0D9FF10F063
:10312000070018BF01280BD006EB440000F0C8FFD1
:103130000646688AB04215D202B00320BDE8F08787
:1031400014F0010F07D0601E20F00100304400F0A1
:10315000B7FF060AEDE724F00100304400F0B0FFAD
:10316000C6B2E6E7002E08BF4FF0030855D0E97D50
:10317000686806FA01F14718384600F0A1FFC0F36D
:10318000812002281EBF072002B0BDE8F087384624
:1031900000F096FF000B4FF0010909FA00F0C4B2ED
:1031A00000F099FFB81C00F08BFF10F0400F0CBF2F
:1031B0002020002006F0030100EBC10026F00302EE
:1031C000A9680AF1020601EB021145184CB1284624
:1031D00036F8021BAD1C00F06DFF601E10F0FF04FE
:1031E000F5D1B81CCDF8049000F06AFFADF80000EE
:1031F000BDF8000080F04000ADF80000BDF8001000
:10320000B81C00F057FF0198BDF80010401C019059
:10321000B81C00F04FFF00F05DFF02B04046BDE873
:10322000F08710B5002401F0320100F081F8002889
:1032300018BF0224204610BD10B5022400F067F824
:1032400010B9FFF703FD0024204610BD70B50646F7
:103250000C460225084600F05AF858B9A14904EB7B
:10326000440001EB8000406800F5767000F030FF0C
:1032700030800025284670BD70B50D46994A00EB98
:10328000400102EB8104A17A01291CBF112070BD0D
:1032900000F03DF800281CBF022070BD2946606880
:1032A00000F5757000F00EFF606800F5607000F0CA
:1032B0000FFF032131EA000008BF70BD606800F510
:1032C000607000F005FF00F0030001280CBF09202A
:1032D000002070BD10B5044600F019F800281CBF8E
:1032E000002010BD04EB44007E4901EB80004068E3
:1032F00010BD10B5044600F00AF800281CBF0020DD
:1033000010BD04EB4400774951F8200010BD0100C6
:1033100018BF3C20002818BF704701EB41007149DD
:1033200001EB80000089002814BF00203C2070477A
:103330002DE9F04116460C466A4A00EB400102EBCB
:1033400081010025496801F15807FFF7E0FF0028D7
:1033500018BF3C2502D02846BDE8F081384600F071
:10336000AFFEA04306EA04010143384600F0A2FE86
:10337000F1E72DE9F74F84B014460498584BC0EBA1
:10338000C00203EB8208002818BF342017D034286D
:1033900019BF40461C2207B0BDE8F08F521E120430
:1033A0004FF00003120C00F8013BF7D188F815101C
:1033B000E18C0120884309D04FF03309B3E098F83D
:1033C0001B00012814BF33200020E0E7228D0323D7
:1033D00033EA020014BF4FF001094FF00009B9F1C0
:1033E000000FE9D1A8F81010A8F81220617D88F824
:1033F000141001290CD188F817302068002100280A
:1034000008BF3321C8F80000227D012A2ED011B157
:103410004FF0320987E0B8F812000021421C98F8FA
:10342000170002FA00F082B26068002808BF33215A
:10343000C8F80400237D012B2BD00029E8D1B8F86F
:1034400012004FF0000B401C8108890100F00300BE
:1034500001EBC00082B2A068002808BF4FF0330B18
:10346000C8F80800217D012918D040E00029CFD1FB
:103470000028D0D098F8141011F0010FB8F81010EF
:103480000EBF491C4900891C8AB2002100F059FB7B
:10349000C1E70029BCD100F054FBD0E7BBF1000F1D
:1034A000B6D12569DDB1B8F812100746491C5FEAAC
:1034B000910A1FD0AAF101001FFA80FA1026701E8F
:1034C00086B22988384600F0F5FD298807F12000EA
:1034D00000F0F0FDAD1C002EF1D1403704E032E0E9
:1034E0008012002074120020BAF1000FE2D1BBF16B
:1034F000000F8DD1B8F812000021401C8208920103
:1035000000F0030002EBC00082B2E068002808BFB0
:103510003321C8F80C0000297FF47AAF00F011FBCA
:10352000217D88F816100498B4F82AA0E66A00EB0A
:103530004000FE4901EB8000406800F5617000F03A
:10354000C7FD029034E04FF6FF7100F0FAFAD1E7C0
:10355000AAF101001FFA80FA0298778800F00702AA
:103560003088F588B1880191D8E9001398F817C020
:1035700007FA0CFC63440093B8F81030834225BF6F
:10358000B8F81230BB420123002373B9002D18BFD5
:10359000012D05D0022D1CBF032D4FF0010901D1D3
:1035A0004FF00009B9F1000F09D04FF03309083688
:1035B000BAF1000F4CD0B9F1000FC9D04FE0002A8A
:1035C0001EBF012A01EB4000394606D000F072FD13
:1035D000DDE900B00027400820E010F0010F0ED018
:1035E000401E20F001000844834600F069FDC0B28F
:1035F00040EA072081B2584600F05CFDE8E720F081
:1036000001000844834600F05BFD00F47F4040EA7F
:1036100007015846DAE74008791C8FB2012818BF25
:103620000028F8D1584600F04BFD67F30F300146F3
:10363000584600F03FFD032D08BF0225009800F01A
:103640003FFD65F38B200146009800F033FDAEE7A7
:10365000B9F1000F04BF012088F81B001CD0608D59
:1036600000281CBFD8F8000000280DD098F81410CE
:1036700011F0010FB8F810100EBF491C4900891C49
:103680008AB2002100F05DFA1C200021401E0004D7
:10369000000C08F8011BF9D107B04846BDE8F08FCF
:1036A0002DE9FF4F81B090468A4605004FF03C045B
:1036B00040F043829D4801214FF00A0BC0F800A062
:1036C00001819B4805EB450930F81510801E30F844
:1036D0001500084340F4806000909448022600EBF7
:1036E0008907924850F82910924850F8260008445B
:1036F000786000F560742046009900F0E3FC701ECD
:1037000006B2002EEDDA21468BA0009A00F0E8FC0C
:10371000874830F81520801E30F8150042EA000175
:1037200048F2054041EA00063146204600F0CAFC56
:103730003246214689A000F0D3FC4FF6FF7104F118
:10374000280000F0BFFC4FF6FF7221468DA000F06C
:10375000C7FC204600F0BCFCB04207D104F12800B1
:1037600000F0B6FCA0F57F41FC3902D0062400F041
:10377000A3B86E4841F6020150F8290000F57056D2
:1037800000F5795000F096FC41F2024106F5187000
:1037900000F090FC002106F2422000F08BFC00219A
:1037A00006F2622000F086FC4AF25A5106F18000CF
:1037B00000F080FC002106F1E00000F07BFC5C489A
:1037C000A0F1020930F8151039F81500014348F24C
:1037D0003E4001432046009100F074FC214675A054
:1037E000009A00F07DFC00F077FC41F2010206F542
:1037F000407179A000F074FC202204F1200182A025
:1038000000F06EFC41F2010106F5407000F052FC40
:10381000202104F1200000F055FC00F05EFC04F1D2
:10382000200000F055FC10F4007FF6D106F1E00016
:1038300000F046FCA0F525415A3918BF0B243BD1B6
:1038400000F04AFC76A000F04BFC394830F8151027
:1038500039F81500014348F205400143204600F0C5
:1038600031FC75A000F03CFC201D00F031FC00F4A0
:103870007840B0F5004F1CBF0020B8721BD101206A
:10388000B87204F16C0000F023FC10F0010F04F199
:10389000500008D000F01CFC20F0010104F15000A1
:1038A00000F010FC07E000F013FC40F0010104F10F
:1038B000500000F007FC0024002C18BFBBF1010BE6
:1038C0007FF4FFAE214664A000F00AFCB8F1020FBD
:1038D0008CBF3C24002C27D10E99002040EA4110D7
:1038E00020F01801049841EAC00080B220F00700DF
:1038F00040EA08070D4805EB450100EB81063A4612
:10390000706800F561715CA000F0EAFB70683946F0
:1039100000F5617000F0D6FB064850F8280000EB77
:103920000A055C487560B7E007E1000074120020EA
:1039300092470008944700085265736574204D56FD
:1039400042432C20534352203078257820776974E5
:103950006820307825780D0A00000000436F6E66FD
:103960006967757265204D5642432C20534352209F
:1039700030782578207769746820307825780D0AAA
:10398000000000005772697465204D5642432D6354
:10399000686172616374657269737469632C205322
:1039A0004352203078257820776974682030782554
:1039B000780D0A004C6F6F706261636B20746573E1
:1039C000742C20534352203078257820776974680E
:1039D00020307825780D0A0053656E642074657375
:1039E00074206D6173746572206672616D652074F8
:1039F0006F20545320307825782077697468203000
:103A00007825780D0A0000005772697465203078B7
:103A10002578207769746820307825780D0A0000B1
:103A20004C6F6F706261636B20746573742069738F
:103A3000204F4B0D0A0000005475726E206F6666B1
:103A4000206C6F6F706261636B2074657374206D9E
:103A50006F64650D0A0000004861726420696E6938
:103A600074204D56424320726573756C74203D205E
:103A700025640D0A00000000436F6E666967204DE3
:103A80004352203078257820776974682030782573
:103A9000780D0A00D04700083249334E50F828000C
:103AA00051F82810504401EB0A0736F8182000217D
:103AB00000F047F836F818200021384600F041F8A9
:103AC000A6F15000002150F8280000EB0A0630460D
:103AD00000F0F0FAB01C002100F0ECFA23480021BD
:103AE00050F8280000EB0A06304600F0E3FAB01C5C
:103AF000002100F0DFFA4FF48072002105F500701C
:103B000000F01FF84FF400720021284600F019F869
:103B100005F50E7116A000F0E3FA4FF6020105F567
:103B20000E7000F0C7FA002105F23A2000F0C2FA48
:103B3000822105F1580000F0BDFA05B02046BDE82D
:103B4000F08F70B50E460546540808BF70BD601E64
:103B500084B22846AD1C314600F0ACFA002CF6D1F8
:103B600070BD0000E4470008F8470008BC470008A3
:103B70004D564243206465766963652073746174B1
:103B8000757320706F727420464331352061646410
:103B9000726573733A20307825780D0A00000000B2
:103BA0002DE9F04FBF48002483B000782546002857
:103BB00004BF03B0BDE8F08FBB4EDFF8F0B24FF0AA
:103BC00000083178BBF82A00ABF5A86A0AF58869C5
:103BD00011B3002888BFB64F13D909EBC400C088C1
:103BE000012837D004EB041007EB400139F834000A
:103BF0000022FFF770FA601CC4B2BBF82A00A04292
:103C0000EBD84FF402410020FFF736FB0020FFF70E
:103C100013FB03B0BDE8F08F002816D909EBC400F0
:103C2000C08801280BD104EB04100AEB4001CDF849
:103C3000008039F8340001AB0022FFF79BF9601CCB
:103C4000C4B2BBF82A00A042E8D80120307003B00B
:103C5000BDE8F08F04EB0416CDF8008007EB4601B9
:103C600039F8340001AB0022FFF784F90020002D61
:103C70000CD932183AF8123037F812108B4218BFAC
:103C80002AF81210401CC0B2A842F2D3601C68434C
:103C900027F81080AFE785484FF450234FF45C219C
:103CA000C0E900314FF4542181604FF458210022C3
:103CB000C0E9031201210175417540F6FF7CA0F8AF
:103CC00026C04FF01F0CA0F828C083610223838315
:103CD000C283028443848184A0F58071C1627047ED
:103CE0002DE9F04F714883B04FF450214FF45C221E
:103CF000C0E900124FF45422002482604FF458228D
:103D0000C0E9032401230375437540F6FF72C284A2
:103D10004FF0070CA0F828C00425458581610222D8
:103D20008283C4830484428483840A21C182A0F5EF
:103D30008071C162D00108804D808A80CA80401C99
:103D40000881052048818A81CA814FF40270088267
:103D5000062048828A82CB8240F209200883A1F89B
:103D60001AC08A83504ECB83274677713771F7701C
:103D7000B77077704FA15C4800F0BEF95BA168484E
:103D800000F0BAF967A1664800F0B6F906F1060836
:103D90004AF6AA20A8F8020006F10A094010A9F87C
:103DA00002006DA000F09CF975A000F099F979A0CF
:103DB00000F096F97FA000F093F900213B48FEF750
:103DC000A2FF7070014683A000F08AF9707848B9AC
:103DD0000020FFF781F87070014682A000F080F9A2
:103DE000707818B103B00020BDE8F08F00252A4696
:103DF00080494FF48070FFF76EF9B07000227E4961
:103E000040F20110FFF767F9DFF8F0A1F0700AF156
:103E1000040B2146641C7AA000F062F904EBD47014
:103E200020F00100201A00EB05118DB20CBFA8F89C
:103E30000250A9F8025002AB002270494FF4027000
:103E40000097FFF797F8307102AB0022754940F2F6
:103E500009200097FFF78EF87071F178B9F8020029
:103E6000CDE90001B8F80220B3786FA12C4800F02A
:103E700043F97179BBF80200CDE90001BAF80220DC
:103E8000337979A1884800F037F9874B87A0A3F1EF
:103E90005002A2F1500100F023F90020FFF7CCF905
:103EA000B7E700002A010020540100200C1D00206B
:103EB0008C130020202020202020202020506F72F2
:103EC000743A2056616C7565202F2045727220204F
:103ED00020202020506F72743A2056616C75652046
:103EE0002F204572720D0A009C120020536F7572CC
:103EF00063653A20203130302020203132333420A5
:103F00002F20203030202020202020203130312050
:103F100020203132333420202F20303000000000A8
:103F2000EC12002053696E6B3A202020203230388A
:103F300020202031323334202F2020303020202008
:103F40002020202032303920202031323334202FDD
:103F5000202030300000000054657374206F66200C
:103F600050432F31303420554C2D41504920696E3B
:103F700020436C61737320312E310D0A0000000064
:103F8000513A20517569742070726F6772616D0DBE
:103F90000A000000303A20496E7075742056616C3A
:103FA000756520666F7220506F7274203130300D4D
:103FB0000A000000313A20496E7075742056616C19
:103FC000756520666F7220506F7274203130310D2C
:103FD0000A0000004D564243496E69743A20256438
:103FE0000D0A00004D56424353746172743A202505
:103FF000640D0A005A0100205E01002062010020C9
:1040000054657374202325642067657420736F756D
:1040100072636520616E642073696E6B20706F72CD
:10402000740D0A0066010020536F757263653A20B3
:10403000203130302020202530342E3458202F20BD
:10404000202530322E3264202020202020203130C4
:10405000312020202530342E345820202F202530A8
:10406000322E32640D0A000053696E6B3A20202014
:10407000203230382020202530342E3458202F2074
:10408000202530322E326420202020202020323083
:10409000392020202530342E3458202F2020253060
:1040A000322E32640D0A00003C1300202573257364
:1040B0002573000013B501A9FCF70EFC02B010BD7A
:1040C000FCF77CBC13B501A9FCF706FC02B010BDDF
:1040D000FCF774BC7047704770477047704700002A
:1040E0000FB4044910B503AA029800F0FFF910BC00
:1040F0005DF814FB400100200FB41CB5074B06AA65
:104100007B4469460090059800F0C1F9002069469B
:1041100000F0D0F91CBC5DF814FB0000B1030000F6
:1041200070B5044685690068C10601D5302600E0F7
:104130002026C00707D070BDD4E901213046904742
:10414000206A401C20626D1EF6D570BD70B5044615
:1041500085690078C00707D170BDD4E9012120200E
:104160009047206A401C20626D1EF6D570BD70B568
:104170000C460546012A05D02878800600D5EA6954
:10418000002302E0012305E05B1C934202D2E05CC5
:104190000028F9D1A869E618C01AA861286A18444D
:1041A00028622846FFF7BCFF04E0D5E9012114F896
:1041B000010B9047B442F8D32846FFF7C7FF70BD04
:1041C0002DE9F0410646002410687529314616A5F0
:1041D00010D0AFF30080002802DA404213A507E0B8
:1041E00031688A0701D512A502E0490704D511A557
:1041F000012401E0AFF3008000210A2206F1240728
:1042000009E0B0FBF2FCB0FBF2F302FB1C00303023
:1042100078541846491C0028F3D123462A463046D4
:10422000BDE8F04100F0D4B8000000002D0000000F
:104230002B0000002000000070B504460D4621460A
:104240001068AFF300802188090502D50F4A7A442F
:1042500002E00E4A7A440E32002104F1240305E004
:1042600000F00F060009965D5E54491C0028F7D146
:1042700020780023000704D5702D02D009B1022355
:1042800011322046BDE8704000F0A2B8B005000031
:104290002DE9F05F894604464FF0000ADFF824B1AB
:1042A000FB44C0F820A02046E168884700287DD064
:1042B000252806D0D4E901219047206A401C2062BD
:1042C000F1E700255F462046E1688847202806463A
:1042D00007DB312E05D2B81910F8200C08B10543C0
:1042E000F1E7A80701D525F00405C4F81CA00027B4
:1042F000C4F818A02A2E09D0304600F03DF938B392
:1043000004EB8708303EC8F8186019E059F8041B20
:10431000204604EB87029161E1688847012F064639
:1043200018D1E069002820DA25F020051DE0D8F832
:10433000180000EB800006EB40003038C8F8180089
:104340002046E1688847064600F016F90028EED1BD
:10435000012F0AD02E2E08D12046E16888477F1C05
:104360000646022F45F02005C4DBA069002803DAC9
:10437000404245F00105A061E80701D025F0100595
:10438000A6B1A6F14100192802D8203645F40065EF
:104390004A463146204625604D46FBF74FFF60B147
:1043A000012807D0ED1D25F0070000E007E000F12F
:1043B000080978E705F1040975E730467AE7206ACD
:1043C000BDE8F09F86050000704770477047704752
:1043D0002DE9F0470D4699469246044600F124081F
:1043E0000168880604D5E06921F01001216000E031
:1043F0000120A84201DD471B00E00027A1697A19CE
:1044000002EB0900081AA0612078C00602D42046F9
:10441000FFF786FE002608E0D4E901211AF806001D
:104420009047206A401C761C20624E45F4DB2078C1
:10443000C0060AD52046FFF773FE06E0D4E9012145
:1044400030209047206A401C2062381EA7F10107E7
:10445000F4DC07E0D4E9012118F805009047206A50
:10446000401C2062281EA5F10105F3DC2046FFF761
:104470006DFE2078000602D50220BDE8F0870120FD
:10448000FBE7000001694A1C02610878704700B52B
:104490008FB0CDE901310021059105497944CDE97D
:1044A000031011466846FFF7F3FE0FB000BD000091
:1044B000E5FFFFFF0A6802F8010B0A60704710B5BC
:1044C000436913B1AFF3008001E0FFF750FE012014
:1044D00010BD127800F124010A7000224A700122F6
:1044E000EDE711684FF0FF32E9E70000074B70B5C8
:1044F0000D467B44FFF7CBFF0446284600F008F842
:1045000010B14FF0FF3070BD204670BD81CDFFFF70
:10451000007B00F080007047754600F029F8AE4639
:1045200005006946534620F00700854618B020B5BF
:10453000FCF748FFBDE820404FF000064FF00007B1
:104540004FF000084FF0000B21F00701AC46ACE83B
:10455000C009ACE8C009ACE8C009ACE8C0098D46A8
:1045600070470446AFF300802046FBF781FE000051
:10457000004870473C1D002030380A2801D2012035
:104580007047002070474FF04070E1EE100A70470E
:1045900000C1814001C0804101C0804100C1814013
:1045A00001C0804100C1814000C1814001C0804103
:1045B00001C0804100C1814000C1814001C08041F3
:1045C00000C1814001C0804101C0804100C18140E3
:1045D00001C0804100C1814000C1814001C08041D3
:1045E00000C1814001C0804101C0804100C18140C3
:1045F00000C1814001C0804101C0804100C18140B3
:1046000001C0804100C1814000C1814001C08041A2
:1046100001C0804100C1814000C1814001C0804192
:1046200000C1814001C0804101C0804100C1814082
:1046300000C1814001C0804101C0804100C1814072
:1046400001C0804100C1814000C1814001C0804162
:1046500000C1814001C0804101C0804100C1814052
:1046600001C0804100C1814000C1814001C0804142
:1046700001C0804100C1814000C1814001C0804132
:1046800000C1814001C0804101C0804100C1814022
:1046900000C0C101C30302C2C60607C705C5C404E2
:1046A000CC0C0DCD0FCFCE0E0ACACB0BC90908C852
:1046B000D81819D91BDBDA1A1EDEDF1FDD1D1CDC42
:1046C00014D4D515D71716D6D21213D311D1D010B2
:1046D000F03031F133F3F23236F6F737F53534F4A2
:1046E0003CFCFD3DFF3F3EFEFA3A3BFB39F9F83812
:1046F00028E8E929EB2B2AEAEE2E2FEF2DEDEC2C02
:10470000E42425E527E7E62622E2E323E12120E071
:10471000A06061A163A3A26266A6A767A56564A461
:104720006CACAD6DAF6F6EAEAA6A6BAB69A9A868D1
:1047300078B8B979BB7B7ABABE7E7FBF7DBDBC7CC1
:10474000B47475B577B7B67672B2B373B17170B031
:104750005090915193535292965657975595945421
:104760009C5C5D9D5F9F9E5E5A9A9B5B9959589891
:10477000884849894B8B8A4A4E8E8F4F8D4D4C8C81
:1047800044848545874746868242438341818040F1
:1047900000030000003C0000007C000000FC000062
:1047A00000FC000000FC00000030000000300000B1
:1047B00000C0000000000300000003000000000033
:1047C0000070000000F000000040000000800300C6
:1047D00000000000000000000000000000000000D9
:1047E0000000000000000000004000000020000069
:1047F0000020000000200000001000100020002019
:104800000020303132333435363738394142434471
:104810004546403058003031323334353637383938
:10482000616263646566403078000400000800003F
:104830000000000000020001000010005C480008B9
:10484000000000206C010000C4010008CC480008F2
:104850006C0100203422000020020008D1847A0379
:104860000A900901020304060708090C23140240F8
:10487000044A180412011202120412081210222013
:10488000290512402A8014320132023204320832E1
:10489000101922191F213A8079D9211A0C50A90424
:1048A0000A211004A9305978195CA99319164910E6
:1048B000E915F926712997812D02040810B4C12D3C
:0C48C000010203040405180607080900A3
:040000050800018965
:00000001FF
