:020000040800F2
:10000000680A00202D0E0008E9020008EB02000833
:10001000ED020008EF020008F102000800000000F5
:10002000000000000000000000000000F3020008D3
:10003000F502000800000000F7020008F9020008BD
:10004000470E0008470E0008470E0008470E00083C
:10005000470E0008470E0008470E0008470E00082C
:10006000CD0A0008DF0A0008470E0008470E000806
:10007000470E0008470E0008470E0008470E00080C
:10008000470E0008470E0008470E0008470E0008FC
:10009000470E0008470E0008470E0008470E0008EC
:1000A000470E0008470E0008470E0008470E0008DC
:1000B000470E0008DD0B0008470E0008470E000839
:1000C000470E0008470E0008470E0008470E0008BC
:1000D000470E000891040008470E0008B10D000803
:1000E000470E0008470E0008470E0008470E00089C
:1000F000470E0008470E0008470E0008470E00088C
:10010000470E0008470E0008470E0008470E00087B
:10011000470E0008470E0008470E0008470E00086B
:10012000470E0008470E0008470E0008470E00085B
:10013000470E0008470E0008470E0008470E00084B
:10014000470E0008470E0008470E0008470E00083B
:10015000470E0008470E0008470E0008470E00082B
:10016000470E0008470E0008470E0008470E00081B
:10017000470E0008470E0008470E0008470E00080B
:10018000470E0008470E000800F002F800F067F87C
:100190000AA090E8000C82448344AAF10107DA45E2
:1001A00001D100F05CF8AFF2090EBAE80F0013F0CD
:1001B000010F18BFFB1A43F0010318479C3D0000D4
:1001C000BC3D00000A444FF0000C10F8013B13F056
:1001D000070408BF10F8014B1D1108BF10F8015BA0
:1001E000641E05D010F8016B641E01F8016BF9D193
:1001F00013F0080F1EBF10F8014BAD1C0C1B09D1EA
:100200006D1E58BF01F801CBFAD505E014F8016B5B
:1002100001F8016B6D1EF9D59142D6D370470000ED
:100220000023002400250026103A28BF78C1FBD8FF
:10023000520728BF30C148BF0B607047642903F0E4
:100240004D84782903F08684732903F0D885002033
:1002500070471FB503F025FE1FBD10B510BD03F09C
:10026000E9FD1146FFF7F5FF00F008F803F007FE7F
:1002700003B4FFF7F2FF03BC00F03EFD70B54FF48E
:10028000A06000F0F3FDF82000F0BEFC4FF4E13078
:1002900000F03CFD114D0124C5F8B8424FF4E130A7
:1002A00005F52E7500F00CF94FF4FA7000F0F1FC32
:1002B00000F046FA0A48C0F89442C0F88C42C0F8F0
:1002C00090420848C0F8A8426C60002028600120D5
:1002D00000F0DFFC03F092F9002070BD0080404286
:1002E00000804142000043427047FEE7FEE7FEE720
:1002F000FEE770477047704770470000564882B06D
:10030000016841F4700101605448016841F0010145
:10031000016053494FF0000CC1F800C0026822F49C
:10032000102222F080720260031D4E4A1A60026899
:1003300022F4802202600A1DC2F800C0CDF800C07D
:10034000CDF804C0026842F480320260026802F410
:1003500000320192009A521C0092019A1AB9009A36
:10036000B2F5A04FF2D1026812F4003F08BFCDF8F9
:1003700004C034D0012201923B4AD2F800C04CF0B4
:10038000805CC2F800C0394AD2F800C04CF4404C3E
:10039000C2F800C00A680A600A6842F400420A60B3
:1003A0000A6842F4A0520A60314A1A60026842F0B8
:1003B00080720260026812F0007FFBD02D4A40F28A
:1003C00005701060086820F003000860086840F0BD
:1003D00002000860086800F00C000828FAD12649DD
:1003E0004FF00060086002B0704730B41C4C2068C9
:1003F000224D234910F00C0008D0DFF888C00428F3
:1004000008BFC1F800C002D008280BD00D602068DA
:100410001D4AC0F30310105C0A6822FA00F008605D
:1004200030BC7047194A1068C0F380531068002B25
:1004300000F03F0014BFBCFBF0F0B5FBF0F0136818
:100440001268C3F388135843C2F30142521C52008E
:10045000B0FBF2F00860DAE788ED00E00038024017
:10046000083802401030002440380240007000403C
:100470000C7C4007003C024008ED00E00024F40042
:1004800000000020001BB7000400002004380240D8
:1004900010B56D4C40F22551204601F0B3FA00280A
:1004A00008BF10BD204601F01CFA684AC1B210789E
:1004B000402828BF10BD664B1954401C107010BD59
:1004C0002DE9F0410746012188B0084600F0B6FF4B
:1004D0000121102000F0D6FFDFF8788107220921E2
:1004E000404600F03DFE07220A21404600F038FE5B
:1004F0004FF4C060009002208DF8040003258DF8B1
:10050000055000248DF8064001268DF807606946E5
:10051000404600F0A1FD8DF8046030038DF80550D1
:1005200000908DF806408DF807606946404600F05F
:1005300093FD0297ADF810400C20434FADF80C40EE
:10054000ADF81200ADF80E40ADF8144002A93846DF
:1005500001F024F90121384601F09CF94021384688
:1005600001F04DFA012240F22551384601F028FAF7
:1005700025208DF818008DF819508DF81A508DF837
:100580001B6006A800F079FC3348C0F8B04208B000
:10059000BDE8F0812DE9F041DFF8BC8005464FF061
:1005A00001000E004FF00004C8F8B002264F0DD035
:1005B0004021384601F01CFA0028F9D0295D384660
:1005C00001F08BF9601CC4B2B442F1D3402138462B
:1005D00001F00EFA0028F9D01C4900200870C8F874
:1005E000B002BDE8F0812DE9F047DFF8608000241B
:1005F000064698F800500F46A1460C700A2000F0FD
:1006000048FB98F80000854218BFBDE8F087002D30
:1006100088BF0F4908BFBDE8F08706D9085D30558F
:1006200004F10100C4B2A542F8D8012000EB550244
:100630003146D8F8040000F05EFA98F800003870EF
:1006400088F80090BDE8F0870010014014000020F9
:100650005401002000000240000040422DE9F0411A
:1006600082B001217F2000F0E9FE01248DF80440D2
:100670004FF23F008DF80740002600908DF806608D
:1006800003258DF805506946FE4800F0E5FCFE4F55
:1006900069463846009500F0DFFC8DF804404CF2C6
:1006A00003708DF80640DFF8E48300908DF8055064
:1006B0008DF807406946404600F0CEFC4FF680704A
:1006C00000906946F24800F0C7FC38208DF80440DD
:1006D00000908DF806608DF805506946404600F0A0
:1006E000BBFCA00200906946384600F0B5FCA803A8
:1006F00000906946E74800F0AFFC04208DF8074001
:1007000000908DF805508DF804606946384600F079
:10071000A3FC082000906946DF4800F09DFC8DF89E
:10072000044060038DF8066000908DF805508DF848
:1007300007406946404600F08FFC02B0BDE8F081FA
:1007400030B585B0FFF78AFF0121880300F09AFEDB
:100750000221062000F082FF0C20029000208DF87C
:100760000C0008258DF80D5001248DF80E4002A8CC
:1007700001F07FF98DF8005002258DF801508DF8B9
:1007800002508DF80340684600F077FB09208DF891
:1007900000008DF801408DF802508DF80340684646
:1007A00000F06BFB05B030BD2DE9F041BB4F0646B4
:1007B0000024A7F12008A7F1600537F8140038F8E5
:1007C00014103040E040C2B255F8240000F0BDFCE7
:1007D000601CC4B2102CF0D3BDE8F08103004FF0D0
:1007E000FF30C1F34E02C1F3034C09D0012B0DD0F1
:1007F000022B02BFC1F303510F2902F5F00070472D
:10080000BCF10D0F08BF02F5D0207047BCF10E0FF0
:1008100008BF02F5E02070472DE9F047A049002409
:10082000C0F34E034A78611EC0F3034C4AB1012A5B
:100830000DD0022A02BFC0F303500F2803F5F001C8
:100840000AE0BCF10D0F08BF03F5D02104E0BCF1B4
:100850000E0F08BF03F5E021C1F31600DFF844A234
:10086000060BC0F30B050120CAF8A8028E4FA7F1B2
:100870001808A7F1480957F8240038F81410284040
:10088000E040C2B259F8240000F05FFC601CC4B222
:100890000C2CF0D3012000F0FCF90020CAF8A802CB
:1008A000044657F8240038F814103040E040C2B233
:1008B00059F8240000F049FC601CC4B20C2CF0D3A1
:1008C000BDE8F0872DE9F0410C46FFF7A5FF734F17
:1008D00026880024A7F12008A7F1600537F8140046
:1008E00038F814103040E040C2B255F8240000F04F
:1008F0002CFC601CC4B2102CF0D36C4B0022C3F84B
:100900009022C3F88C22664801780029FCD001218E
:10091000C3F89012C3F88C120270BDE8F0817047E2
:10092000634A106800F4804162480160116801F474
:1009300000414160116801F001018160116801F01E
:100940000201C16052490B6903F0800303610B6926
:1009500003F4807343610B6903F4007383610B69D3
:1009600003F48063C3610B6903F4006303620B69E2
:1009700003F4805343620B6903F4005383620B69F1
:1009800003F48043C362096901F400410163116803
:1009900001F480714163116801F400718163116891
:1009A00001F48061C16370472DE9F0410024FFF735
:1009B00033FF3E4D0026C5F89462C5F88C62384876
:1009C00001780029FCD0DFF8E8C0DCF8001001F461
:1009D000804338490B60DCF8002002F400424A6092
:1009E000DCF8002002F001028A60DCF8002002F04E
:1009F0000202CA60264A176907F080070F6117696B
:100A000007F480774F61176907F400778F611769E2
:100A100007F48067CF61176907F400670F621769F1
:100A200007F480574F62176907F400578F62176900
:100A300007F48047CF62126902F400420A63DCF8CF
:100A4000002002F480724A63DCF8002002F4007295
:100A50008A63DCF8002002F48062CA630122C5F8D0
:100A60009422C5F88C2206700F204FF6FF7251F8C1
:100A700020C0BCF1000F18BF44F0010402EA440496
:100A8000401E19E00014024000180240000C024011
:100A9000001002400004024000080240FC00002058
:100AA0001C000020000043426C00002000804142F6
:100AB000100C02409401002010F0FF00D7D1002B51
:100AC00018BF44F001042046BDE8F0812948012107
:100AD00001704188491C4180042001F02DB825484F
:100AE00008B54068FFF760FFADF8000002216846D6
:100AF000FFF750FD08BD2DE9F05F0646501E0F467A
:100B000085B238BFBDE8F09FDFF86C90A9F1200AEC
:100B1000A9F1600B3046FFF77FFEB7F80080002494
:100B200039F814003AF8141000EA0800E040C2B2A4
:100B30005BF8240000F009FB601CC4B2102CEFD35A
:100B40000E4A0023C2F89032C2F88C32094801786C
:100B50000029FCD00121C2F89012C2F88C12037057
:100B6000691E8DB206F1010607F10207D2D2BDE877
:100B7000F09F00001C000020FC000020008041428B
:100B800030B50D46044685B00121022000F071FC0D
:100B900001940020ADF80050194CADF80200ADF8FA
:100BA00008006946204601F096F8012211462046C9
:100BB00001F07DFC0121204601F00DF91D208DF88A
:100BC0000C0001208DF80D0003218DF80E108DF81A
:100BD0000F0003A800F051F905B030BD10B5084C66
:100BE0000121204601F077FC012803D10548016866
:100BF000491C01602046BDE81040012101F076BC8F
:100C0000000400401C01002010B504466FF00400F1
:100C100000F07BF93749E00800EB40020870C2EBB6
:100C2000C0104FF6FF7202EAC000488010BD314983
:100C3000097848434FF0E021486100238B6108693F
:100C400040F001000861086910F0010F02D010F4B3
:100C5000803FF8D0086920F0010008618B6170477F
:100C60002449498848434FF0E021486100238B61C3
:100C7000086940F001000861086910F0010F02D016
:100C800010F4803FF8D0086920F0010008618B6102
:100C900070474FF40771B0FBF1F2B0FBF1F330B4E1
:100CA00001FB130012F0FF021ED012494FF407732C
:100CB0000024498801FB03F54FF0E0235D619C614E
:100CC000196941F001011961196911F0010F02D090
:100CD00011F4803FF8D0196921F0010119619C617C
:100CE000511E11F0FF02E9D1002804BF30BC70474B
:100CF00030BCB5E720010020704747490A8812F050
:100D0000400FFBD0454AC1B211807047F0B505468F
:100D100087B00121022000F091FB0121880400F03E
:100D2000A8FB3F4F07220A21384600F019FA072294
:100D30000B21384600F014FA02218DF814108DF8BA
:100D400015104FF44060002404908DF816400126E1
:100D50008DF8176004A9384600F07EF9ADF804401C
:100D6000ADF80640ADF80840ADF80C400C202A4C18
:100D7000ADF80A0000956946204600F00FFD0121FC
:100D8000204600F087FD012240F22551204600F068
:100D900017FE27208DF8180003208DF819008DF814
:100DA0001A008DF81B6006A800F067F807B0F0BDC8
:100DB00010B5194C40F22551204600F023FE0028C2
:100DC00008BF10BD204600F08CFD164AC1B2108845
:100DD00010F4004F18BF10BD10F4804F4FF0000307
:100DE00006D00A2908BF40F4004012D0138010BD7D
:100DF0000D2908BF40F480400BD0C0F30D0C0A4C05
:100E0000401C80B204F80C101080C72898BF10BD99
:100E1000ECE7108010BD000000480040044800408E
:100E20000004024024010020D4010020094880472A
:100E300009480047FEE7FEE7FEE7FEE7FEE7FEE7BC
:100E4000FEE7FEE7FEE7FEE704480549054A064BD4
:100E500070470000FD0200088901000868040020B6
:100E6000680A002068060020680600202C4940F02F
:100E7000FD7040F080600860704710B4C27801785F
:100E80004FF00F0C01241AB3254A126801F1E0213A
:100E900002F4E062C2F5E062C2F30722C2F1040389
:100EA0002CFA02FC42789A40837803EA0C031A4336
:100EB000120181F80024007800F01F0104FA01F10A
:100EC0004009800000F1E020C0F8001110BC70471C
:100ED00001F01F0004FA00F04909890001F1E02146
:100EE000C1F8800110BC704721F07F0121F0604102
:100EF00008430C49086070470B4A0029116814BF69
:100F0000084321EA0000106070474FF0E0210428F8
:100F100008690CBF40F0040020F00400086170472D
:100F20000CED00E008ED00E010ED00E010B5A0F1E0
:100F30008041B1F5003129D0B1F5806130D0B1F5F3
:100F4000806137D0B1F580613ED0B1F5806145D088
:100F5000B1F580614CD0B1F5806153D0B1F58061BD
:100F60005AD0B1F5806161D0B1F5806169D0B1F539
:100F7000806118BF10BD0121880200F08CFABDE825
:100F8000104000214FF4806000F085BA012108462E
:100F900000F081FA0021BDE81040012000F07BBA8A
:100FA0000121022000F077FA0021BDE81040022064
:100FB00000F071BA0121042000F06DFA0021BDE8B3
:100FC0001040042000F067BA0121082000F063FA05
:100FD0000021BDE81040082000F05DBA012110207A
:100FE00000F059FA0021BDE81040102000F053BA7B
:100FF0000121202000F04FFA0021BDE81040202000
:1010000000F049BA0121402000F045FA0021BDE876
:101010001040402000F03FBA0121802000F03BFA50
:101020000021BDE81040802000F035BA01210802FF
:1010300000F031FABDE8104000214FF4807000F05C
:101040002ABA0121480200F026FABDE8104000212A
:101050004FF4007000F01FBA2DE9F00100220126C4
:1010600003270B6806FA02FC03EA0C03634538D138
:101070000568530007FA03F4A54305600D79D0F81D
:1010800000809D4045EA080505600D79012D18BFD7
:10109000022D17D18568A54385604D79D0F8088069
:1010A0009D4045EA08058560456825EA0C0CC0F8B6
:1010B00004C0D0F804C08D799540ADB24CEA050C5F
:1010C000C0F804C0D0F80CC02CEA040CC0F80CC066
:1010D00091F807C00CFA03F3D0F80CC043EA0C03F4
:1010E000C360521C102ABCD3BDE8F00170474FF614
:1010F000FF7101600021017141718171C1717047FF
:1011000081B041F480320092C261C1610099C16135
:10111000C169C069009001B07047024600201269A1
:101120000A4218BF01207047006980B2704702462A
:10113000002052690A4218BF01207047406980B2FE
:1011400070470183704741837047002A14BF0183B1
:101150004183704741617047426951404161704726
:101160004B07DB0E9A40C90800EB8100016A4FF083
:101170000F0C0CFA03F399430162016A11430162F7
:1011800070470000FA48016841F001010160F94A26
:1011900000211160026822F4102222F0A85202609D
:1011A000031DF54A1A60F64BF44A1A601B1DF54AF6
:1011B0001A60026822F480220260F3480160181D60
:1011C00001607047F14900220A70087070470022E0
:1011D0004109012904BFE649096804D002290CBF6E
:1011E000EB49EC49096800F01F00012303FA00F005
:1011F000084218BF01221046704708B50020DC4A9B
:1012000000900020116811F4003F18BF01200099E0
:10121000491C0091B1F5A04F01D00028F1D0312038
:10122000FFF7D5FF002818BF012008BDD04A11687C
:1012300021F0F80141EAC00010607047D64908600B
:101240007047D34900220A700A70012803D004288D
:101250000CBF0520704708707047D0490860704780
:1012600041EA82115A08CE4BDDF800C003EB02427E
:1012700011430843CB4940EA0C6008607047C649F7
:1012800008667047800140EA0170BD4908607047F8
:10129000C14988667047800140EA0160C24940EA5E
:1012A000027008607047BC4908677047BA49C86453
:1012B0007047B04B1A68084322F0EC621043186084
:1012C0007047AC4B1A68084322F07842104318600C
:1012D0007047A84A116821F0030108431060704765
:1012E000A448006800F00C007047A24A116821F081
:1012F000F0010843106070479E4A116821F4E051E4
:101300000843106070479B4A116821F4604141EA2C
:10131000C00010607047DFF85CC230B4DCF8001029
:10132000A24D11F00C0106D0A14C042908BF0460A5
:1013300002D008291DD00560DCF800100F229D4B5B
:1013400002EA1111595C026822FA01F14160DCF8ED
:101350000020072404EA92229A5C21FA02F28260B9
:10136000DCF8002004EA52329A5CD140C16030BC03
:1013700070478C4A1168C1F380531168002B01F04B
:101380003F0114BFB4FBF1F1B5FBF1F11368126832
:10139000C3F388135943C2F30142521C5200B1FBFC
:1013A000F2F10160C8E74FF44071814309D1714AFD
:1013B000116820F4407321F4F81123F070431943AD
:1013C000116073490A68C0F30B001043086070474E
:1013D0007949086070477949086070476E49C1F8DB
:1013E0005C017047764A1168401E21F01F010843D6
:1013F00010607047724A11686FF0FF0321F4F851D2
:1014000003EB00200843106070476D4A116821F417
:101410004011084310607047694A116821F4400187
:10142000084310607047664A116821F44031084350
:10143000106070476349C1F8E0017047624A0029B3
:10144000116814BF084321EA0000106070475F4A2A
:101450000029116814BF084321EA0000106070479A
:101460005B4A0029116814BF084321EA000010609C
:101470007047584A0029116814BF084321EA000048
:1014800010607047544A0029116814BF084321EACC
:10149000000010607047514A0029116814BF0843CA
:1014A00021EA0000106070474D4A0029116814BFFE
:1014B000084321EA0000106070474A4A0029116879
:1014C00014BF084321EA000010607047464A002913
:1014D000116814BF084321EA000010607047434AB6
:1014E0000029116814BF084321EA0000106070470A
:1014F0003F4A0029116814BF084321EA0000106028
:1015000070473C4A0029116814BF084321EA0000D3
:1015100010607047384A0029116814BF084321EA57
:10152000000010607047354A0029116814BF084355
:1015300021EA000010607047314A0029116814BF89
:10154000084321EA0000106070471149012808682B
:101550000CBF40F0080020F0080008607047294ADE
:101560000029117814BF084321EA00001070704769
:1015700000380240083802401030002400300020BB
:1015800084380240003000240C3802400238024007
:10159000703802407438024000004742800E4742D3
:1015A0000000FFFF04380240883802400024F400A5
:1015B000001BB7002C0100203C0E4742400E474262
:1015C0008C38024000104742303802403438024024
:1015D0003838024040380240443802401038024057
:1015E00014380240183802402038024024380240A3
:1015F00050380240543802405838024060380240A7
:10160000643802400D3802400848016841F080719A
:1016100001607047064A0146002012680A4218BF5E
:101620000120704703490870704700007438024079
:101630000C3802400E38024010B501218803FFF734
:101640004EFFBDE8104000214FF48040FFF747BF38
:101650001549086070471549086270478A0721F0EC
:10166000030101F1804101F59831120F0F23D1F8E8
:1016700008C893402CEA0303C1F80838D1F80838A9
:1016800090401843C1F8080870470849C1F8DC00C9
:10169000704707490860704706490020096811F43F
:1016A000807F18BF012070470038014000002742AA
:1016B000000427422038014010B5A0F18041B1F567
:1016C000883120D011F54C4127D0B1F580612FD061
:1016D000B1F5806137D0B1F580613FD0B1F54441BB
:1016E00047D011F51C414ED0B1F5806118BF10BD37
:1016F0000121C807FFF7EAFEBDE8104000214FF0C6
:101700000040FFF7E3BE01211020FFF7E8FE0021B3
:10171000BDE810401020FFF7E2BE01214804FFF7AA
:10172000D5FEBDE8104000214FF40030FFF7CEBEDB
:1017300001218804FFF7CAFEBDE8104000214FF4E4
:101740008020FFF7C3BE0121C804FFF7BFFEBDE83C
:10175000104000214FF40020FFF7B8BE012108051A
:10176000FFF7B4FEBDE8104000214FF48010FFF7F2
:10177000ADBE01212020FFF7B2FE0021BDE81040E0
:101780002020FFF7ACBE01218807FFF79FFEBDE8D0
:10179000104000214FF08040FFF798BE30B504465E
:1017A000008A85B00D46C98820F440500843208245
:1017B000A089A9882A8920F4037011436A8920F43A
:1017C000A05010430843A081A08AA98920F440704A
:1017D0000843A0826846FFF79EFDA4F18040B0F563
:1017E00088301BBFA4F18040B0F58A30039802987E
:1017F000A18911F4004F00EBC00101EB0010296832
:1018000014BF49008900B0FBF1F0924A6FF0180C48
:10181000A2FB0031490909010B0903FB0CF300EBA2
:101820008300A38913F4004F4FF0320314BF03EB7E
:10183000C00003EB0010A2FB00204FEA501014BFC1
:1018400000F0070000F00F000843208105B030BD14
:101850004FF41651016000218180C18001810C226A
:10186000428181817047028A0B88B1F802C022F45C
:10187000706243EA0C03B1F804C0C9884CEA010164
:10188000194311430182704700210180418081800A
:10189000C18070470029818914BF41F4005121F4AF
:1018A000005181817047028B02F47F420283028BD8
:1018B0001143018370470029818914BF41F400411D
:1018C000C1F30E01818170470029818A14BF41F460
:1018D000006121F4006181827047C1F308018180B9
:1018E00070478088C0F308007047028A22F00F0218
:1018F0000282028A1143018270470029818914BF44
:1019000041F0020121F0020181817047828922F4B5
:10191000006282818289114381817047028A22F0AC
:1019200020020282028A1143018270470029018A43
:1019300014BF41F4804121F48041018270478189C4
:1019400041F00101818170470029818A14BF41F073
:10195000080121F0080181827047028BD2B2028314
:10196000028B42EA0121018370470029818A14BF5A
:1019700041F0200121F02001818270470029818AF5
:1019800014BF41F0100121F0100181827047828A5A
:1019900022F004028282828A1143818270470029E8
:1019A000818A14BF41F0020121F002018182704757
:1019B000002A828A14BF114322EA01018182704702
:1019C000C1F3421301F01F014FF0010C0CFA01F1B9
:1019D000012B08BF0C3003D0022B0CBF1030143089
:1019E000002A026814BF114322EA01010160704716
:1019F0000246002012880A4218BF01207047C943DE
:101A00000180704710B401F01F020124C1F342139A
:101A100004FA02F24FF0000C012B04BF83891A4034
:101A200004D0022B0CBF038A838A1A40090A00885B
:101A300004FA01F10840002A1CBF00284FF0010CF5
:101A4000604610BC7047090A012202FA01F1C9433D
:101A5000018070471F85EB51394900200860091D3E
:101A60000860091D0860091D08603749354808608D
:101A700070478379324A0168002B34D0136823EA17
:101A800001011160111D0A6803689A430A60017917
:101A900001F1804101F59E310A6803681A430A602A
:101AA0002A4A1168036899431160131D1968D0F818
:101AB00000C021EA0C0119604179102908D001F118
:101AC000804101F59E310A68006810430860704744
:101AD0001168D0F800C041EA0C0111601968006873
:101AE000084318607047007900F1804000F59E308F
:101AF000026822EA01010160704700210160017162
:101B00000C2242718171704711490A6810430860C4
:101B100070470D4A0146002012680A4218BF012092
:101B20007047094908607047074A0146002012685B
:101B30000A4218BF0120704703490860704700003F
:101B4000003C0140FFFF7F00143C0140083C014085
:101B5000103C014010B5A0F18041B1F5803132D088
:101B6000B0F1804F43D011F57C4136D0B1F58061A2
:101B700047D0B1F580614ED0B1F5806155D0B1F557
:101B800080615CD0B1F5704163D0B1F570516AD01D
:101B9000B1F5806172D0B1F580617AD011F59831DC
:101BA0007DD0B1F580617BD0B1F5806118BF10BDEB
:101BB00001210802FFF78AFCBDE8104000214FF424
:101BC0008070FFF783BC01210846FFF788FC0021E5
:101BD000BDE810400120FFF782BC01210220FFF781
:101BE00075FC0021BDE810400220FFF76FBC012109
:101BF0000846FFF76BFC0021BDE810400120FFF70D
:101C000065BC01210420FFF761FC0021BDE8104004
:101C10000420FFF75BBC01210820FFF757FC0021DF
:101C2000BDE810400820FFF751BC01211020FFF74C
:101C30004DFC0021BDE810401020FFF747BC0121FA
:101C40002020FFF743FC0021BDE810402020FFF7D3
:101C50003DBC01210220FFF742FC0021BDE81040FD
:101C60000220FFF73CBC01210804FFF738FCBDE867
:101C7000104000214FF48030FFF731BC01214804AF
:101C8000FFF72DFCBDE8104000214FF40030FFF7B6
:101C900026BC01218804FFF722FC002101E006E0B8
:101CA0000FE0BDE810404FF48020FFF718BC012181
:101CB0004020FFF70BFC0021BDE810404020FFF75B
:101CC00005BC01218020FFF701FC0021BDE8104088
:101CD0008020FFF7FBBB10B40288FA4BDFF8E8C3A3
:101CE000984218BF604511D0B0F1804F1CBFA0F1E1
:101CF0008044B4F5806409D0A0F18044B4F5006458
:101D00001CBFA0F18044B4F5406403D14C8822F09C
:101D100070022243A0F18044B4F580541CBFA0F1AE
:101D20008044B4F5A05403D00C8922F440722243BD
:101D300002804A68C2620A880285984212BF6045E2
:101D4000897A01860121818210BC70474FF0FF31F2
:101D500041600021018001814180817270470185CD
:101D600082827047028822F070021143018070471E
:101D700041627047C1627047406A7047008D70478A
:101D80000029018814BF41F0020121F00201018005
:101D900070470029018814BF41F0040121F00401BB
:101DA000018070470029018814BF41F0800121F0B3
:101DB000800101807047028822F0080202800288B8
:101DC000114301807047028822F440720280028829
:101DD0001143018070470029018814BF41F00101BF
:101DE00021F001010180704710B4028C22F0010241
:101DF0000284028C8388B0F818C00C882CF0730C15
:101E000044EA0C0C8C8922F0020222434C882243C3
:101E1000A0F18044B4F580341CBFA0F18044B4F537
:101E200082340DD1CC8922F0080222438C8822F022
:101E3000040222430C8A23F4407323434C8A234335
:101E40008380A0F818C089684163028410BC704781
:101E500030B4028C22F010020284028C8388B0F825
:101E600018C00D882CF4E6444FF6FF7C0CEA0525DB
:101E70002C438D8922F020020CEA05152A434D8857
:101E80000CEA05152A43A0F18045B5F580351CBF45
:101E9000A0F18045B5F5823516D1CD8922F08002BA
:101EA0000CEA05152A438D8822F040020CEA05153C
:101EB0002A430D8A23F440630CEA85052B434D8A9F
:101EC0000CEA850C4CEA03038380048389688163F0
:101ED000028430BC704730B4028C22F480720284D9
:101EE000028C8388B0F81CC00C882CF0730C44EA78
:101EF0000C048D894FF6FF7C22F400720CEA052554
:101F00002A434D880CEA05252A43A0F18045B5F502
:101F100080351CBFA0F18045B5F5823516D1CD893D
:101F200022F400620CEA05252A438D8822F480629F
:101F30000CEA05252A430D8A23F440530CEA0515C3
:101F40002B434D8A0CEA051C4CEA030383808483EF
:101F50008968C163028430BC704730B4028C22F4BB
:101F600080520284038C8288B0F81CC00D884FF622
:101F7000FF742CF4E64C04EA052545EA0C0C8D8927
:101F800023F4005304EA05352B434D8804EA053554
:101F90002B43A0F18045B5F580351CBFA0F18045ED
:101FA000B5F5823505D10D8A22F4804204EA851404
:101FB00022438280A0F81CC089680164038430BC7D
:101FC0007047002101804180818081608181C181D1
:101FD00001824182704710B44FF0010C048C00F173
:101FE00018030CFA01FC24EA0C0CA0F820C000290C
:101FF00018BF082911D0081FC0F34E00184401680B
:1020000048F6FF731940016001684FF6FF7303EA59
:1020100002221143016010BC704703EB51000168BC
:102020004FF68F731940016001681143016010BCC5
:1020300070474163704781637047C16370470164B3
:102040007047028B22F07002114301837047028BAC
:102050004FF6FF7322F4E04203EA012111430183AA
:102060007047828B22F07002114381837047828B0C
:102070004FF6FF7322F4E04203EA0121114381830A
:102080007047028B22F00802114301837047028BD4
:102090004FF6FF7322F4006203EA0121114301832A
:1020A0007047828B22F00802114381837047828B34
:1020B0004FF6FF7322F4006203EA0121114381838A
:1020C000704700000000014000040140028B22F034
:1020D0000402114301837047028B4FF6FF7322F411
:1020E000806203EA0121114301837047828B22F051
:1020F0000402114381837047828B4FF6FF7322F4F1
:10210000806203EA0121114381837047028B22F030
:102110008002114301837047028B4FF6FF73C2F3B5
:102120000E0203EA0121114301837047828B22F0E2
:102130008002114381837047828B4FF6FF73C2F395
:102140000E0203EA0121114381837047028C22F0C1
:102150000202114301847047028C22F008021143ED
:1021600001847047028C4FF6FF7322F0200203EACD
:102170000111114301847047028C4FF6FF7322F066
:10218000800203EA0111114301847047028C4FF66B
:10219000FF7322F4007203EA0121114301847047A6
:1021A000028C4FF6FF7322F4006203EA012111430F
:1021B00001847047028C4FF6FF7322F4005203EA49
:1021C00001311143018470470123B0F820C08B40D6
:1021D0002CEA03030384038C02FA01F119430184FE
:1021E00070470423B0F820C08B402CEA030303841B
:1021F000038C02FA01F1194301847047828B22F4A7
:1022000040628283828B4FF6FF7303EA0121114300
:1022100081837047828B22F00C028283828B114370
:1022200081837047028B22F440620283028B4FF657
:10223000FF7303EA0121114301837047028B22F0EF
:102240000C020283028B11430183704770B50C4668
:10225000054608884988A28823894FF6FF7638B357
:10226000042843D00828288C4ED020F4805028849D
:10227000B5F81CC0288C2CF4734C06EA022242EA02
:102280000C0206EA03331A4306EA013120F4204027
:10229000084340F48050AA832884A079A98B21F4B4
:1022A0004061A983A98B06EA00200843A88370BD7A
:1022B000288C20F001002884B5F818C0288C06EA84
:1022C00003131A432CF0F30C20F00A0042EA0C022C
:1022D000084340F001002A832884E088298B21F0FC
:1022E0000C012983298B0843288370BD284600F000
:1022F000D0F9A079298B21F440612983298B06EA42
:1023000000200843288370BD20F480702884B5F82D
:102310001CC0288C06EA03131A4306EA01212CF09C
:10232000F30C20F4206042EA0C02084340F4807071
:10233000AA832884E088A98B21F00C01A983A98BAA
:102340000843A88370BD0021018041800122828062
:10235000C180018170472DE9F0410C464988002772
:1023600001260546002908BF0227A288012A08BFC6
:102370000226208823894FF6FF7850B3284600F0C4
:1023800088F9A079298B21F440612983298B08EAF7
:102390000020084328832089298C21F00101298409
:1023A0002A8B298C08EA001022F0F30230431043F4
:1023B00021F00A01394341F0010128832984E08892
:1023C000298B21F00C012983298B08432883BDE840
:1023D000F081288C20F001002884288BB5F820C0DB
:1023E00008EA031320F0F3001A4310432CF00A020A
:1023F000114341F0010128832984E088298B21F0D1
:102400000C012983298B08432883238932463946C6
:10241000284600F03EF9A079298B21F440612983F8
:10242000298B08EA002008432883BDE8F081406B2F
:102430007047806B7047C06B7047006C70470A88AC
:102440004B88B1F806C01A438B8843EA0C031A4341
:102450000B891A434B8989891A431143A0F8441008
:1024600070470021018041808180C18001814181CC
:10247000818170470029B0F8441014BF41F4004135
:10248000C1F30E01A0F8441070470029818814BFE1
:1024900041F0040121F00401818070470029818806
:1024A00014BF41F0010121F0010181807047002A31
:1024B000828914BF114322EA010181817047818220
:1024C000704702460020128A0A4218BF0120704756
:1024D000C94301827047038A002280890B4200EAC7
:1024E00001001CBF0028012210467047C943018229
:1024F00070471143A0F848107047002A828914BF22
:10250000114322EA0101818170470029818814BFAB
:1025100041F0080121F0080181807047018921F014
:10252000070101817047028922F070021143018185
:102530007047028922F0700211430181018941F044
:1025400007010181704770B594460D460446602925
:1025500020D0208C20F001002084218B208C4FF68D
:10256000FF7202EA031221F0F30142F0010220F0AF
:102570000A00114340EA0C0040F00100218320844E
:10258000208920F0700028432081208940F0070036
:10259000208170BD0122614600F07BF8F0E710B4A5
:1025A000B0F808C04FF6FF7404EA03231A430CF096
:1025B000FF0C114341EA0C01018110BC704710B4BB
:1025C000B0F808C04FF6FF7404EA03231A430CF076
:1025D000FF0C114341EA0C010181018941F07701AF
:1025E000018110BC704710B4B0F808C04FF6FF74FA
:1025F00004EA03231A430CF0FF0C114341EA0C01D7
:102600000181018941F48041018110BC70478288B9
:1026100022F0700282808288114381807047028993
:1026200022F0070202810289114301817047028969
:1026300022F080020281028911430181704730B487
:102640000589B0F818C0048C25F0070529432CF043
:10265000030C2CF4407C40F201154CEA050C4FF6BB
:10266000FF7505EA031324F022041A432243018173
:10267000A0F818C0028430BC70470029818814BFBC
:1026800041F0800121F0800181807047A0F8501056
:10269000704730B4B0F820C02CF0100CA0F820C067
:1026A000048BB0F820C04FF6FF7524F4734405EA9C
:1026B0000333234305EA02221A4305EA01112CF0F1
:1026C000A003194341F010010283018430BC70471C
:1026D0002DE9F0410020FF4F044604EB440107EBD5
:1026E00081063189D9B1706800F5627001F07EF918
:1026F000014610F0080018BF802011F0040118BF37
:10270000402140EA01087068002500F15806204683
:1027100000F02AFB002818BF3C2507D02846611C82
:102720008CB254EA0001D8D0BDE8F081304601F007
:1027300055F920F0C00008F0C0010143304601F017
:1027400047F9EBE72DE9F04115460E46044600F047
:102750000BFB070016D1DF4804EB440100EB8104BA
:10276000606800F5637001F041F900F4704028439F
:1027700020F4704040EA063081B2606800F5637072
:1027800001F02EF93846BDE8F08100291CBF052074
:1027900070472DE9F84F05460E460022CE481C2111
:1027A000491E0904090C00F8012BF9D1C94806EBB0
:1027B000460100EB810007460C21491E0904090C63
:1027C00000F8012BF9D1288C0090EB8BAA8B3046B6
:1027D000A96900F093FC38B1062814BF0B28BDE8A6
:1027E000F88F0520BDE8F88FB5F82290B5F8248061
:1027F0000A24304600F0B8FA002849D1786800F57C
:10280000607B584601F0F2F88246B8F1030F11D808
:102810002AF4406040EA88201FFA80FA5146584660
:1028200001F0DEF8B8F1010F04D908221146304654
:1028300000F0ABFA2AF003000BF1080840F00201A7
:10284000B9F1020F2FD0B87A012831D0B9F1010FB8
:102850000CBF4FF008094FF00009584601F0C0F8CE
:102860000221404601F0BCF80121404601F0B8F8D1
:10287000404601F0BBF800F00800484502D0611E58
:102880008CB2EDD25146584601F0AAF8FFF720FF6E
:10289000B5F81680304600F067FA002808BF18F433
:1028A000704F31D10FE00021404601F099F8EDE77B
:1028B000B9F1010F1CBF03214046E5D10B21404671
:1028C00001F08EF8E2E77868414600F5607400F5A3
:1028D000767001F085F8942104F15C0001F080F835
:1028E00004F1580001F082F840450DD12A4601213B
:1028F000304600F06BFA00287FF473AF304600F0EA
:1029000033FA04000ED102E00620BDE8F88F7868A3
:1029100000F5637001F06AF87868002100F56370D3
:1029200001F05EF8002C08BF00207FF45AAFBDE82C
:10293000F88F70B5064600F017FA040018BF02249D
:1029400001D0204670BD634806EB460100EB8105CF
:10295000686800F5607001F049F810F0030F08BFD7
:102960000924EED000220221304600F00EFA304653
:1029700000F0FAF90028E4D1FFF7AAFE686800F534
:10298000607001F033F840F00301686800F5607092
:1029900001F026F8D5E770B5044600F0E5F905002A
:1029A00018BF022501D0284670BD4A4804EB4401F7
:1029B00000EB8104606800F5607001F017F820F00A
:1029C0000201606800F5607001F00AF8EBE72DE99C
:1029D000FF5F0C460E9F05463F49C7EBC70001EB62
:1029E00080069B464FF00008384600F0BDF90028ED
:1029F0001EBF022004B0BDE8F09F07EB4701354839
:102A000000EB8109D9F8040000F5607000F0EEFFDA
:102A1000032131EA00001EBF0A2004B0BDE8F09F88
:102A2000308AA84213D3D9F80400376800F56170E2
:102A300000F0DCFF10F0070018BF01280BD007EBF7
:102A4000450000F0CBFF0746708AB84215D204B0AB
:102A50000320BDE8F09F15F0010F07D0681E20F09D
:102A60000100384400F0BAFF070AEDE725F0010045
:102A7000384400F0B3FFC7B2E6E7002F08BF4FF0BD
:102A8000030851D0F17D706807FA01F100EB0109EC
:102A9000484600F0A3FFC0F38120012818BF4FF083
:102AA0000408484600F09AFF000B4FF0010A0AFAAA
:102AB00000F0C5B200F09DFF09F1040000F08EFFA8
:102AC000ABF80000029988420CD224F802ABB8F1AE
:102AD000000F03E09C020020A802002008BF4FF076
:102AE000010802E0002024F8020B09F1020000F0C6
:102AF00075FF10F0400018BF202007F0030100EB25
:102B0000C100B16827F0030201EB021146184DB174
:102B10003046B61C00F062FF24F8020B681E10F06D
:102B2000FF05F5D100F064FF04B04046BDE8F09F1A
:102B30002DE9F0470446174682B08A46C2EBC7002B
:102B4000FE494FF0000801EB8005104600F00CF93B
:102B500000281EBF022002B0BDE8F087288AA042EC
:102B600017D3F74907EB470001EB80002E68406858
:102B700000F5617000F03AFF10F0070018BF01285F
:102B80000BD006EB440000F029FF0646688AB042ED
:102B900015D202B00320BDE8F08714F0010F07D072
:102BA000601E20F00100304400F018FF060AEDE737
:102BB00024F00100304400F011FFC6B2E6E7002E19
:102BC00008BF4FF0030855D0E97D686806FA01F1A7
:102BD0004718384600F002FFC0F3812002281EBFCC
:102BE000072002B0BDE8F087384600F0F7FE000B82
:102BF0004FF0010909FA00F0C4B200F0FAFEB81C67
:102C000000F0ECFE10F0400F0CBF2020002006F07A
:102C1000030100EBC10026F00302A9680AF10206D5
:102C200001EB021145184CB1284636F8021BAD1CC9
:102C300000F0CEFE601E10F0FF04F5D1B81CCDF8F8
:102C4000049000F0CBFEADF80000BDF8000080F06D
:102C50004000ADF80000BDF80010B81C00F0B8FE50
:102C60000198BDF80010401C0190B81C00F0B0FEA7
:102C700000F0BEFE02B04046BDE8F08710B500246B
:102C800001F0320100F081F8002818BF022420462C
:102C900010BD10B5022400F067F810B9FFF718FD59
:102CA0000024204610BD70B506460C460225084695
:102CB00000F05AF858B9A24904EB440001EB800037
:102CC000406800F5767000F091FE308000252846BF
:102CD00070BD70B50D469A4A00EB400102EB8104CD
:102CE000A17A01291CBF112070BD00F03DF8002819
:102CF0001CBF022070BD2946606800F5757000F0A9
:102D00006FFE606800F5607000F070FE032131EA2C
:102D1000000008BF70BD606800F5607000F066FEDE
:102D200000F0030001280CBF0920002070BD10B581
:102D3000044600F019F800281CBF002010BD04EB69
:102D400044007F4901EB8000406810BD10B5044687
:102D500000F00AF800281CBF002010BD04EB44005E
:102D6000774951F8200010BD010018BF3C20002811
:102D700018BF704701EB4100714901EB80000089E9
:102D8000002814BF00203C2070472DE9F041164672
:102D90000C466B4A00EB400102EB810100254968BB
:102DA00001F15807FFF7E0FF002818BF3C2502D0CB
:102DB0002846BDE8F081384600F010FEA04306EA40
:102DC00004010143384600F003FEF1E72DE9F74F17
:102DD00084B014460498594BC0EBC00203EB820840
:102DE000002818BF342017D0342819BF40461C22B1
:102DF00007B0BDE8F08F521E12044FF00003120C12
:102E000000F8013BF7D188F81510E18C01208843C8
:102E100009D04FF03309B4E098F81B00012814BF23
:102E200033200020E0E7228D032333EA020014BFA1
:102E30004FF001094FF00009B9F1000FE9D1A8F8EE
:102E40001010A8F81220617D88F8141001290CD107
:102E500088F8173020680021002808BF3321C8F8FF
:102E60000000227D012A2ED011B14FF0320988E0F6
:102E7000B8F812000021421C98F8170002FA00F07E
:102E800082B26068002808BF3321C8F80400237D9F
:102E9000012B2BD00029E8D1B8F812004FF0000B1D
:102EA000401C8108890100F0030001EBC00082B2E0
:102EB000A068002808BF4FF0330BC8F80800217D38
:102EC000012918D03FE00029CFD10028D0D098F8B0
:102ED000141011F0010FB8F810100EBF491C490072
:102EE000891C8AB2002100F05AFBC1E70029BCD13D
:102EF00000F055FBD0E7BBF1000FB6D12569EDB36B
:102F0000B8F812100746491C5FEA910A1ED0AAF1D0
:102F100001001FFA80FA1026701E86B229883846F2
:102F200000F056FD298807F1200000F051FDAD1C8E
:102F3000002EF1D14037BAF1000F03E0A8020020C3
:102F40009C020020E3D1BBF1000F8ED1B8F8120033
:102F50000021401C8208920100F0030002EBC00037
:102F600082B2E068002808BF3321C8F80C000029AD
:102F70007FF47BAF00F013FB217D00E011E088F8C7
:102F800016100498B4F82AA0E66A00EB4000FE4947
:102F900001EB8000406800F5617000F027FD0290B1
:102FA00034E04FF6FF7100F0FAFACFE7AAF1010022
:102FB0001FFA80FA0298778800F007023088F588B7
:102FC000B1880191D8E9001398F817C007FA0CFCF2
:102FD00063440093B8F81030834225BFB8F812302C
:102FE000BB420123002373B9002D18BF012D05D06A
:102FF000022D1CBF032D4FF0010901D14FF0000934
:10300000B9F1000F09D04FF033090836BAF1000FBB
:103010004CD0B9F1000FC9D04FE0002A1EBF012AE1
:1030200001EB4000394606D000F0D2FCDDE900B0EB
:103030000027400820E010F0010F0ED0401E20F0C5
:1030400001000844834600F0C9FCC0B240EA0720F2
:1030500081B2584600F0BCFCE8E720F001000844CB
:10306000834600F0BBFC00F47F4040EA070158466D
:10307000DAE74008791C8FB2012818BF0028F8D180
:10308000584600F0ABFC67F30F300146584600F09D
:103090009FFC032D08BF0225009800F09FFC65F3FC
:1030A0008B200146009800F093FCAEE7B9F1000FC9
:1030B00004BF012088F81B001CD0608D00281CBFB5
:1030C000D8F8000000280DD098F8141011F0010F66
:1030D000B8F810100EBF491C4900891C8AB20021A3
:1030E00000F05DFA1C200021401E0004000C08F8CE
:1030F000011BF9D107B04846BDE8F08F2DE9FF4F1D
:1031000081B090468A4605004FF03C0440F043826F
:103110009D4801214FF00A0BC0F800A001819B4897
:1031200005EB450930F81510801E30F815000843EE
:1031300040F4806000909448022600EB8907924892
:1031400050F82910924850F826000844786000F59D
:1031500060742046009900F043FC701E06B2002EF9
:10316000EDDA21468BA0009A00F048FC874830F841
:103170001520801E30F8150042EA000148F2054093
:1031800041EA00063146204600F02AFC324621463C
:1031900089A000F033FC4FF6FF7104F1280000F025
:1031A0001FFC4FF6FF7221468DA000F027FC204641
:1031B00000F01CFCB04207D104F1280000F016FC1E
:1031C000A0F57F41FC3902D0062400F0A3B86E4878
:1031D00041F6020150F8290000F5705600F57950CB
:1031E00000F0F6FB41F2024106F5187000F0F0FB2A
:1031F000002106F2422000F0EBFB002106F26220E3
:1032000000F0E6FB4AF25A5106F1800000F0E0FBC4
:10321000002106F1E00000F0DBFB5C48A0F10209B0
:1032200030F8151039F81500014348F23E400143CB
:103230002046009100F0D4FB214675A0009A00F0D2
:10324000DDFB00F0D7FB41F2010206F5407179A0E9
:1032500000F0D4FB202204F1200182A000F0CEFB7C
:1032600041F2010106F5407000F0B2FB202104F1AB
:10327000200000F0B5FB00F0BEFB04F1200000F0E0
:10328000B5FB10F4007FF6D106F1E00000F0A6FBDC
:10329000A0F525415A3918BF0B243BD100F0AAFBF9
:1032A00076A000F0ABFB394830F8151039F815005E
:1032B000014348F205400143204600F091FB75A010
:1032C00000F09CFB201D00F091FB00F47840B0F56D
:1032D000004F1CBF0020B8721BD10120B87204F14E
:1032E0006C0000F083FB10F0010F04F1500008D0D7
:1032F00000F07CFB20F0010104F1500000F070FBB5
:1033000007E000F073FB40F0010104F1500000F011
:1033100067FB0024002C18BFBBF1010B7FF4FFAE4C
:10332000214664A000F06AFBB8F1020F8CBF3C2478
:10333000002C27D10E99002040EA411020F01801FE
:10334000049841EAC00080B220F0070040EA080774
:103350000D4805EB450100EB81063A46706800F523
:1033600061715CA000F04AFB7068394600F561703D
:1033700000F036FB064850F8280000EB0A055C48D0
:103380007560B7E007E100009C020020AE3E000837
:10339000B03E00085265736574204D5642432C20A0
:1033A000534352203078257820776974682030782C
:1033B00025780D0A00000000436F6E66696775721C
:1033C00065204D5642432C205343522030782578B7
:1033D000207769746820307825780D0A0000000095
:1033E0005772697465204D5642432D63686172615E
:1033F0006374657269737469632C2053435220307F
:10340000782578207769746820307825780D0A004F
:103410004C6F6F706261636B20746573742C205302
:1034200043522030782578207769746820307825D9
:10343000780D0A0053656E642074657374206D61A5
:1034400073746572206672616D6520746F205453C9
:103450002030782578207769746820307825780DB9
:103460000A0000005772697465203078257820774B
:1034700069746820307825780D0A00004C6F6F70F1
:103480006261636B2074657374206973204F4B0D08
:103490000A0000005475726E206F6666206C6F6FB4
:1034A000706261636B2074657374206D6F64650D69
:1034B0000A0000004861726420696E6974204D56EC
:1034C000424320726573756C74203D2025640D0A9B
:1034D00000000000436F6E666967204D4352203044
:1034E000782578207769746820307825780D0A006F
:1034F000EC3E00083249334E50F8280051F82810AD
:10350000504401EB0A0736F81820002100F047F874
:1035100036F818200021384600F041F8A6F1500096
:10352000002150F8280000EB0A06304600F050FA5F
:10353000B01C002100F04CFA2348002150F828006C
:1035400000EB0A06304600F043FAB01C002100F000
:103550003FFA4FF48072002105F5007000F01FF86B
:103560004FF400720021284600F019F805F50E719D
:1035700016A000F043FA4FF6020105F50E7000F0B8
:1035800027FA002105F23A2000F022FA822105F103
:10359000580000F01DFA05B02046BDE8F08F70B568
:1035A0000E460546540808BF70BD601E84B228460A
:1035B000AD1C314600F00CFA002CF6D170BD0000B5
:1035C000003F0008143F0008D83E00084D56424313
:1035D0002064657669636520737461747573207007
:1035E0006F72742046433135206164647265737371
:1035F0003A20307825780D0A000000002DE9F04FC0
:10360000714883B04FF450214FF45C22C0E900129E
:103610004FF45422002482604FF45822C0E903245E
:1036200001230375437540F6FF72C2844FF0070C07
:10363000A0F828C004254585816102228283C483C5
:103640000484428483840A21C182A0F12001C162E2
:10365000D00108804D808A80CA80401C08810520E6
:1036600048818A81CA814FF402700882062048820C
:103670008A82CB8240F209200883A1F81AC08A838B
:10368000524ECB8327463771F770B770777037701B
:103690004FA15C4800F0BEF95BA1684800F0BAF9A0
:1036A00067A1664800F0B6F906F106084AF6AA20B6
:1036B000A8F8020006F10A094010A9F802006DA05E
:1036C00000F09CF975A000F099F979A000F096F946
:1036D0007FA000F093F900213B48FFF756F83070C7
:1036E000014683A000F08AF9307848B90020FFF73E
:1036F00020F93070014682A000F080F9307818B1CE
:1037000003B00020BDE8F08F00252A4680494FF421
:103710008070FFF70DFA707000227E4940F20110B0
:10372000FFF706FADFF8F0A1B0700AF1040B2146AA
:10373000641C7AA000F062F904EBD47020F0010060
:10374000201A00EB05118DB20CBFA8F80250A9F8A1
:10375000025002AB002270494FF402700097FFF74D
:1037600036F9F07002AB0022754940F2092000974B
:10377000FFF72DF93071B178B9F80200CDE90001F9
:10378000B8F8022073786FA12C4800F043F9317922
:10379000BBF80200CDE90001BAF80220F37879A164
:1037A000884800F037F9874B87A0A3F15002A2F1B7
:1037B000500100F023F90020FFF76BFA4FF47A7004
:1037C000FDF767FAB3E70000D40300203C010020B6
:1037D000202020202020202020506F72743A205674
:1037E000616C7565202F20457272202020202020DA
:1037F000506F72743A2056616C7565202F204572A7
:10380000720D0A00C4020020536F757263653A207E
:103810002031303020202031323334202F2020300E
:103820003020202020202020313031202020313233
:10383000333420202F2030300000000014030020FB
:1038400053696E6B3A2020202032303820202031FE
:10385000323334202F202030302020202020202000
:1038600032303920202031323334202F20203030A4
:103870000000000054657374206F662050432F31A0
:10388000303420554C2D41504920696E20436C61E5
:10389000737320312E310D0A00000000513A20517F
:1038A0007569742070726F6772616D0D0A00000097
:1038B000303A20496E7075742056616C75652066CB
:1038C0006F7220506F7274203130300D0A0000008A
:1038D000313A20496E7075742056616C75652066AA
:1038E0006F7220506F7274203130310D0A00000069
:1038F0004D564243496E69743A2025640D0A000012
:103900004D56424353746172743A2025640D0A0087
:1039100042010020460100204A01002054657374D2
:10392000202325642067657420736F75726365209A
:10393000616E642073696E6B20706F72740D0A0083
:103940004E010020536F757263653A20203130308C
:103950002020202530342E3458202F2020253032AE
:103960002E326420202020202020313031202020C1
:103970002530342E345820202F202530322E32642A
:103980000D0A000053696E6B3A2020202032303837
:103990002020202530342E3458202F20202530326E
:1039A0002E32642020202020202032303920202078
:1039B0002530342E3458202F20202530322E3264EA
:1039C0000D0A000064030020257325732573000091
:1039D00013B501A9FCF776FF02B010BDFCF7E4BFF8
:1039E00013B501A9FCF76EFF02B010BDFCF7DCBFF8
:1039F0007047704770477047704700000FB4044924
:103A000010B503AA029800F0FFF910BC5DF814FB92
:103A1000280100200FB41CB5074B06AA7B44694659
:103A20000090059800F0C1F90020694600F0D0F937
:103A30001CBC5DF814FB0000B103000070B5044627
:103A400085690068C10601D5302600E02026C00740
:103A500007D070BDD4E9012130469047206A401C50
:103A600020626D1EF6D570BD70B50446856900787C
:103A7000C00707D170BDD4E9012120209047206AFA
:103A8000401C20626D1EF6D570BD70B50C46054613
:103A9000012A05D02878800600D5EA69002302E0D3
:103AA000012305E05B1C934202D2E05C0028F9D1BF
:103AB000A869E618C01AA861286A1844286228462E
:103AC000FFF7BCFF04E0D5E9012114F8010B904792
:103AD000B442F8D32846FFF7C7FF70BD2DE9F04187
:103AE0000646002410687529314616A510D0AFF39C
:103AF0000080002802DA404213A507E031688A07F7
:103B000001D512A502E0490704D511A5012401E061
:103B1000AFF3008000210A2206F1240709E0B0FB80
:103B2000F2FCB0FBF2F302FB1C0030307854184674
:103B3000491C0028F3D123462A463046BDE8F0410F
:103B400000F0D4B8000000002D0000002B000000A1
:103B50002000000070B504460D4621461068AFF302
:103B600000802188090502D50F4A7A4402E00E4AF6
:103B70007A440E32002104F1240305E000F00F0620
:103B80000009965D5E54491C0028F7D12078002377
:103B9000000704D5702D02D009B10223113220464E
:103BA000BDE8704000F0A2B8B00300002DE9F05F5E
:103BB000894604464FF0000ADFF824B1FB44C0F800
:103BC00020A02046E168884700287DD0252806D01F
:103BD000D4E901219047206A401C2062F1E70025CA
:103BE0005F462046E16888472028064607DB312EDD
:103BF00005D2B81910F8200C08B10543F1E7A80761
:103C000001D525F00405C4F81CA00027C4F818A0AD
:103C10002A2E09D0304600F03DF938B304EB87086E
:103C2000303EC8F8186019E059F8041B204604EB30
:103C300087029161E1688847012F064618D1E06943
:103C4000002820DA25F020051DE0D8F8180000EB48
:103C5000800006EB40003038C8F818002046E168C4
:103C60008847064600F016F90028EED1012F0AD049
:103C70002E2E08D12046E16888477F1C0646022F79
:103C800045F02005C4DBA069002803DA404245F076
:103C90000105A061E80701D025F01005A6B1A6F145
:103CA0004100192802D8203645F400654A463146BD
:103CB000204625604D46FCF7C1FA60B1012807D0C7
:103CC000ED1D25F0070000E007E000F1080978E7A6
:103CD00005F1040975E730467AE7206ABDE8F09FF0
:103CE0008603000070477047704770472DE9F04722
:103CF0000D4699469246044600F12408016888065C
:103D000004D5E06921F01001216000E00120A84203
:103D100001DD471B00E00027A1697A1902EB0900C9
:103D2000081AA0612078C00602D42046FFF786FE5C
:103D3000002608E0D4E901211AF806009047206A1D
:103D4000401C761C20624E45F4DB2078C0060AD564
:103D50002046FFF773FE06E0D4E9012130209047AA
:103D6000206A401C2062381EA7F10107F4DC07E03E
:103D7000D4E9012118F805009047206A401C206210
:103D8000281EA5F10105F3DC2046FFF76DFE207823
:103D9000000602D50220BDE8F0870120FBE7000005
:103DA00001694A1C02610878704700B58FB0CDE9FF
:103DB00001310021059105497944CDE903101146EF
:103DC0006846FFF7F3FE0FB000BD0000E5FFFFFF00
:103DD0000A6802F8010B0A60704710B5436913B115
:103DE000AFF3008001E0FFF750FE012010BD127814
:103DF00000F124010A7000224A700122EDE71168E7
:103E00004FF0FF32E9E70000074B70B50D467B44E9
:103E1000FFF7CBFF0446284600F008F810B14FF03A
:103E2000FF3070BD204670BDE9CEFFFF007B00F083
:103E300080007047754600F029F8AE4605006946D7
:103E4000534620F00700854618B020B5FCF7FCFF6C
:103E5000BDE820404FF000064FF000074FF000088B
:103E60004FF0000B21F00701AC46ACE8C009ACE80C
:103E7000C009ACE8C009ACE8C0098D4670470446EB
:103E8000AFF300802046FCF7F3F9000000487047CC
:103E90000404002030380A2801D201207047002095
:103EA00070474FF04070E1EE100A704700030000C9
:103EB000003C0000007C000000FC000000FC000052
:103EC00000FC0000003000000030000000C00000D6
:103ED000000003000000030000000000007000006C
:103EE00000F000000040000000800300000000001F
:103EF00000000000000000000000000000000000C2
:103F00000000000000400000002000000020000031
:103F100000200000001000100020002000203031A0
:103F200032333435363738394142434445464030E0
:103F30005800303132333435363738396162636492
:103F400065664030780004000008000000000000B2
:103F50000002000100001000783F0008000000206F
:103F600054010000C4010008E43F0008540100208F
:103F7000140900002002000811847A030A40090194
:103F80000203040607080954FFFFFF39070C231436
:103F90000240044A180412011202120412081210FC
:103FA0002220290512402A801432013202320432C2
:103FB0000832101922191F213A8081D9211A0C5078
:103FC000A9040A211004A9305978195CA99319167B
:103FD0004910E915F92601132D01020304040518FF
:043FE00006070809BF
:040000050800018965
:00000001FF
