:020000040800F2
:1000000008340020C9100008410300084303000819
:1000100045030008470300084903000800000000EA
:100020000000000000000000000000004B0300087A
:100030004D030008000000004F03000851030008B2
:10004000E3100008E3100008E3100008E3100008C4
:10005000E3100008E3100008E3100008E3100008B4
:10006000E3100008E3100008E3100008E3100008A4
:10007000E3100008E3100008E3100008E310000894
:10008000E3100008E3100008E3100008E310000884
:10009000E3100008E3100008E3100008270A000836
:1000A000E3100008E3100008E3100008E310000864
:1000B000E3100008E3100008DB0A0008E310000862
:1000C000E3100008E3100008E3100008E310000844
:1000D000E3100008D5040008E310000861100008D0
:1000E000E3100008E3100008E3100008E310000824
:1000F000E3100008E3100008E3100008E310000814
:10010000E3100008E3100008F7090008E3100008F6
:10011000E3100008E3100008E3100008890B000852
:10012000E3100008E3100008E3100008E3100008E3
:10013000E3100008E3100008E3100008E3100008D3
:10014000E3100008E3100008E3100008E3100008C3
:10015000E3100008E3100008E3100008E3100008B3
:10016000E3100008E3100008E3100008E3100008A3
:10017000E3100008E3100008E3100008E310000893
:10018000E3100008E310000800F002F800F06BF83C
:100190000AA090E8000C82448344AAF10107DA45E2
:1001A00001D100F060F8AFF2090EBAE80F0013F0C9
:1001B000010F18BFFB1A43F001031847086600003F
:1001C000286600000A444FF0000C10F8013B13F0C1
:1001D000070408BF10F8014B1D1108BF10F8015BA0
:1001E000641E05D010F8016B641E01F8016BF9D193
:1001F00013F0080F1EBF10F8014BAD1C0C1B09D1EA
:100200006D1E58BF01F801CBFAD505E014F8016B5B
:1002100001F8016B6D1EF9D59142D6D370470000ED
:100220000023002400250026103A28BF78C1FBD8FF
:10023000520728BF30C148BF0B607047642905F0E2
:10024000F385752905F0F085782905F029860020C9
:1002500070471FB506F074F99DE8030005F0E2FF52
:100260001FBD10B510BD06F0F2F81146FFF7F1FF03
:1002700000F008F806F010F903B4FFF7F2FF03BC32
:1002800000F08EFE4FF4A06000F03EFFF82000F07A
:100290002BFE4FF4E134204600F090FE204600F0A3
:1002A00040F900F070FC00F082FA214D0124C5F8FD
:1002B000BC42C5F8B8424FF4FA7005F52E7500F04F
:1002C00054FE1C48C0F89442C0F88C42C0F89042DA
:1002D0001948C0F8A8420020286041F2883000F098
:1002E00044FE00F032FA00F0C7FB144C00F007FCAB
:1002F0002168401A052804D900F001FC206000F0B4
:100300009AFD00F0FCFB6168401A322804D900F025
:10031000F6FB606003F086FE00F0F1FBA168401A76
:100320006428E3D900F0EBFBA06000F044FCDDE7BB
:100330000080404200804142000043420000002013
:100340007047FEE7FEE7FEE7FEE77047704770473D
:10035000704700000CB500225449009201920868D1
:1003600040F4803008604FF4A043086800F4003087
:1003700001900098401C0090019810B90098984294
:10038000F3D10868800334D50120019047484030FC
:10039000026842F0805202604548026842F44042DE
:1003A00002604248083002680260026842F400427B
:1003B0000260026842F4A0520260031F3D4A1A60C4
:1003C0000A6842F080720A600A689201FCD53A49D4
:1003D00040F205720A60016821F0030101600168C2
:1003E00041F0020101600168C1F381010229FAD1E3
:1003F0000CBD01920CBD314810B5016841F470018B
:1004000001602A48016841F001010160274A00218A
:100410000832116002682A4B1A400260031D294A03
:100420001A60026822F48022026020480C300160C9
:10043000FFF790FF21494FF000608039086010BD40
:1004400070B51A4D083528681F4B204910F00C0074
:1004500004D01F4E042803D0082803D00B601BE0F3
:100460000E6019E0114A121D1068C0F38054106824
:1004700000F03F0014B1B6FBF0F001E0B3FBF0F088
:1004800013681268C3F388135843C2F30142521C25
:100490005200B0FBF2F0086028680C4AC0F3031069
:1004A000121D105C0A68C2400A6070BD003802402C
:1004B000007000400C7C4007003C024088ED00E0EA
:1004C000FFFFF6FE103000240024F4000C00002092
:1004D000001BB70010B55B4C40F22551204601F0DF
:1004E00068FB00281CD0204601F0CCFA564AC1B265
:1004F00040F2FF731088984212D2544B544C195456
:10050000401C10800121204602F02FF800212046D7
:1005100001F0C4FC2046BDE81040012101F0F4BC0C
:1005200010BD2DE9F0418046012188B0084601F058
:10053000B2F80121102001F0D6F8464F0722092118
:10054000384600F019FF07220A21384600F014FF50
:100550004FF4C060009002208DF8040003258DF850
:10056000055000248DF8064001268DF80760694685
:10057000384600F08DFE8DF8046030038DF805508C
:1005800000908DF806408DF807606946384600F007
:100590007FFEADF810400C202A4FADF80C40ADF8AE
:1005A0001200CDF80880ADF80E40ADF8144002A955
:1005B000384601F0CCF90121384601F039FA4021E2
:1005C000384601F0F3FA012240F22551384601F095
:1005D000CEFA25208DF818008DF819508DF81A5094
:1005E0008DF81B6006A800F094FD1B48C0F8B042CF
:1005F00008B0BDE8F0812DE9F041DFF85C800E46DF
:10060000002401210746C8F8B0120E4D0BE040212E
:10061000284601F0C4FA0028F9D0395D284601F0D7
:100620002DFA641CE4B2B442F1D34021284601F013
:10063000B6FA0028F9D0044900200880C8F8B002B2
:10064000D7E70000001001402000002030120020F9
:100650000014004000000240000040422DE9FC4729
:1006600001217F2001F017F801248DF80440FF20BC
:100670008DF80640002500908DF8075003268DF870
:1006800005606946F14800F003FE8DF8044040F62D
:10069000FF708DF8065000908DF807408DF80560CA
:1006A0006946EB4800F0F4FD8DF8044038208DF8E1
:1006B00006500227DFF89C9300908DF807708DF8A4
:1006C00005606946484600F0E3FD8DF80440A0024D
:1006D0008DF80650DFF8808300908DF807408DF884
:1006E00005606946404600F0D3FD8DF80440B00334
:1006F0008DF8065000908DF807408DF8056069462A
:10070000D64800F0C5FD04208DF8077000908DF8E4
:1007100005608DF804506946404600F0B9FD802020
:1007200000906946CE4800F0B3FD8DF804406003A8
:100730008DF8065000908DF805608DF807406946E9
:10074000484600F0A5FDBDE8FC871FB50121082043
:1007500000F0BFFF0920019043F26F00ADF80000E8
:100760000020C04CADF80800ADF8020069462046F4
:1007700001F052FB0121204601F0F7FE0122114653
:10078000204601F0D2FE0021204601F0BDFB3220C0
:100790008DF80C0002208DF80D0003208DF80E005E
:1007A00001208DF80F0003A800F0B3FC1FBD3EB57B
:1007B000FFF754FF0121880300F095FF0721022075
:1007C00001F054F88020009000208DF804000C20E7
:1007D0008DF8050001248DF80640684601F02CFADA
:1007E00017208DF808008DF8094002208DF80A00C6
:1007F0008DF80B4002A800F08CFC3EBD2DE9F041C5
:10080000994E05460024A6F12007A6F1600836F8A7
:10081000142037F814102A40E24058F8240000F061
:10082000A0FD641CE4B2082CF1D3BDE8F08110B542
:1008300003004FF0FF30C1F34E02C1F303440AD06E
:10084000012B0DD0022B05D1C1F303510F2901D18A
:1008500002F5F00010BD0D2CFCD102F5D02010BD2A
:100860000E2CFCD102F5E02010BD2DE9F047DFF899
:10087000FCA10024C0F3160001214FEA1039C0F397
:100880000B08CAF8A812784D903DA5F11806A5F1FD
:10089000480755F8240036F8141000EA0800E04034
:1008A000C2B257F8240000F05CFD641CE4B20C2CCA
:1008B000EFD30A2000F02BFB0021CAF8A8120C4647
:1008C00055F8240036F8141000EA0900E040C2B2DE
:1008D00057F8240000F045FD641CE4B20C2CEFD363
:1008E000BDE8F0872DE9F0410C46FFF7BEFF207808
:1008F000FFF784FF5E4D0026C5F89062C5F88C6254
:10090000584F0121384601F0FFFA574CE43C20785B
:100910000028FCD00021384601F0F6FA01213846C3
:1009200001F023FE0021384601F0B8FA0120C5F895
:100930009002C5F88C02267077E770472DE9F041E8
:1009400006460024FFF791FF474DE43D0027AE60C7
:10095000474EC6F89472C6F88C72DFF80881012100
:10096000404601F0D1FA28780028FCD0002140460A
:1009700001F0CAFA0121404601F0F7FD002140468E
:1009800001F08CFA3148016901F0010239490A602D
:10099000036903F002034B60036903F004038B60F7
:1009A000036903F00803CB60036903F010030B61D4
:1009B000036903F020034B61036903F040038B617B
:1009C000006900F08000C8610120C6F89402C6F8F2
:1009D0008C022F70072051F820300BB144F0010435
:1009E00063061C0E401E10F0FF00F4D10AB144F063
:1009F0000104204619E710B51A4C0121204601F0E8
:100A0000A8FD01280ED10121204601F0AEFD0021F4
:100A1000204601F079FA1448E4388188491C818025
:100A20000121017010BD10B5802001F055F900289A
:100A30000BD00D480121E43801704188491C4180E8
:100A4000BDE81040802001F050B910BD00100240F8
:100A500000140240000C0240001802400004024052
:100A600000080240000C0040080100200000434242
:100A700000804142302200201FB50121042000F0F7
:100A800028FE43F26F0001906320ADF800000020C3
:100A90001C4CADF80200ADF808006946204601F094
:100AA000BBF90121204601F060FD012211462046DC
:100AB00001F03BFD0121204601F026FA1E208DF8B1
:100AC0000C0001208DF80D0003218DF80E108DF81B
:100AD0000F0003A800F01DFB1FBD10B5094C01213C
:100AE000204601F036FD012803D107490A68521C4F
:100AF0000A602046BDE81040012101F036BD0248E1
:100B000000687047000800402801002070B5EC4DD7
:100B1000FF22134605F5807605E010F8014B54409E
:100B20002A5D5A40335D491E89B2F6D243EA02205B
:100B300070BD1FB50121202000F0CBFD28200190C1
:100B400043F26F00ADF800000020DE4CADF8080065
:100B5000ADF802006946204601F05EF90122114617
:100B6000204601F0E2FC37208DF80C0002208DF8C1
:100B70000D0003208DF80E0001208DF80F0003A852
:100B800000F0C7FA1FBDD4E710B5CE4C01212046B6
:100B900001F0DFFC00280DD00121204601F0E5FC2A
:100BA0000021204601F0B0F9C7490120C1F8B00288
:100BB000C649487010BDC5488278002A04D0032970
:100BC00002D18188491C81807047C14A22F81010E7
:100BD000704710B5BF4A00EB4000C1F30B0322F889
:100BE0002030BA4BC1F302340C3302EB80001B5DA2
:100BF000002203718260090401D4402100E08021B9
:100C0000417110BDB44908707047B34948807047BE
:100C100010B5AE4CA178002909D1C10707D08007D3
:100C200005D403F0A3FA002801D10120A07010BD63
:100C30002DE9F0410024A94EA74DA44F36E006EB64
:100C40004400F988B0F807000A1992B240BAB2F528
:100C5000C86F1BD0A2F5C063413B25D05B1E13D0EB
:100C60005B1E16D05B1E3ED040F245639A4212D303
:100C700040F2656399420ED2A2F24562D2B20146B9
:100C80001046FFF7A6FF0FE068800DE0FFF7C0FFFA
:100C90000AE0287008E0A2F26562B2F5087F03D28C
:100CA00091B28B4A22F81100641CA4B238898442A4
:100CB000C5D38B4C30780621207070786070B07886
:100CC000A070F078E0703079207170796071204602
:100CD000FFF71CFF010AA171E0712046BDE8F04159
:100CE0000821FFF788BCBDE8F08110B57B4C77493F
:100CF000A088CA8840BAB2F5C66F3ED0A2F5C061DE
:100D000041393AD0C91E38D0B2F5C86F11D07249F6
:100D1000A2F5C063423B0AD05B1E0DD0991E20296C
:100D20000CD2CAB201461046FFF753FF0FE04880CD
:100D30000DE0FFF76DFF0AE0087008E0A2F26562BF
:100D4000B2F5087F19D291B2614A22F811006448C5
:100D50002178017061784170A1788170E178C1706B
:100D60002179017161794171A1798171E179C17153
:100D7000BDE810400821FFF73EBC10BD2DE9F04151
:100D8000524D002140F68502EE882B89F0189042E2
:100D9000A9D85248524C02782270407860705800AE
:100DA000A0702DE0701880B2B0F5C66F9BD0B0F582
:100DB000C86F98D0A0F5C062413A94D0521E92D02C
:100DC000521E90D040F24562904203D340F26562D9
:100DD000964288D3A0F5C062443A29D0213AB2F5B0
:100DE000047F27D23A4A02EB4000A0F58050B0F8C9
:100DF000360304EB4102070AD770491C107189B20F
:100E00009942CFD3032000EB430081B23448FFF76F
:100E10007DFE2A89030A04EB4201CB700871BDE80C
:100E2000F041052000EB4200C1B22D48FFF7E3BBC3
:100E3000A888DEE757E770B5244C607801283ED1DA
:100E4000264E2178274D3078884232D17078032899
:100E500003D0062801D010282BD1708840BAE0803A
:100E6000B0F5C66F25D92888801E81B21B48FFF7D0
:100E70004DFE60812988314431F8021C49BA88420C
:100E800017D17078032804D0062808D0102810D174
:100E900008E0B08840BA2081FFF770FF09E0FFF753
:100EA00024FF06E0B08840BA2081B079E070FFF7F7
:100EB000BFFE0020044960702880C1F8B00270BDF8
:100EC0004A65000800140040000040422C01002048
:100ED0000225002078230020F82400203012002072
:100EE000301A00202000002010B504466FF00400E6
:100EF00000F050F92949E00800EB40020870C2EB0D
:100F0000C0104FF6FF7202EAC000488010BD2349AE
:100F1000097848434FF0E021486100238B6108695C
:100F200040F0010008610869C20701D0C003FAD58A
:100F3000086920F0010008618B61704717494988F2
:100F400048434FF0E021486100238B61086940F07D
:100F5000010008610869C20701D0C003FAD5086919
:100F600020F0010008618B61704770B54FF407767F
:100F7000B0FBF6F1CCB2B0FBF6F106FB110504E0D4
:100F80003046FFF7DBFF641EE4B2002CF8D1002DE1
:100F900003D02846BDE87040D0E770BD3E01002078
:100FA0000020704744490A885206FCD5424AC1B223
:100FB000121D11807047704770477047F0B50646A4
:100FC00087B00121022000F066FB0121880400F0B7
:100FD00080FB3A4D07220A21284600F0CDF907226E
:100FE0000B21284600F0C8F902218DF814108DF865
:100FF00015104FF44060002404908DF8164001272E
:101000008DF8177004A9284600F042F9ADF80440A5
:10101000ADF80640ADF80840ADF80C400C20264C69
:10102000ADF80A0000966946204600F090FC0121C8
:10103000204600F0FDFC012240F22551204600F040
:1010400096FD27208DF8180003208DF819008DF8E3
:101050001A008DF81B7006A800F05BF807B0F0BD11
:1010600070B5154C40F22551204600F0A2FD002835
:101070000ED0204600F006FD114AC1B210880304CC
:1010800006D444044FF0000306D50A2901D013808A
:1010900070BD40F400400DE00D2909D0C0F30D04EF
:1010A000084D401C80B229551080C728EFD870BD6C
:1010B00040F48040108070BD0048004000040240B1
:1010C000420100207022002009488047094800475B
:1010D000FEE7FEE7FEE7FEE7FEE7FEE7FEE7FEE7E8
:1010E000FEE7FEE704480549054A064B7047000045
:1010F000F703000889010008082E002008340020AA
:10110000083000200830002028490843284908609A
:10111000704730B50F23C27801780125FAB1244A0F
:10112000126801F1E02102F4E062C2F5E062C2F36C
:101130000722C2F10404D3404278A24084781C40C4
:101140001443220181F80024007800F01F018D4033
:101150004009800000F1E020C0F8005130BD01F0EE
:101160001F0085404809800000F1E020C0F8805150
:1011700030BD104A114001430D48001F0160704707
:101180000B4A121D0029116801D0014300E0814380
:10119000116070474FF0E0210428086903D020F067
:1011A00004000861704740F00400FAE70000FA0507
:1011B0000CED00E080FFFF1F774910B5884206D193
:1011C0000121084600F099FA002101205BE07349F3
:1011D000884206D10121022000F08FFA002102206E
:1011E00051E06F49884206D10121042000F085FAC0
:1011F0000021042047E06B49884206D101210820E4
:1012000000F07BFA002108203DE06749884206D1C2
:101210000121102000F071FA0021102033E0634911
:10122000884206D10121202000F067FA0021202009
:1012300029E05F49884206D10121402000F05DFA93
:10124000002140201FE05B49884206D10121802017
:1012500000F053FA0021802015E05749884202D15E
:10126000012184150AE05549884202D10121441523
:1012700004E0534988420AD101210415204600F0B8
:101280003CFA00212046BDE8104000F036BA10BDFF
:10129000F0B5002201274FF0030C0B6807FA02F5A6
:1012A0002B40AB422CD1066853000CFA03F4A64342
:1012B00006600E79D0F800E09E4046EA0E06066011
:1012C0000E79012E01D0022E12D18668A6438660C7
:1012D0004E79D0F808E09E4046EA0E0686604668E1
:1012E000AE43466045688E799640B6B23543456058
:1012F000C568A543C560CC799C40C3681C43C460E5
:10130000521C102AC9D3F0BD4FF6FF7101600021B5
:10131000017141718171C171704708B541F480322A
:101320000092C261C1610099C161C169C069009048
:1013300008BD0246002012690A4200D00120704711
:10134000006980B270470246002052690A4200D00C
:1013500001207047406980B2704701837047418324
:1013600070470AB1018370474183704741617047FC
:1013700042694A40426170474B07DB0E9A40C908F8
:1013800010B500EB8100016A0F249C40A14301626B
:10139000016A1143016210BD0000024000040240D6
:1013A00000080240000C02400010024000140240FD
:1013B00000180240001C02400020024000240240AD
:1013C00000280240F848016841F001010160F64A36
:1013D0000021083211600268F44B1A400260031DBC
:1013E000F34A1A60F04BF34A84331A60F04A103A19
:1013F0001B1D1A60026822F480220260EA480C3049
:101400000160181D01607047E7490022891C0A70BD
:101410000870704702460020510901290CD00229AA
:101420000CD0E1497431096802F01F020123934096
:101430000B4200D001207047DB49F4E7DA497031F4
:10144000F1E718B500204FF4A04400903120FFF7D9
:10145000E1FF0099491C0091A14201D00028F5D07C
:101460003120FFF7D7FF002800D0012018BDCE4A59
:10147000116821F0F80141EAC00010607047CE49C0
:1014800008607047C849002270310A700A7001284C
:1014900002D0042801D1052008707047C7490860B0
:1014A000704741EA82115A0810B5C54B029C03EB04
:1014B00002421143014341EA0460BB49091D08602F
:1014C00010BDBD4908667047800140EA0170B64909
:1014D000843108607047B84988667047800140EAE7
:1014E0000160B14940EA0270883108607047B24932
:1014F00008677047B049C8647047AB4B08331A6837
:10150000084322F0EC62104318607047A64B083382
:101510001A68084322F07842104318607047A24AC4
:101520000832116821F003010143116070479E48A1
:101530000830006800F00C0070479B4A08321168C0
:1015400021F0F001014311607047974A0832116899
:1015500021F4E051014311607047934A0832116849
:1015600021F4604141EAC0001060704770B58E4BB5
:1015700008331968934C11F00C0104D0924E0429E1
:1015800003D0082903D004601BE0066019E0864AF6
:10159000121D1168C1F38055116801F03F0115B1AA
:1015A000B6FBF1F101E0B4FBF1F114681268C4F389
:1015B00088146143C2F30142521C5200B1FBF2F1A4
:1015C000016019680F2202EA1111804A545C016817
:1015D000E14041601C68072505EA9424145D21FA66
:1015E00004F484601B6805EA5333D25CD140C160C7
:1015F00070BDC0F30121032908D16B4B0833196872
:10160000734A21F4F81102400A431A6066497031A6
:101610000A68C0F30B0002430A6070476749443907
:101620000860704765494039086070476249C1F8F1
:101630005C0170475C4A8C321168401E21F01F012A
:10164000014311607047584A8C3211686FF0FF03F4
:1016500021F4F85103EB0020084310607047524A10
:101660008C32116821F440110143116070474E4AD9
:101670008C32116821F440010143116070474A4ADD
:101680008C32116821F44031014311607047514997
:10169000C1F8E0017047444A30320029116801D096
:1016A000014300E08143116070473F4A3432002912
:1016B000116801D0014300E08143116070473A4A4C
:1016C00038320029116801D0014300E081431160E4
:1016D0007047354A40320029116801D0014300E0CB
:1016E000814311607047304A44320029116801D0AB
:1016F000014300E08143116070472B4A10320029FA
:10170000116801D0014300E0814311607047264A0F
:1017100014320029116801D0014300E081431160B7
:101720007047214A18320029116801D0014300E0B6
:101730008143116070471C4A20320029116801D092
:10174000014300E0814311607047174A24320029A9
:10175000116801D0014300E0814311607047124AD3
:1017600050320029116801D0014300E0814311602B
:1017700070470D4A54320029116801D0014300E03E
:10178000814311607047084A58320029116801D01E
:10179000014300E0814311607047034A6032002931
:1017A000116819D0014318E000380240FFFFF6EA43
:1017B000103000240030002000004742800E4742D5
:1017C0000000FFFF0024F400001BB70048010020C8
:1017D000FFFCFF0F00104742814311607047194A18
:1017E0000029116801D0014300E081431160704776
:1017F00014490C310128086803D020F00800086063
:10180000704740F00800FAE70E4A573A002911786D
:1018100001D0014300E08143117070470948103046
:10182000016841F08071016070470146054A00205F
:10183000583A12680A4200D00120704701495639CF
:10184000087070476438024010B501218C032046AF
:10185000FFF77BFF2046BDE810400021FFF775BF72
:1018600014490860704714490862704710B58A0728
:1018700021F003041149120F21440F23D1F8084825
:1018800093409C43C1F80848D1F80838904003437E
:10189000C1F8083810BD0849C1F8DC007047084994
:1018A000086070470349002020310968C90500D548
:1018B00001207047003801400000274200300140FD
:1018C00000042742CD4910B5884206D101211020DD
:1018D000FFF73BFF0021102020E0C949884202D1D8
:1018E00001214C0429E0C749884202D101218C041E
:1018F00023E0C549884202D10121CC041DE0C3493F
:10190000884202D101210C0517E0C149884209D162
:1019100001212020FFF719FF00212020BDE8104001
:10192000FFF713BFBB49884202D101218C0704E0B5
:10193000B94988420AD1012144052046FFF7FBFE40
:101940002046BDE810400021FFF7F5BE10BD7FB571
:101950000446008A0D46C98820F440500143218284
:10196000A08941F20C618843A9882A8911436A89B8
:1019700002431143A181A08A20F44071A889084341
:10198000A0826846FFF7F2FD9C48844202D0A0483E
:10199000844201D1039800E00298A189090400EB78
:1019A000C00101EB0010296801D5490000E0890061
:1019B000B0FBF1F06422B0FBF2F109010B096FF00A
:1019C00018056B4300EB8300A3891D044FF032031D
:1019D00006D503EBC000B0FBF2F000F0070005E015
:1019E00003EB0010B0FBF2F000F00F000843208181
:1019F0007FBD4FF41651016000218180C1800181BB
:101A00000C2242818181704710B5028A4C8822F4F1
:101A100070630A8822438C88C9880C4322431A4386
:101A2000028210BD0021018041808180C180704709
:101A30000029818902D041F4005101E021F40051D4
:101A400081817047028B02F47F420283028B0A433A
:101A5000028370470029818902D041F4004101E0EE
:101A6000C1F30E01818170470029818A02D041F4BF
:101A7000006101E021F4006181827047C1F3080137
:101A8000818070478088C0F308007047028A22F086
:101A90000F020282028A0A4302827047002981896A
:101AA00002D041F0020101E021F002018181704782
:101AB000828922F40062828182890A43828170478E
:101AC000028A22F020020282028A0A4302827047BE
:101AD0000029018A02D041F4804101E021F48041D3
:101AE00001827047818941F001018181704700299D
:101AF000818A02D041F0080101E021F008018182D1
:101B00007047028BD2B20283028B42EA0121018329
:101B100070470029818A02D041F0200101E021F0C4
:101B20002001818270470029818A02D041F0100192
:101B300001E021F0100181827047828A22F00402C4
:101B40008282828A0A43828270470029818A02D077
:101B500041F0020101E021F0020181827047002A78
:101B6000828A01D00A4300E08A438282704710B51E
:101B7000C1F3421301F01F040121A140012B07D042
:101B8000022B07D01430002A026805D00A4304E073
:101B90000C30F8E71030F6E78A43026010BD0246C9
:101BA000002012880A4200D001207047C9430180FA
:101BB000704770B501F01F0501260024C1F34213E0
:101BC00006FA05F2012B0FD0022B0FD0838A4FEAC1
:101BD00011210088134206FA01F600EA060001D03E
:101BE00000B10124204670BD8389F0E7038AEEE747
:101BF0000A0A01219140C943018070470010014049
:101C00000044004000480040004C004000500040AC
:101C10000014014000780040007C0040354900205D
:101C20000860091D0860091D0860091D0860314928
:101C3000314814310860704730B52E4A8379016805
:101C400053B313688B431360111D0B680468A343DF
:101C50000B60017911440B68046823430B60254B2A
:101C6000083319680468A14319601C1D21680568C0
:101C7000A94321604179102905D011440A68006800
:101C800002430A6030BD1968026811431960216877
:101C900000680143216030BD0079104402688A4326
:101CA000026030BD0021016001710C22427181711E
:101CB0007047104910310A6802430A6070470146B4
:101CC0000C4A0020143212680A4200D001207047EA
:101CD00008491431086070470146064A0020143252
:101CE00012680A4200D0012070470249143108608E
:101CF00070470000003C0140FFFF7F00FE4910B527
:101D0000884206D101210846FFF71FFD002101206E
:101D10005BE0B0F1804F09D0F84988420DD1012134
:101D20000220FFF708FD0021022070E00121084693
:101D3000FFF701FD0021012069E0F149884206D149
:101D400001210420FFF7F7FC002104205FE0ED49AA
:101D5000884206D101210820FFF7EDFC0021082070
:101D600055E0E949884206D101211020FFF7E3FC44
:101D7000002110204BE0E549884206D101212020B6
:101D8000FFF7D9FC0021202041E0E149884206D13B
:101D900001210220FFF7D9FC0021022015E0DD49D6
:101DA000884202D101210C040AE0DB49884202D1B9
:101DB00001214C0404E0D94988420AD101218C0454
:101DC0002046FFF7C2FC00212046BDE81040FFF787
:101DD000BCBCD349884206D101214020FFF7ABFCAF
:101DE0000021402013E0CF49884206D10121802004
:101DF000FFF7A1FC0021802009E0CB4988420AD1ED
:101E0000841501212046FFF796FC00212046BDE8FD
:101E10001040FFF790BC10BD30B50288B64CBC4DE9
:101E2000A0420DD0A8420BD0B0F1804F08D0B34BE8
:101E3000984205D0B24B984202D0B24B984203D19F
:101E400022F070034A881A43AF4B984206D0AF4B3A
:101E5000984203D022F440730A891A4302804A68E8
:101E6000C2620A880285A04201D0A84201D1897AC3
:101E700001860121818230BD4FF0FF314160002198
:101E800001800181418081727047018582827047A3
:101E9000028822F070020A43028070474162704754
:101EA000C1627047406A7047008D70470029018801
:101EB00002D041F0020101E021F0020101807047EF
:101EC0000029018802D041F0040101E021F0040161
:101ED000018070470029018802D041F0800101E0B3
:101EE00021F0800101807047028822F00802028000
:101EF00002880A4302807047028822F440720280FE
:101F000002880A43028070470029018802D041F00C
:101F1000010101E021F001010180704730B5028C20
:101F200022F001020284028C8388048B22F00202D8
:101F300024F073050C882C438D8915434A882A4365
:101F40006D4DA84202D0724DA8420DD122F0080575
:101F5000CA8923F440732A4322F004058A882A435D
:101F60000D8A1D434B8A2B43838004838968416318
:101F7000028430BD70B5028C22F010020284028C03
:101F80008388048B0D8824F4E6464FF6FF7404EA38
:101F9000052535438E8922F0200204EA06161643F1
:101FA0004A8804EA02123243534EB04202D0584EDD
:101FB000B04215D122F08006CA8923F4406304EAB6
:101FC0000212324322F040068A8804EA02123243A7
:101FD0000E8A04EA86061E434B8A04EA83033343CF
:101FE0008380058389688163028470BD70B5028C2B
:101FF00022F480720284028C8388848B0D8824F002
:10200000730425438E894FF6FF7422F4007204EAAC
:10201000062616434A8804EA02223243364EB0426C
:1020200002D03B4EB04215D122F40066CA8923F497
:10203000405304EA0222324322F480668A8804EA8A
:10204000022232430E8A04EA06161E434B8A04EA31
:1020500003133343838085838968C163028470BD21
:1020600070B5028C22F480520284058C8288838BA6
:102070000C8823F4E6464FF6FF7303EA0424344346
:1020800025F400568D8903EA053535434E8803EA69
:1020900006362E43184DA84202D01D4DA84205D148
:1020A00022F480450A8A03EA82122A4382808483CA
:1020B00089680164068470BD0021018041808180AF
:1020C00081608181C18101824182704730B50124E4
:1020D000058C00F118038C40A543058431B3082911
:1020E0002CD0091FC1F34E001844016848F6FF7355
:1020F0001940016001681AE000000140000400403E
:1021000000080040000C0040001000400014004097
:1021100000040140004001400044014000480140EB
:1021200000180040001C00400020004006E04FF670
:10213000FF7303EA02221143016030BD03EB51003B
:1021400001684FF68F73194001600168F3E741633E
:10215000704781637047C163704701647047028BA9
:1021600022F070020A4302837047028B4FF6FF731E
:1021700022F4E04203EA0121114301837047828B7C
:1021800022F070020A4382837047828B4FF6FF73FE
:1021900022F4E04203EA0121114381837047028B5C
:1021A00022F008020A4302837047028B4FF6FF7346
:1021B00022F4006203EA0121114301837047828BFC
:1021C00022F008020A4382837047828B4FF6FF7326
:1021D00022F4006203EA0121114381837047028BDC
:1021E00022F004020A4302837047028B4FF6FF730A
:1021F00022F4806203EA0121114301837047828B3C
:1022000022F004020A4382837047828B4FF6FF73E9
:1022100022F4806203EA0121114381837047028B1B
:1022200022F080020A4302837047028B4FF6FF734D
:10223000C2F30E0203EA0121114301837047828B2E
:1022400022F080020A4382837047828B4FF6FF732D
:10225000C2F30E0203EA0121114381837047028C0D
:1022600022F002020A4302847047028C22F0080224
:102270000A4302847047028C4FF6FF7322F020025B
:1022800003EA0111114301847047028C4FF6FF737A
:1022900022F0800203EA0111114301847047028C8D
:1022A0004FF6FF7322F4007203EA01211143018407
:1022B0007047028C4FF6FF7322F4006203EA01219B
:1022C000114301847047028C4FF6FF7322F40052D1
:1022D00003EA013111430184704710B50123048CD6
:1022E0008B409C430484038C8A401343038410BDB9
:1022F00010B50423048C8B409C430484038C8A40D7
:102300001343038410BD828B22F440628283828B4C
:102310004FF6FF7303EA01210A4382837047828BE1
:1023200022F00C028283828B0A4382837047028BE5
:1023300022F440620283028B4FF6FF7303EA01210D
:102340000A4302837047F0B5048C24F0100404841F
:10235000078B068C4FF6FF7404EA011527F47347C8
:1023600004EA0331394304EA02220A4326F0A001B9
:10237000294341F0100102830184F0BD028B22F059
:102380000C020283028B0A43028370472DE9F0415D
:102390000C460E884988A288238905460EB3042E70
:1023A00026D0082E2E8C4FF6FF7028D026F48056AB
:1023B0002E84AF8B2E8C00EA022200EA013127F432
:1023C00073473A4300EA0330104326F420420A439D
:1023D00042F48051A8832984E1882846BDE8F04171
:1023E00091E700F062F9E1882846BDE8F041C5E7D1
:1023F000FFF7A9FFE1882846BDE8F04197E726F4FA
:1024000080762E84AF8B2E8C00EA012100EA031027
:10241000104327F0F307384326F420620A4342F4BE
:102420008071A8832984E1882846BDE8F04176E7D9
:1024300000210180418001228280C180018170479A
:102440002DE9F0410C46002649880746012501B9CF
:102450000226A288012A00D102252088238900288B
:10246000384610D0FFF76FFFE1883846FFF75FFF6F
:1024700023892A463146384600F017F9E188384664
:10248000BDE8F0417AE700F010F9E1883846FFF73F
:1024900075FF23892A4631463846FFF754FFE18805
:1024A0003846BDE8F04142E7406B7047806B7047AB
:1024B000C06B7047006C704710B50A884B88CC8899
:1024C0001A438B8823431A430B891A434B89898902
:1024D0001A430A43A0F8442010BD00210180418026
:1024E0008180C1800181418181817047002930F85C
:1024F000441F02D041F4004101E0C1F30E0101800C
:1025000070470029818802D041F0040101E021F0E8
:102510000401818070470029818802D041F00101C7
:1025200001E021F0010181807047002A828901D0F9
:102530000A4300E08A4382817047818270470246E5
:102540000020128A0A4200D001207047C94301824C
:10255000704702460020138A92890B4202EA010268
:1025600002D0002A00D001207047C9430182704781
:102570001143A0F848107047002A828901D00A430D
:1025800000E08A43828170470029818802D041F0AF
:10259000080101E021F0080181807047018921F0E4
:1025A000070101817047028922F070020A4302810B
:1025B000704700B50346FFF7F6FF188940F00700A3
:1025C000188100BD70B516460D46602904464FF0CF
:1025D000010231460AD000F068F829462046FFF78C
:1025E000E2FF208940F00700208170BDFFF7ABFEBD
:1025F000F3E730B504894FF6FF7505EA032313436B
:10260000E4B20B432343038130BD10B50446FFF70A
:10261000F0FF208940F07700208110BD10B50446FE
:10262000FFF7E7FF208940F48040208110BD8288B9
:1026300022F07002828082880A4382807047028979
:1026400022F00702028102890A430281704702894F
:1026500022F08002028102890A430281704770B52C
:102660000589048B068C25F007050D434FF6FC41C8
:102670000C4040F201110C434FF6FF7101EA0311C7
:1026800026F022061143314305810483018470BD85
:102690000029818802D041F0800101E021F0800111
:1026A00081807047A0F85010704770B5048C24F0FA
:1026B00001040484058B048C4FF6FF7606EA0313AD
:1026C000134325F0F3052B4324F00A020A4342F09A
:1026D00001010383018470BD70B500200446F74DED
:1026E00008E00021204602F00FF8052800D1002064
:1026F000641CE4B229888C4201D20028F1D070BD5C
:10270000F8B500260C460546067032466946304646
:1027100002F093F808B1022612E00022BDF8000092
:10272000C00704D004F8012B2878401C2870BDF89D
:102730000000521C4008D2B2ADF80000102AEDD3C0
:102740003046F8BD01F0E0BF01F0ECBF00880A465A
:10275000C0F30B01000B02F00AB830B40C4600883D
:1027600013462246C0F30B0130BC000B02F010B838
:102770002DE9F043844600200546074606460346F9
:10278000044601B902202021D0BB002ABCF8002059
:10279000C2F3C6080BD0B8F11F0F06D802F0070825
:1027A000B8F1060F01D8D2073AB106202AE0B8F1F5
:1027B0007F0F02D0D2435207F6E7BCF80030BCF8D6
:1027C0000220DF2404EA9326970AA6F1070CC2F33D
:1027D000C60302F007044FF00109BCF1090F11D242
:1027E000DFE80CF005101010333327271A0009EB2F
:1027F0004702202AD9D87A4201EB4201491E15E04E
:1028000000E0012550EA050136D1052F5FD2DFE84F
:1028100007F02B474B4F57004FF0020C0CEB4702D1
:10282000202AC2D87A4201EB4201891E9942BCDBC0
:1028300017E009EB922CBCF1200FB6D8A1EB922146
:10284000491E9942B1DBD90709E009EB9222B1EBAD
:10285000520FAAD3A1EB52019942A6DB9907002996
:10286000A3D1002CCDD0A0E746B1012E0BD0022E73
:102870000FD01F2B29DC44BBBDE8F0831F2B24DCC9
:10288000072C22D8F8E71F2B1FDC062C1DD8E107E8
:1028900004E01F2B19DC042C17D8A107A9B9EBE71A
:1028A0001E2B12DCD9070EE01C2B0EDC99070AE068
:1028B0001A2B0ADC0621B3FBF1F201FB123102E014
:1028C000182B02DC59070029D5D00620D4E70720B1
:1028D000D2E7F0B504460020C1F302175642059D29
:1028E000052F5BD2DFE807F0032A343E4E00661E58
:1028F00059B1012910D0022916D022B1A11A99424A
:1029000001DB002D00D00620F0BD012AFBD1B3422F
:10291000F9DC072DF7D8F0BD012AF4D1B342F2DC7F
:10292000062DF0D8E90706E0012AECD1B342EADC33
:10293000042DE8D8A9070029E5D1F0BD022CE2D387
:10294000002AE0D004EB46019942DCDBD90722E003
:10295000042CD8D3002AD6D004EB86019942D2DBCE
:10296000990718E0062CCED3002ACCD0A2EB820126
:1029700004EB41019942C6DB0621B3FBF1F201FBF6
:10298000123108E0082CBED3002ABCD004EBC601EB
:102990009942B8DB59070029B5D1B2E70720F0BD4D
:1029A00008B5086840B1CA7900928B794A7920202D
:1029B0000979FFF78EFF08BD022008BD2DE9FF4110
:1029C00000250A9E140601D5012400E0002412F01F
:1029D0007F0212D0012A18D0022A22D0322A28D00F
:1029E000120968D0012A6ED0022A6AD0042A69D05E
:1029F000072504B02846BDE8F0810B780122007855
:102A0000B240934300F0010006E00B780322007807
:102A1000B240934300F00300B040104003430B70FA
:102A2000E7E70B780F220078B240934300F00F00E5
:102A3000F2E7002236E0066800962CB301969DF876
:102A400007608DF800609DF806608DF801609DF8C4
:102A500005608DF802609DF804608DF80360BDF894
:102A6000006021F8026BBDF8026021F8026B8688D5
:102A70000E80ADF804609DF8056001F8016B9DF8CB
:102A8000046001F8016B0AE0BDF8006021F8026BF8
:102A9000BDF8026021F8026B868821F8026B521C97
:102AA000D2B208309A42C6D3A3E710F8014B521CA9
:102AB00001F8014BD2B29A42F7D39AE74A6700086D
:102AC00001E015E02CE000220FE030F8026B0E80F0
:102AD00044B1B6B2ADF804609DF805600E709DF883
:102AE00004604E70521CD2B2891C9A42EDD380E72A
:102AF000002212E040C80E6064B101969DF80760A4
:102B00000E709DF806604E709DF805608E709DF801
:102B10000460CE70521CD2B2091D9A42EAD368E713
:102B2000002221E0F0E80267C1E90067CCB1CDE9FD
:102B300002679DF80F600E709DF80E604E709DF854
:102B40000D608E709DF80C60CE709DF80B600E715C
:102B50009DF80A604E719DF809608E719DF80860BD
:102B6000CE71521CD2B208319A42DBD341E72DE933
:102B7000FC410026089C150601D5012500E0002532
:102B800012F07F0211D0012A17D0022A1FD0322A58
:102B900025D0120959D0012A5AD0022A6DD0042A10
:102BA0007ED007263046BDE8FC8109780278E140F6
:102BB00002F0FE0201F0010106E009780278E1402E
:102BC00002F0FC0201F003010A430270EAE709780F
:102BD0000278E14002F0F00201F00F01F4E7002278
:102BE0002AE031F8027B67F30F0431F8027B67F3C8
:102BF0001F440460D5B100949DF8037007709DF8E0
:102C0000027047709DF8017087709DF80070C77062
:102C100031F8027B8780ADF800709DF801C080F824
:102C200004C09DF800C080F805C002E031F8027BC6
:102C30008780521CD2B208309A42D2D3B2E711F840
:102C4000014B521C00F8014BD2B29A42F7D3A9E7CC
:102C500000220FE031F8024B048045B1A4B2ADF878
:102C600000409DF8014004709DF800404470521CE3
:102C7000D2B2801C9A42EDD394E7002214E010C92E
:102C8000046065B100949DF8034004709DF8024013
:102C900044709DF8014084709DF80040C47000E0CD
:102CA00005E0521CD2B2001D9A42E8D37AE7002216
:102CB00021E0F1E80247C0E90047CDB1CDE9004786
:102CC0009DF8074004709DF8064044709DF805404B
:102CD00084709DF80440C4709DF8034004719DF811
:102CE000024044719DF8014084719DF80040C47118
:102CF000521CD2B208309A42DBD353E7F8B51646DD
:102D00000F460446FFF734FD002852D122880120E7
:102D1000910ACB1F092B22D2DFE803F005212121E4
:102D2000191B12140B00638805229B0A00EB430356
:102D30001EE060880522800A022303EB400317E0AF
:102D4000152200E01622638800EB932310E0252271
:102D500000E02622638800EB9320430808E0DF2090
:102D600000EA92206288920A40EA0210C2B201236D
:102D7000880601D542F080026088FF4D00F007010F
:102D800000912968C0F3C60001443846FFF716FEDB
:102D900000280ED1002E0CD02088012300F007015E
:102DA00000912968C0F3C60001441A463046FFF777
:102DB00005FEF8BDF8B516460F460446FFF7D8FCE9
:102DC000002852D122880120910ACB1F092B22D240
:102DD000DFE803F005212121191B12140B00638881
:102DE00005229B0A00EB43031EE060880522800A4F
:102DF000022303EB400317E0152200E0162263884C
:102E000000EB932310E0252200E02622638800EBEC
:102E10009320430808E0DF2000EA92206288920AAB
:102E200040EA0210C2B20123880601D542F08002B6
:102E30006088D14D00F0070100912968C0F3C600F9
:102E400001443846FFF793FE00280ED1002E0CD027
:102E50002088012300F0070100912968C0F3C60013
:102E600001441A463046FFF782FEF8BDF8B5064623
:102E700000200546B788346812E02146F068FFF765
:102E80008FFD50B9E0790090BB49A079637909685A
:102E9000227901442068FFF791FD6D1CADB2083422
:102EA000BD4201D20028E8D0F8BDF8B506460020A2
:102EB0000546B788346812E02146F068FFF770FDD8
:102EC00050B9E0790090AC49A0796379096822791A
:102ED00001442068FFF74BFE6D1CADB20834BD42C3
:102EE00001D20028E8D0F8BD2DE9F84306460020BD
:102EF00096F801900746361D4F4522D2002820D172
:102F000031680025B1F804800C6813E03068214670
:102F1000C068FFF745FD50B9E07900909649A07967
:102F200063790968227901442068FFF747FD6D1C29
:102F3000ADB20834454501D20028E7D07F1CBFB2AE
:102F4000D9E7BDE8F8832DE9F8430646002096F856
:102F500001900746361D4F45F3D20028F1D1316864
:102F60000025B1F804800C6813E030682146C06881
:102F7000FFF716FD50B9E07900907F49A079637999
:102F80000968227901442068FFF7F1FD6D1CADB29C
:102F90000834454501D20028E7D07F1CBFB2D9E7ED
:102FA000CFE770B575A002F00BFF734D00242868C1
:102FB000015D39B172A002F003FF641CA4B2102CB1
:102FC000F5D370BD70A002F0FBFEF6E72DE9F04FDF
:102FD000B5B0002469A002F0F3FE6CA002F0F0FE90
:102FE00072A002F0EDFE644B002019684FF000085B
:102FF0009B4601F80080401C80B22028F6D35FA0D9
:1030000002F0DEFE71A002F0DBFE75A002F0D8FE39
:1030100000273E464FF0AA0949E01020ADF8040011
:10302000BDF802008DF86C9020F47C4067F3C90075
:1030300066F30200ADF80200BDF80000002520F4A0
:103040007C4040F47E7040F00700ADF800009DF831
:103050006C000022C0438DF86C001BA96846FFF786
:103060004DFE040016D100238DF8C8801A4632A9FF
:103070006846FFF79FFE04000CD19DF86C009DF898
:10308000C81000F00100884201D0022402E00DB90E
:10309000FFF787FF6D1CADB2022DD8D3761CF6B2B8
:1030A000082E02D17F1CFFB20026022F01D2002C75
:1030B000B3D032A002F084FE002C5CD12FA002F02D
:1030C0007FFE4CA002F07CFE50A002F079FE0027AB
:1030D0003E464FF0550A1020ADF80400BDF802003E
:1030E000B91C20F47C4067F3C90066F30200ADF818
:1030F0000200BDF800008DF8889020F47C4000F5B7
:10310000806061F3C90066F302008DF8B0A0ADF8ED
:103110000000002501E0022D13D09DF88800C04377
:103120008DF888009DF8B000C0438DF8B0002CAA3F
:1031300022A96846FFF7E2FD040006D0062C77D0EE
:103140007CE040468DF88880EFE78DF8B8808DF8F8
:10315000D080002334AA2EA96846FFF72BFE040076
:103160006CD19DF888009DF8B81000F003008842EB
:1031700059D0022462E0F7E0580100200A00000064
:1031800025303258200000002E2E20005465737424
:103190002050726F63657373205661726961626C4F
:1031A000657320284156290A000000003D3D3D3D41
:1031B0003D3D3D3D3D3D3D3D3D3D3D3D3D3D3D3D3F
:1031C0003D3D3D3D3D3D3D0A000000005641525F02
:1031D000545950455F424F4F4C45414E313A0A00D9
:1031E0002D2D2D2D2D2D2D2D2D2D2D2D2D2D2D2D0F
:1031F0002D2D00005641525F545950455F414E54A9
:103200004956414C454E54323A0A00002D2D2D2D81
:103210002D2D2D2D2D2D2D2D2D2D2D2D2D2D2D2DDE
:103220002D00000004E0022D08D2FFF7BAFE05E0F1
:10323000F00703D0F8A002F0C3FD00246D1CADB26E
:10324000032DFFF468AF761CF6B2082E02D17F1C66
:10325000FFB20026022F02D2002C3FF43CAFAFF2A7
:10326000E40002F0ADFD002C7ED1AFF2F00002F0E0
:10327000A7FDEAA002F0A4FDAFF2980002F0A0FDC5
:1032800000273E461020ADF80400BDF802008DF87E
:10329000949020F47C4067F3C90066F30200ADF817
:1032A0000200BDF80000002520F47C4000F500601D
:1032B00040F47E7040F00700ADF8000001E0022D00
:1032C0000ED09DF89400C0438DF89400002225A9EB
:1032D0006846FFF713FD040005D0062C1CD021E042
:1032E0008DF89480F2E700238DF8CC801A4633A93C
:1032F0006846FFF75FFD040014D19DF894009DF827
:10330000CC1000F00F00884201D002240AE0022D08
:1033100008D2FFF746FE05E0B00703D0BEA002F0DA
:103320004FFD00246D1CADB2032DC8D3761CF6B240
:10333000082E02D17F1CFFB20026022F01D2002CE2
:10334000A0D0AFF2C81002F03BFDAFF2D01002F0F7
:1033500037FD002C88D1AFF2DC1002F031FDB3A0B4
:1033600002F02EFDB6A000E076E202F029FD002773
:103370008DF868A01020ADF80400BDF8020000250B
:1033800020F47C4067F3C90020F00700ADF802008C
:10339000BDF80000464620F47C4000F5A05040F403
:1033A0007E7040F00700ADF8000001E0022D0CD067
:1033B0009DF86800C0438DF8680000221AA968468D
:1033C000FFF79CFC040003D018E08DF86860F4E778
:1033D00000238DF8BC601A462FA96846FFF7EAFC67
:1033E00004000BD19DF868009DF8BC10884201D004
:1033F000022403E0022D01D2FFF7D3FD6D1CADB214
:10340000032DD3D37F1CFFB2022F01D2002CAFD0EB
:10341000AFF2982002F0D4FC002C9BD1AFF2A42094
:1034200002F0CEFC8AA002F0CBFC8EA002F0C8FC19
:10343000002745F65E70ADF864001020ADF804007A
:10344000BDF80200002520F47C4000F5806067F3A1
:10345000C90020F00700ADF80200BDF8000020F41C
:103460007C4000F5A05040F47E7040F00700ADF8BD
:10347000000001E0022D0ED0BDF86400C043ADF89D
:103480006400002219A96846FFF738FC040005D043
:10349000062C1AD01FE0ADF86460F2E70023ADF807
:1034A000C0601A4630A96846FFF784FC040012D1B8
:1034B000BDF86400BDF8C010884201D002240AE0C3
:1034C000022D08D2FFF76DFD05E0F80703D06AA0D2
:1034D00002F076FC00246D1CADB2032DCAD37F1C14
:1034E000FFB2022F01D8002CA3D05DA002F068FC2F
:1034F000002C92D15AA002F063FC60A002F060FCA4
:1035000058A002F05DFCDFF8888100271020CDF87C
:103510008C80ADF80400BDF80200002520F47C404A
:1035200000F5006067F3C90020F00700ADF8020065
:10353000BDF8000020F47C4000F5A05040F47E70FF
:1035400040F00700ADF8000001E0022D0CD02398F8
:10355000C0432390002223A96846FFF7CFFB040055
:1035600004D0062C16D01BE02396F3E700231A465E
:1035700031A968463196FFF71DFC040010D131993E
:103580002398884201D002240AE0022D08D2FFF7D6
:1035900008FD05E0B80703D037A002F011FC0024B5
:1035A0006D1CADB2032DD0D37F1CFFB2042F01D808
:1035B000002CABD02AA002F003FC002C99D128A04B
:1035C00002F0FEFB33A002F0FBFB38A002F0F8FB98
:1035D000002745F65A30ADF848001020ADF8040039
:1035E000BDF80200CDF8448020F47C4000F5406036
:1035F00067F3C90020F00700ADF80200BDF8000035
:10360000002520F47C4000F5006040F47E7040F01E
:103610000700ADF8000057E0690000005641525F16
:10362000545950455F424344343A0A005641525F70
:10363000545950455F574F5244383A0A0000000031
:103640002D2D2D2D2D2D2D2D2D2D2D2D2D2D2D00D7
:103650005641525F545950455F574F524431363AA4
:103660000A0000002D2D2D2D2D2D2D2D2D2D2D2D34
:103670002D2D2D2D00000000490000005641525F05
:10368000545950455F574F524433323A0A000000B4
:103690005C5D5E5F5641525F545950455F54494DE1
:1036A000454441544534383A0A0000002D2D2D2D53
:1036B0002D2D2D2D2D2D2D2D2D2D2D2D2D2D2D2D3A
:1036C00000000000022D11D01198C0431190BDF8E8
:1036D0004800C043ADF84800002211A96846FFF732
:1036E0000DFB040006D0062C20D02AE01196ADF880
:1036F0004860F1E700232696ADF89C601A4626A99B
:103700006846FFF757FB04001BD1269911988842A1
:1037100005D1BDF84800BDF89C10884201D00224B4
:103720000FE0022D0DD2FFF73CFC0AE00620B7FBAC
:10373000F0F100FB117020B1AFF2C40002F040FBC9
:1037400000246D1CADB2032DBCD37F1CFFB2062F2D
:1037500002D8002C3FF43DAFAFF2FC0002F030FB8A
:10376000002C79D1AFF2081002F02AFBF2A002F08F
:1037700027FBAFF2101002F023FB0027F449F348B7
:10378000CDE916011020ADF80400BDF802000025B7
:1037900020F47C4000F5805067F3C90020F007005A
:1037A000ADF80200BDF8000020F47C4000F5A05008
:1037B00040F47E7040F00700ADF8000001E0022DFB
:1037C0000FD0DDE91610C943C043CDE91610002221
:1037D00016A96846FFF792FA040006D0062C1ED000
:1037E00024E00020CDE91600F1E70020CDE9280013
:1037F0000346024628A96846FFF7DCFA040015D103
:10380000DDE91610DDE9283259405040014301D06E
:1038100002240BE0022D09D2FFF7C3FB06E0780774
:1038200004D0AFF2AC1002F0CBFA00246D1CADB2A4
:10383000032DC4D37F1CFFB2082F01D8002C9DD0CC
:10384000C1A002F0BDFA002C8BD1BFA002F0B8FAE3
:10385000C0A002F0B5FA00E0E5E0C6A002F0B0FAC0
:103860005F278DF808705E208DF809005D208DF8C7
:103870000A005C208DF80B001020ADF80400BDF8A4
:103880000200002520F47C4000F580606FF3090001
:10389000ADF80200BDF8000020F47C4000F5E050D7
:1038A00040F47E7040F00700ADF8000001E0022D0A
:1038B0001BD09DF80800C0438DF808009DF8090052
:1038C000C0438DF809009DF80A00C0438DF80A0036
:1038D0009DF80B00C0438DF80B00002202A968463A
:1038E000FFF70CFA040002D022E00296F5E700236D
:1038F0001A4615A968461596FFF75CFA040017D119
:103900009DF808009DF8541088420BD19DF80900DD
:103910009DF85510884205D19DF80A009DF8561073
:10392000884201D0022403E0022D01D2FFF739FBC7
:103930006D1CADB2032DBAD383A002F041FA002C66
:1039400071D181A002F03CFA92A002F039FA99A05C
:1039500002F036FA8DF808705E208DF809005D20BF
:103960008DF80A005C208DF80B001020ADF80400E3
:10397000BDF80200002520F47C4000F580606FF364
:103980000900ADF80200BDF8000020F47C4000F50D
:10399000705040F47E7040F00700ADF8000001E088
:1039A000022D1BD09DF80800C0438DF808009DF83B
:1039B0000900C0438DF809009DF80A00C0438DF846
:1039C0000A009DF80B00C0438DF80B00002202A9ED
:1039D0006846FFF793F9040002D029E00296F5E764
:1039E00000231A4615A968461596FFF7E3F9040067
:1039F0001ED19DF808009DF85410884211D19DF801
:103A000009009DF8551088420BD19DF80A009DF8D9
:103A10005610884205D19DF80B009DF8571088423A
:103A200002D0022404E086E0022D01D2FFF7B9FAA9
:103A30006D1CADB2032DB3D343A002F0C1F9002C2D
:103A400079D141A002F0BCF962A002F0B9F96BA0F3
:103A500002F0B6F945F65E70ADF8600045F65C50D0
:103A6000ADF862001020ADF80400BDF8020000259A
:103A700020F47C4000F580606FF30900ADF802008F
:103A8000BDF8000020F47C4000F5505040F47E70FA
:103A900040F00700ADF8000011E0022D02D0012D2A
:103AA0000DD104E0ADF86060ADF8626011E0BDF8E2
:103AB000000020F47C4000F56050ADF80000BDF837
:103AC0006000C043ADF86000BDF86200C043ADF8CF
:103AD0006200002218A96846FFF710F904001DD102
:103AE000ADF8B4600023ADF8B6601A462DA968465B
:103AF000FFF760F9040011D1BDF86000BDF8B41003
:103B0000884205D1BDF86200BDF8B610884201D0E8
:103B1000022403E0022D01D2FFF743FA6D1CADB27F
:103B2000032DBAD308A002F04BF9002C88D106A0CF
:103B300002F046F976E019E15641525F545950457A
:103B40005F574F524436343A0A00000058595A5BC6
:103B50005C5D5E5F41505F5641525F545950455F16
:103B600041525241595F574F5244385F4F44443A93
:103B70000A0000002D2D2D2D2D2D2D2D2D2D2D2D1F
:103B80002D2D2D2D2D2D2D2D2D2D2D2D2D2D2D2D65
:103B90000000000041505F5641525F545950455F4C
:103BA00041525241595F574F5244385F4556454E36
:103BB0003A0A00002D2D2D2D2D2D2D2D2D2D2D2DA5
:103BC0002D2D2D2D2D2D2D2D2D2D2D2D2D2D2D2D25
:103BD0002D0000005641525F545950455F415252EA
:103BE00041595F554E5349474E454431362F494E52
:103BF000544547455231363A0A0000002D2D2D2DEF
:103C00002D2D2D2D2D2D2D2D2D2D2D2D2D2D2D2DE4
:103C10002D2D2D2D2D2D2D2D2D2D2D2D2D2D2D2DD4
:103C2000000000009CA002F0CBF8AFF2300002F0E0
:103C3000C7F8A348CDE913801020ADF80400BDF803
:103C40000200002520F47C4000F540606FF309007D
:103C5000ADF80200BDF8000020F47C4000F53050C3
:103C600040F47E7040F00700ADF800000FE0022D38
:103C700002D0012D0BD102E0139614960DE0BDF891
:103C8000000020F47C4000F54050ADF8000013988F
:103C9000C04313901498C0431490002213A968469F
:103CA000FFF72CF8040017D100232A961A462AA9F8
:103CB00068462B96FFF77EF804000DD12A991398D9
:103CC000884203D12B991498884201D0022403E042
:103CD000022D01D2FFF765F96D1CADB2032DC6D3DD
:103CE00076A002F06DF875A002F06AF8F4BB73A03C
:103CF00002F066F873A002F063F8AFF2B46002F06D
:103D00005FF800251BA88DF81050012603908DF850
:103D100011608DF8125004208DF813008DF8689012
:103D200005208DF818000DF16808CDF814804AF2CE
:103D3000A210ADF864008DF86CA019A807901520AA
:103D40008DF820008DF8216002208DF819608DF823
:103D500022008DF81A604F468DF81B5010208DF808
:103D60002350ADF890000DF10C0900E05AE003205B
:103D7000ADF828000B95BDF89000ADF83000CDF8F7
:103D8000249009A8FFF772F8040073D1FFF709F92E
:103D90004AA002F015F8DBF8001000200D54401C7A
:103DA00080B22028FAD3ECBB44A002F009F848A066
:103DB00002F006F8AFF2747002F002F81BA88DF85A
:103DC000105003908DF811608DF8125004208DF87A
:103DD00013008DF8687005208DF818008DF81960B3
:103DE0008DF81A608DF81B501020ADF890008DF8FA
:103DF0006CA080B2CDF814800227ADF83000ADF889
:103E000028704AF2A210ADF8640019A81C90CDF8F1
:103E1000249015208DF874008DF875600B958DF841
:103E2000767000E026E01020ADF890001CA80D9000
:103E3000BDF890008DF87750ADF84000ADF83860CF
:103E40000F95102001F009FF06001AD03570777029
:103E500009A870600DA8B0603046FFF745F804006F
:103E600004D1FFF79EF815A001F0AAFF304601F03B
:103E700023FF34B11AA001F0A3FF35B02046BDE8FE
:103E8000F08F0EA001F09CFF17A001F099FF26A073
:103E900001F096FF14A0EEE75641525F5459504589
:103EA0005F41525241595F554E5349474E45443345
:103EB000322F494E544547455233323A0A000000EA
:103EC00058595A5B50565F5345543A0A0000000057
:103ED00050565F434C55535445523A0A0000000077
:103EE0004552524F520A00002A2A2A2A2A2A2A2AEE
:103EF0002A2A2A2A2A2A2A2A2A2A2A2A2A2A2A2A22
:103F00002A2A2A2A2A2A2A2A2A2A2A2A2A2A2A2A11
:103F10002A2A2A2A2A2A2A2A2A2A2A2A2A2A2A2A01
:103F20002A2A2A0A000000002A2054657374206F90
:103F3000662050726F6365737320566172696162A7
:103F40006C65732028415629207465726D696E6115
:103F5000746573207375636365737366756C6C79D0
:103F600021202A0A0000000070B5002004460B4DF5
:103F700007E0204600F038FC052800D10020641C32
:103F8000E4B229888C4201D20028F2D070BD00F042
:103F900054BC00F080BC00F042BC00004C6700083C
:103FA0007CB5FFF7E1FF010001D0F4A010E0F9A01B
:103FB00001F006FFFEF790FB010008D1F9A001F027
:103FC000FFFE10210020FEF7BDFB010003D0FAA088
:103FD00001F0F6FE7CBDFEA001F0F2FE02258DF898
:103FE0000050402000268DF8010010216B46012270
:103FF00030460196FEF7A8FB040004D0FEA001F0B5
:10400000DFFE2146E3E78DF8005080208DF80100A7
:1040100018216B46012200200196FEF795FB010056
:10402000D5D17CBD2DE9FC5FF6480024007800283E
:104030003CD0F548DFF8D4B30BF1200A00780AF63B
:104040000A29A9F5086850B353E004EB44060AEBCB
:1040500086055746687940281BD12221EC4802F09A
:1040600078F837F82610BDF8000001AA61F30B00BC
:1040700020F47040ADF80000E5496846FEF76DFB9E
:1040800004EB041108EB41002A7909F1020102F066
:104090001BF8287941080BF80410641CE4B2DD48D1
:1040A0000078A042D1D8D84801210170BDE8FC9F1A
:1040B00004EB44060AEB86055746687940281DD074
:1040C0002A7904EB04114D4608EB4101A81C01F0CC
:1040D000FBFF37F82610BDF8000061F30B0020F459
:1040E0007040ADF80000A91C6846FEF72FFB641C69
:1040F000E4B2C8480078A042DAD8D7E72221C44801
:1041000002F027F837F82610BDF8000001AA61F385
:104110000B0020F47040ADF80000BD496846FEF782
:104120001CFB2A7904EB0415464608EB4500B84908
:1041300001F0CAFF0020DFF8E0C25F460AE029185C
:104140003CF8113036F81120934201D02CF81120A0
:10415000401CC0B2395D8142F1D800211BF8042017
:10416000601C10FB025026F81010C0E770B5FFF776
:10417000FBFE50BBFEF7B0FA38BB10210020FEF763
:10418000E1FA10BBA34D0024A5F5C0760DE004EBC9
:10419000440006EB800336F82010012200201B1D8E
:1041A000FEF7D2FA88B9641CE4B22878A042EED8AF
:1041B000002028716871A8710C21E9712881AA1C5E
:1041C0000B21FFF7E8FE002800D0FF2070BD2DE98D
:1041D000F04100248EB0254676A001F0F1FD8FA0BD
:1041E00001F0EEFD93A001F0EBFD98A001F0E8FDD9
:1041F000FFF7BAFE060002D0014660A011E065A0FC
:1042000001F0DEFDFEF768FA060008D165A001F0B6
:10421000D7FD10210020FEF795FA060005D00146D3
:104220001CE001F0CDFD344686E169A001F0C8FD37
:1042300002278DF8247040204FF000088DF82500EB
:10424000102109AB01224046CDF82880FEF77CFA08
:10425000060005D068A001F0B3FD314656A0E0E7A6
:104260008DF8247080208DF825001821464609AB72
:1042700001220020CDF82880FEF766FA070001D061
:10428000014654E175A001F09BFD4FF001088DF847
:1042900030600C20ADF82C808DF831008DF82E6048
:1042A0008DF82F60ADF832600BAA0B210020FFF7CC
:1042B00072FE070002D0014630A03AE11020ADF8AE
:1042C000000073A001F07CFD0DAA01A96846FEF76D
:1042D00044FA0746014675A001F072FD9DF80520DD
:1042E0009DF8041077A001F06BFD002F44D1182039
:1042F000ADF800007BA001F063FD0DAA01A968469E
:10430000FEF72BFA0746014668A001F059FD9DF81B
:1043100005209DF804106BA001F052FD002F2BD159
:104320001820ADF8000012208DF8040034208DF81C
:10433000050073A001F044FD9DF805209DF80410D0
:1043400060A001F03DFD01A96846FEF7FFF90700F6
:1043500096D11820ADF8000062A001F031FD0DAA41
:1043600001A96846FEF7F9F9074601464FA001F09A
:1043700027FD9DF80520D1E0D8E000004552524FBE
:10438000523A2061735F726573756C743D25750ACE
:10439000000000002D2061705F696E697428290A91
:1043A000000000002D2061705F74735F636F6E66A4
:1043B000696728290A0000004552524F523A20618D
:1043C000705F726573756C743D25750A000000009E
:1043D0002D2061705F706F72745F6D616E616765D3
:1043E0002850445F5052545F434D445F434F4E4604
:1043F0004947290A000000004552524F52312121FD
:10440000210A00002E0100205C010020582300201A
:10441000822D0020F82400204229002044656D6F81
:10442000206F662054434E204472697665722041A5
:1044300050490A003D3D3D3D3D3D3D3D3D3D3D3DFD
:104440003D3D3D3D3D3D3D3D3D3D0A002D206173DF
:104450005F696E697428290A000000002D206173CD
:104460005F736572766963655F68616E646C6572BF
:104470002853565F4D56425F534552564943455F58
:1044800057524954455F434F4E54524F4C290A00EE
:104490002D2061705F6765745F646174617365741A
:1044A000283078303130290A0000000020202D3ECD
:1044B00020726573756C74202020203D2025640ACD
:1044C0000000000020202D3E20706F72745F646138
:1044D0007461203D203078253032582030782530E6
:1044E00032580A002D2061705F6765745F646174E3
:1044F00061736574283078303138290A0000000073
:104500002D2061705F7075745F6461746173657490
:10451000283078303138290A000000009DF8041056
:10452000AFF2600001F04CFC002F17D03946AFF21B
:10453000781001F045FC3C46AFF2881001F040FCD9
:104540002FA001F03DFC21463BA001F039FC2CA03E
:1045500001F036FC0EB02046BDE8F08135A001F038
:104560002FFC43A001F02CFC4EA001F029FC40A040
:1045700001F026FC584806802146641C57A001F033
:104580001FFCADB91820ADF8000033208DF80400F1
:1045900035208DF8050001A96846FEF7D7F8070019
:1045A00006D00146AFF2F01001F00AFC3C46D1E71C
:1045B0001420FCF7DAFC002DDED11020ADF800004D
:1045C0008DF804608DF805600DAA01A96846FEF714
:1045D000C4F80100D0D0AFF2202001F0F1FB494F28
:1045E000C7F8B8824FF4FA7007F52E77FCF7BDFCD8
:1045F0003E6041F28830FCF7B8FCFFF7D1FCBBE726
:104600002A2A2A2A2A2A2A2A2A2A2A2A2A2A2A2A0A
:104610002A2A2A2A2A2A2A2A2A2A2A2A2A2A2A2AFA
:104620002A2A2A2A2A2A2A2A2A2A2A2A2A2A2A2AEA
:104630002A2A2A2A0A0000002A2054434E206465B0
:104640006D6F206170706C69636174696F6E207446
:1046500065726D696E617465732077697468206531
:1046600072726F722028253264292E202A0A0000D7
:104670002A2A2A2A2A2A2A2A2A2A2A2A2A2A2A2A9A
:104680002A2A2A2A2A2A2A2A2A2A2A2A2A2A2A2A8A
:104690002A2A2A2A2A2A2A2A2A2A2A2A2A2A2A2A7A
:1046A0002A0A00002A2054434E2064656D6F206161
:1046B00070706C69636174696F6E207465726D6986
:1046C0006E61746573207375636365737366756C6F
:1046D0006C7921202A0A0000280000203C2D2D2D75
:1046E0002D2D2D2D2D2D2D2D497465726174696F21
:1046F0006E20256C642D2D2D2D2D2D2D2D2D2D2D48
:104700003E0D0A0000804042102801D30620704769
:104710002A4A52F8200018B1026B0AB1006810470B
:104720000520704710B5102802D2B1F5805F01D383
:10473000062412E0012A07D0022A05D0032A03D05A
:10474000042A01D0022408E01C4C54F8200030B1A7
:10475000446B3CB10068A0470446204610BD0524C8
:1047600017A001E005241BA001F02AFBF5E71028A3
:1047700002D2B1F5805F01D3062070470F4B53F88A
:10478000200018B1836B0BB10068184705207047F3
:1047900030B4102802D2B1F5805F02D3062030BCBD
:1047A0007047064C54F8200028B1C46B1CB1006857
:1047B000A44630BC60470520F1E70000F01100205E
:1047C0004C505F554E4B4E4F575F54532026262674
:1047D0000D0A00004C505F554E4B4E4F575F5453DF
:1047E000203C3C3C0D0A000010B53A4910280870E6
:1047F00005D3014638A001F0E3FA062010BD3B497D
:1048000051F8200028B1816A29B10068BDE8104044
:104810000847052010BD36A001F0D2FAF9E71028AC
:1048200001D306207047314B53F8200018B1C36AFA
:104830000BB10068184705207047F0B5012400232C
:1048400000B1038001B10B8002B11380274E002319
:104850004FF6FF7756F82350ADB1AD6A9DB110B158
:1048600005882543058031B156F823502D6B15B1CD
:104870000D8825430D8032B156F823502D6C15B1AB
:104880001588254315805B1C9BB207EA4404102B56
:10489000E0D30020F0BD70B500241546102801D3E8
:1048A00006240CE0114A52F8203053B11B790B70EA
:1048B00052F8201020222846491D01F005FC204610
:1048C00070BD002008702021284601F042FC05241C
:1048D000F5E700005D0100204C494E4B3A206C6921
:1048E0006E6B5F69643D25750A000000F0110020C1
:1048F0004C535F554E4B4E4F574E5F4C494E4B20DD
:104900002A2A2A3E0D0A000070B500220D460646EE
:10491000144607E0304600F073FB00F00102641C0F
:10492000202A05D0AC42F5D3202A01D0022070BD48
:10493000002070BD70B504468EA001F041FA97A02A
:10494000216801F03DFA9CA0616801F039FAA1A04C
:10495000A16801F035FAA5A0E16801F031FA20461E
:1049600000F046FB060049D1A6A001F029FA8BA071
:10497000216801F025FA90A0616801F021FA95A064
:10498000A16801F01DFA99A0E16801F019FAA7A049
:1049900001F016FA00252946204600F02BFB0146BF
:1049A000A4A001F00DFA6D1CADB2082DF3D39EA0AA
:1049B00001F006FA0521204600F01CFB05460146E1
:1049C0009EA001F0FDF9204600F01AFB04460146C6
:1049D0009EA001F0F5F9A54204D1A0A001F0F0F9E4
:1049E00026B10BE09FA001F0EBF906E024F00101F5
:1049F000602903D09EA001F0E3F90126304670BD86
:104A000070B5002506462C460021304600F0FBFA22
:104A1000641CA4B2222CF7D3304600F0F1FA6028CF
:104A200000D00125284670BD70B5002106460C4611
:104A3000C56807E0304600F0E3FA00F02001641C8E
:104A4000202909D0AC42F5D3202905D02A468EA0D2
:104A500001F0B6F9022070BD002070BD10B500F065
:104A6000D2FA002010BD13B504469DF8051000F0E1
:104A7000CAFA9DF80410204600F0C5FA00201CBDBB
:104A80002DE9F04114460E46074600250AE021783C
:104A9000384600F0B8FA61783846A41C00F0B3FA42
:104AA000AD1CADB2B542F2D30020BDE8F08170B5C7
:104AB0000D460646002405E00021304600F0A3FA2A
:104AC000641CA4B2AC42F7D3002070BD0020704734
:104AD00070B5064619B100210C46F56809E00020C2
:104AE00070BD304600F08CFA10F0010104F10104B1
:104AF000F5D1AC42F5D30029F1D1022070BD10B53B
:104B00000C4600F086FA2070002010BD70B50C46EF
:104B1000054600F07EFA6070284600F07AFA2070B0
:104B2000002070BD2DE9F04114460E4607460025D1
:104B30000AE0384600F06DFA2070384600F069FA55
:104B4000AD1C6070ADB2A41CB542F2D30020ACE73E
:104B500070B50D460646002404E0304600F059FAD0
:104B6000641CA4B2AC42F8D3002070BD0020704792
:104B7000002070474D55455F414343525F494E46C3
:104B80004F206265666F726520276D75655F616392
:104B900063725F696E6974273A0A00002D206163B1
:104BA000635F7265675F7262725F7468723D3078CE
:104BB0002530386C580A00002D206163635F7265F0
:104BC000675F6C7372202020203D30782530386C70
:104BD000580A00002D206163635F7265675F736927
:104BE0007A652020203D256C640A00002D20616339
:104BF000635F7265675F74696D656F75743D256C81
:104C0000640A00004D55455F414343525F494E469B
:104C10004F20616674657220276D75655F616363FF
:104C2000725F696E6974273A0A0000005265677303
:104C30003D0000003078253032582000526567353D
:104C40003D307825303258203F2000005265674CB7
:104C500053523D3078253032582000002D3E204FF1
:104C60004B0A00002D3E204552524F520A000000D0
:104C70004552524F523A205265674C53523D30785C
:104C8000253032580A0000004D55455F52455355B6
:104C90004C545F54494D454F5554207265675F6CC5
:104CA0007372203D20307825782C2074696D656FF3
:104CB00075745F6D6178203D2025640D0A00000049
:104CC00070B50C4605460321FFF7AEFE00281BD148
:104CD00048212846FFF7C2FE002815D12146284664
:104CE000FFF7C1FE00280FD12846FFF7EFFE00288E
:104CF0000AD100212846FFF7EBFE002804D1284600
:104D0000BDE87040FFF734BF70BD70B50D46144666
:104D100006460321FFF788FE002821D149213046AD
:104D2000FFF79CFE00281BD129463046FFF79BFE6B
:104D3000002815D13046FFF7C9FE002810D1022106
:104D40003046FFF7C5FE00280AD121463046FFF75E
:104D5000DDFE002804D13046BDE87040FFF708BFF3
:104D600070BD2DE9F0410E461D461446074623212D
:104D7000FFF75AFE00282AD150213846FFF76EFE71
:104D8000002824D131463846FFF76DFE00281ED199
:104D90002A4621463846FFF773FE002817D1C4F192
:104DA000200081B23846FFF782FE00280FD1384636
:104DB000FFF78CFE00280AD100213846FFF788FE55
:104DC000002804D13846BDE8F041FFF7D1BEBDE868
:104DD000F0812DE9F0478946DDE909851C46174633
:104DE00082460321089EFFF71FFE002845D1472178
:104DF0005046FFF733FE00283FD149465046FFF7A3
:104E000032FE002839D15046FFF760FE002834D129
:104E100023215046FFF75CFE00282ED13146504634
:104E2000FFF76DFE002828D1012F02D130788009CC
:104E300014D0424621465046FFF774FE00281CD18C
:104E400075B1C4F1200081B25046FFF781FE002801
:104E500013D129465046FFF759FE07E0222102E010
:104E6000C4F1220081B25046FFF780FE002804D131
:104E70005046BDE8F047FFF77BBEBDE8F08770B550
:104E80000C4605460321FFF7CFFD00281BD1432127
:104E90002846FFF7E3FD002815D121462846FFF7F5
:104EA000E2FD00280FD12846FFF710FE00280AD1A6
:104EB00000212846FFF70CFE002804D12846BDE853
:104EC0007040FFF755BE70BD70B50C460546012118
:104ED000FFF7AAFD00281BD153212846FFF7BEFD8E
:104EE000002815D12846FFF7F1FD002810D1022136
:104EF0002846FFF7EDFD00280AD121462846FFF796
:104F000005FE002804D12846BDE87040FFF730BEFA
:104F100070BD70B50C4605460121FFF785FD0028E0
:104F20001BD141212846FFF799FD002815D12146C4
:104F30002846FFF798FD00280FD12846FFF7C6FD49
:104F400000280AD100212846FFF7C2FD002804D11D
:104F50002846BDE87040FFF70BBE70BD2DE9F04755
:104F60008846DDE908751C46164681460321FFF791
:104F70005BFD00283AD144214846FFF76FFD002829
:104F800034D141464846FFF76EFD00282ED14846F1
:104F9000FFF79CFD002829D105214846FFF798FD21
:104FA000002823D121464846FFF7A9FD00281DD13E
:104FB000012E02D1207880090BD039464846FFF7F0
:104FC000A5FD002812D135B129464846FFF79EFDC0
:104FD00005E0042100E002214846FFF7C7FD002854
:104FE00004D14846BDE8F047FFF7C2BDBDE8F087F1
:104FF000002070470268806800FB0120FBF79EBC20
:105000004068FBF79BBC13B5006801A9FBF76AFC7D
:105010001CBD0068FBF792BC10B5FC49C38A098827
:10502000994317D1FA49FB4B09781B780A4000F1E4
:1050300018011C309A4204D10B685C1C01D05B1C27
:105040000B60F54909788A4204D101684A1C01D0F5
:10505000491C016010BD2DE9F04186B04FF00008F9
:10506000ADF808800C46A1F800800746A1F8028040
:1050700045462021201D01F08EF8202104F1240056
:1050800001F089F8A4F8445084F8465084F8475059
:10509000A56403A93846E564FFF716FF18B1387513
:1050A0004FF0020847E0DD48BDF80C60008806407C
:1050B000387CB8B105A902A8CDE9000104AB0022F3
:1050C00031463846FFF74AFF0028E8D19DF8102006
:1050D00031463846FFF7A0FFBDF8140049F64041BD
:1050E000884201D3ADF8085025806680BDF80800DD
:1050F000A4F8440084F8465084F84750B869A06486
:10510000F869E064C6480025066828463EB1316863
:10511000B94204D1711D201D00F0B2FF01206D1CA9
:10512000EDB2102D02D20028F0D004E018B9BDA1D4
:10513000201D00F0A5FF06B04046BDE8F0812DE936
:10514000F8430026B54F0446ADF800600D460888C8
:105150003988B146884201D8E87808B103267DE055
:1051600069462046FFF7B0FEF0BBBDF80000398865
:10517000B34F8843ADF80000B5F800C0B14B4CEA1E
:10518000000CADF800C03A881988607C114350B318
:105190006879AD4A5FEA006805D5B2F800804CEA4C
:1051A000080CADF800C05FEA406C07D5BDF800C040
:1051B000B2F800802CEA080CADF800C05FEA007C71
:1051C00009D4400707D4BDF80000B2F800C020EAB7
:1051D0000C00ADF80000BDF80000014203D11288B8
:1051E0009043ADF8000000E022E068791B880207D8
:1051F000BDF8002001D51A4300E09A434007ADF8FE
:10520000002090B23A8801D5104300E09043ADF8F9
:1052100000008E4A80B20142118801D0084300E0AC
:105220008843ADF8000081B22046FFF728FE10B198
:105230002075022612E069462046FFF745FE002849
:10524000F6D1BDF80000E0826879800701D5C4F886
:1052500018906879C00701D0C4F81C903046BDE8AA
:10526000F8832DE9F04F014600208A880AB12A2AE6
:105270007DD1CA88B2F5806F79D10A8942B1B2F581
:10528000804F05D0B2F5004F02D0B2F5404F6ED13D
:105290004A89B2F57A7F6AD1CA890AB1012A66D1F0
:1052A0000A8BD30763D1242A61D14B8BDA075ED1F5
:1052B000242B5CD38A8BD40759D19A4257D1CE8BF9
:1052C000F40754D1964252D30F8CFC074FD1B7420A
:1052D0004DD34C8CA246E4077ED1BA457CD3243B07
:1052E00003EBD373C3F34F034FF4805E734573D85E
:1052F000B31A9BB2A3F6C823B3F5005F6CD8B242D1
:1053000001D1002300E053180021042403EB4102E3
:10531000158BD28AAA1A4D0002EBD27204FA05F557
:10532000C2F34F02ADB2954200D00320491C89B2AE
:10533000042903D20028E9D0BDE8F08F0028FBD172
:1053400001218B4603EB410233F811405288121BB6
:1053500002EBD272C2F34F0901F0010202EB5102DB
:10536000521E0BFA01F492B21FFA84F800E033E007
:1053700003EB4202D48A128B944201D1002200E056
:10538000E21800252C460CE05FEAC17C02D092F8BE
:1053900000C001E092F801C0641C6544ADB2A4B243
:1053A000921C4445F0D3A94500D00320491C89B282
:1053B0000B2902D20028C5D0BEE70028BCD1B91BFA
:1053C00001EBD171C1F34F01714505D8AAEB07017B
:1053D00089B2B1F5806FAFD90320ADE72DE9F34F66
:1053E000A3B00020239D1E90ADF85C000E46084639
:1053F000FFF737FF040007D1044FB5F816C038880F
:105400001CEA000F24D10A2447E100006467000869
:105410007067000872670008716700086E6700080F
:10542000F0110020647561676F6E204D5642204375
:105430006F6E74726F6C6C6572204D554500000084
:1054400068670008666700086A6700086C670008FC
:10545000B08BF18B884201D1002100E0811948888E
:105460000A88801A00EBD070C0F34F002090002013
:1054700001EB400331F810205E88B24201D10023D5
:1054800000E053180DF12C08B21A02EBD27248F862
:105490002030C2F34F021AB10122824092B21E9212
:1054A000401C80B20B28E3D3002001EB4002D38ADA
:1054B000128B934201D1002200E05A1818AB43F836
:1054C0002020401C80B20528EFD3002C9CD1FF4E39
:1054D0003888328810432CEA0001ADF85C1023981C
:1054E000FFF7CDFC002875D1E98A30888143ADF8FB
:1054F0005C102398FFF7C3FC0028F4D1688A0027CA
:105500001D903846A2E020984FF0000820B30B9879
:105510000026E94600901AE059F828000088C0F3F8
:105520000E011D98874201D3032409E044B9239852
:10553000FFF7EFFC10B12875022401E07F1CBFB219
:1055400059F82810891C761C49F82810B6B2209802
:10555000864201D2002CDFD001265AE006F001007D
:1055600000EB5600401E0121B14089B21F9180B26C
:1055700018A94FF0000851F820901F991698491E5D
:10558000084021903CD10BA850F826104DF8261069
:1055900036E0219840452DD1F00702D099F800005F
:1055A00001E099F801005FEA000B23D000201CE025
:1055B0005DF826000088C0F30E011D98874201D3D4
:1055C00003240AE04CB92398FFF7A3FC18B128750F
:1055D000022402E055E07F1CBFB25DF826100AF1FC
:1055E0000100891C4DF8261080B28246584501D230
:1055F000002CDDD008F1010009F102091FFA80F842
:105600001F99884501D2002CC3D0761CB6B20B2E50
:1056100002D2002CA2D016E0ACB916981E99401CFC
:10562000884210D2169840F420411D98874201D339
:10563000032408E02398FFF76CFC10B128750224BE
:1056400001E07F1CBFB21698401C80B21E991690D4
:10565000884203D2002C3FF456AF1EE0ECB91D98EF
:105660004AF6FF71874201D3032416E02398FFF71F
:1056700050FC30B9E98AADF85C102398FFF7FFFBC6
:1056800010B12875022408E017A92398FFF71CFC25
:105690000028F6D1BDF85C00E882204625B04BE634
:1056A000F8B50025ADF800500575C5828561044642
:1056B0002F46C561FFF73EF940BB2046FFF7A0F932
:1056C00020BB00212046FFF7DAFBF8B940F2231691
:1056D000ADF8007031462046FFF7D1FBB0B96946FE
:1056E0002046FFF7F1FB88B9BDF80010B1420DD19B
:1056F00040F6DC66ADF8007031462046FFF7BFFB90
:1057000020B969462046FFF7DFFB10B1207502255E
:1057100009E0BDF80010B142F8D100212046FFF7A2
:10572000AEFB0028F2D12846F8BD2DE9FC4100254A
:105730000D291FD006DC0A290DD00B290FD00C290A
:1057400073D110E04FF00008C0291AD0E0292AD008
:10575000E1296AD145E01146FFF77DFC0FE01146D3
:10576000FFF7EDFC0BE0017C00295ED0114600F054
:1057700060F804E0417C99B31146FFF72FFE05461F
:1057800054E0044616461421104600F004FDA069BA
:10579000F060E0693061B078800747D0C4F81880C5
:1057A000C4F81C8042E0417CD1B1002532F8028B64
:1057B000418A07462E46144641450CD203250AE08D
:1057C00021883846FFF7A5FB10B13875022502E0A5
:1057D000761CB6B2A41C464528D2002DF0D025E098
:1057E00023E0017C09B31688C2F800803849C2F86A
:1057F0000480168009880025144607468E4201D988
:10580000032513E0A21D211DCDE90012E31C002297
:105810003146FFF7A3FB10B13875022506E0E278A8
:1058200031463846FFF7F8FB00E001252846BDE881
:10583000FC812DE9F043804685B00F46002404200A
:1058400000F00BFA386030B10021018000263546A7
:10585000DFF8809035E00424F8E704A903A8CDE937
:10586000000102AB002229464046FFF777FB18B142
:1058700088F81400022422E00CBB9DF80820294679
:105880004046FFF7C9FBBDF8100049F64041884289
:1058900015D2062000EB8601386800F034FA386033
:1058A00000B3022101EB860108440580BDF80C100D
:1058B000418038680188491C761C0180B6B26D1C95
:1058C000ADB2B9F80000854208D205E06A67000869
:1058D0006E67000862670008002CBED005B0204645
:1058E000BDE8F0830424EAE72DE9F041002688466C
:1058F00004460684314630464FF480572218401C37
:1059000080B282F82210B842F8D300250AE0294676
:105910002046FFF7D5F908B1207502266D1CADB2FF
:10592000BD4202D2002EF2D002E00EB9A4F82080CF
:105930003046BDE8F0812DE9F04706466E48002468
:105940008AB000881D460F46814273D8012A05D0CF
:10595000022A03D0032A01D0042A6BD1664906EB40
:105960000708DFF898A10B8898F8220007EA0301DE
:10597000012A07D040B14FF00009022A06D0042ABC
:105980000DD02DE0B8BB2BE0012471E0ADF8001084
:105990003046FFF795F978BB88F8229068E085F8E3
:1059A0000090C84685F801906A4639463046FFF7B0
:1059B000ACF908BB5249BDF8000009880840010B4A
:1059C000022088402870BDF80000BAF80010084294
:1059D00001D0802000E040206870C5F8048047E0D6
:1059E000ADF80010287808281ED006DC022809D05F
:1059F00004281FD108E01DE02DE0102816D0202833
:105A000018D115E03F4800E03F4800880143ADF859
:105A10000010687801060FD5BDF80000BAF8001034
:105A20000843ADF8000009E03848EEE73848ECE7F5
:105A30003848EAE703241BE04006FBD5012A0DD1D4
:105A4000202101A800F0A7FB01AB202239463046F7
:105A5000FFF787F910B13075022409E0BDF8001096
:105A60003046FFF72DF90028F5D1297888F8221063
:105A70000AB02046BDE8F08770B513461E4A0024E0
:105A800005461288914201D9032408E06A1892F869
:105A9000222032B1FFF765F908B1287502242046AB
:105AA00070BD0124FBE72DE9FF410E461249002499
:105AB0008DF80C4009881F4605468E4201D9032403
:105AC00016E0A91991F8223053B103A98DE8860098
:105AD00000223146FFF77DF920B12875022407E046
